:020000040800F2
:1000000000A00020B91400082D10000831100008CD
:1000100035100008391000083D10000800000000ED
:100020000000000000000000000000004110000877
:10003000451000080000000049100008F9110008F0
:10004000FD140008FD140008FD140008FD1400084C
:10005000FD140008FD140008FD140008FD1400083C
:10006000FD140008FD140008FD140008FD1400082C
:10007000FD140008FD140008FD140008FD1400081C
:10008000FD140008FD140008FD140008FD1400080C
:10009000FD140008FD140008FD140008FD140008FC
:1000A000FD140008FD140008FD140008FD140008EC
:1000B000FD140008FD140008FD140008FD140008DC
:1000C000FD140008FD140008FD140008FD140008CC
:1000D000FD140008FD140008350D0008A50F0008E8
:1000E000FD140008FD140008FD140008FD140008AC
:1000F000FD140008FD140008FD140008FD1400089C
:10010000000000000000000000000000FD140008D6
:10011000FD140008FD140008FD140008FD1400087B
:10012000FD140008FD140008FD140008FD1400086B
:10013000FD140008FD14000800000000000000008D
:10014000FD140008FD140008FD1400080000000064
:10015000000000000000000000000000000000009F
:100160000000000000000000FD140008FD1400085D
:10017000FD14000800000000000000000000000066
:1001800000000000FD1400084C4A4D4B4D491B88EF
:1001900009884D482DE9F0414C4E15883768DFF845
:1001A00064E17268DEF800C0B260ED1A7C1902EBFF
:1001B000040880FB083001FB0CF3C1F5806105FBEE
:1001C0000133A0EBE870424ADFF83C8135604FF420
:1001D0007A7101FB00F111603E4A7760002BB8BFD5
:1001E00003F2FF331178CEF804C09A12C8F8000069
:1001F000CEF80020384B394E00294ED0B3F900100C
:10020000CCEB0202642303FB02F201FB02F2326038
:10021000334B3449B3F90020334F42F2107312FBD1
:1002200003F3324A04FB03F387FB034714680A68AD
:100230004A60DB17C3EBA7331344624293420B605F
:10024000BCBFC4F101030B609C421CDA284B1F7831
:10025000631E0B60DFB9274B274AB3F900301278D1
:10026000264C00FB03F053429D42206001DD954285
:100270001DDB0A683368224910441844BDE8F04188
:10028000086001F03DB91A4F3F78002FE3D09A4241
:10029000C4BFC4F101040C60DDE7B3F90030EF1B0B
:1002A000642202FB07F703FB07F73760B0E7144B44
:1002B0000020BDE8F041186001F022B93E000020A6
:1002C000E00400203200002056555555B0040020AF
:1002D000A8040020390000203A0000209C040020DF
:1002E000C80400209404002089B5F81434000020CC
:1002F000380000203C000020300000209004002046
:10030000C4040020A0040020AC040020A54A5368C7
:1003100003F00C03042BF0B500F00F81082B00F064
:10032000F980A14C046003B100239E4D9F496A6887
:10033000C2F3031211F802E05FFA8EFE24FA0EF205
:1003400042606E68C6F302268E5D22FA06F686606B
:100350006F68C7F3C227CF5DFFB2FA40C260ED6A93
:10036000C5F3041501EB45052D8AADB215F0100F4C
:100370001CBFB3FBF5F505618A4D08BF0461ED6A4A
:10038000C5F3442501EB4501098A89B2CD0644BF76
:10039000B3FBF1F14161834958BF4461096BCD065C
:1003A0005CBF814981617F4948BF8461096B8906CF
:1003B0005CBF7D49C1617B4948BFC4610D6BED05E0
:1003C00038D5A34200F0BF8002620B6B4262754BCE
:1003D000196B890738D18262724B1A6B12F4403F55
:1003E0004AD1C6626F4B1A6B12F4402F5DD106637F
:1003F0006C4B1A6B12F4401F70D14663694B1A6B39
:1004000012F4400F00F084801A6B02F44002B2F53F
:10041000800F00F0AD801A6B02F44002B2F5000FBD
:1004200000F0BB801B6B03F44003B3F5400F00F0FA
:10043000A180F0BD0262096B8D05C7D5A342C5D16D
:10044000BE45C3D1630087E01A6B02F00302012AA4
:1004500000F084801A6B02F00302022A00F09180FF
:100460001B6B03F00303032B04BF4F4B83624D4B05
:100470001A6B12F4403FB4D01A6B02F44032B2F55A
:10048000803F5ED01A6B02F44032B2F5003F74D068
:100490001B6B03F44033B3F5403F04BF424BC362D0
:1004A000404B1A6B12F4402FA1D01A6B02F4402279
:1004B000B2F5802F56D01A6B02F44022B2F5002F0D
:1004C00067D01B6B03F44023B3F5402F04BF364BBA
:1004D0000363344B1A6B12F4401F8ED01A6B02F474
:1004E0004012B2F5801F3BD01A6B02F44012B2F5F5
:1004F000001F4AD01B6B03F44013B3F5401F04BF29
:10050000294B4363274B1A6B12F4400F7FF47CAFE7
:100510008663F0BD53685468C3F38343991CE303B7
:1005200022D5D36A204A03F00F030133B2FBF3F361
:1005300001FB03F303601C46F7E61B4C0460002339
:10054000F3E6C4624EE7BE457FF43EAF630003624C
:10055000096B8F057FF53AAF436238E784623BE76A
:1005600044634BE7046343E7114B03FB01F3E1E70B
:100570008463F0BD0C4B8363F0BD4FF40043C36252
:1005800030E74FF40043836226E74FF400434363B0
:1005900034E74FF4004303632AE74FF400438363D7
:1005A000F0BD00BF0010024000127A0000000020E1
:1005B00000093D00064A030FD36A14BF23F47853A1
:1005C00023F4F873D362024AD36A1843D0627047A7
:1005D0000010024029B9054A536923EA000050611E
:1005E0007047024B5A69104358617047001002402F
:1005F00029B9054AD36923EA0000D0617047024B4C
:10060000DA691043D86170470010024070B5334872
:1006100082B0FFF7CFFF01214FF00050FFF7DAFF64
:100620002F4800F0ADF901212E4800F00FFA002309
:100630000193019B472B05DC019B01330193019B37
:10064000472BF9DD2748002100F0F4F9254800F098
:10065000EBF9244800F0F6F904460028F9D1224BC2
:1006600020481C6019465C609C60DC601C7400F0D3
:1006700093F91B4B1B485C6001254FF480521946CF
:100680004FF400565A619C60DC601C619C611E60E6
:100690001D7700F055F92946124823462A4600F0F6
:1006A000E3F929460F4800F0B5F901210D4800F0A3
:1006B00043FA0028F9D001214FF48020FFF78AFF88
:1006C0000A4B084800210122032502241D711C60E9
:1006D000D9715A7100F02AFA02B070BD00200010E2
:1006E000FC040020000400501C050020F40400203D
:1006F00030B501218BB00846FFF77AFF204A214B25
:1007000012881B880392002502A94FF08040ADF8A3
:100710000830ADF81050ADF80A5000F031FE1A4B19
:10072000ADF820501B8807930124602305A94FF0E2
:1007300080400593ADF8184000F084FE21464FF448
:100740000030FFF747FF022369464FF090400093C7
:100750008DF804308DF807508DF8054000F076FCD8
:10076000224621464FF0904000F0CCFC4FF08040F4
:100770004FF4D0432146C36100F056FE0BB030BDAC
:100780002E0000208C0400202C00002001214FF0BE
:10079000804000F049BE00BF00214FF0804000F0D3
:1007A00043BE00BF4FF0804328B141088122D86288
:1007B00099631A80704764228121DA629A631980F2
:1007C000704700BFF0B5012183B0174C174E0420CD
:1007D000FFF70EFF0125FA227D2368214720A16142
:1007E000256229462085E2624FF480106363FFF79B
:1007F000F1FE0227002330464FF4805269468DF8FF
:10080000073000928DF805508DF8047000F01EFC42
:100810003A4630460C2100F075FC23889BB22B43EE
:10082000238003B0F0BD00BF00080040000C00486A
:1008300010B43E4C3E4BD4F888003E4A3E4940F44A
:100840007000C4F88800186840F00100186058680B
:1008500002405A601A6822F0847222F480321A60D0
:100860001A6822F480221A605A6822F4FE025A6042
:10087000DA6A22F00F02DA62186B83B000220140BC
:1008800019639A60009201921A6842F480321A60E9
:100890001A4603E0009BB3F5A06F09D0136803F478
:1008A00000330193009B01330093019B002BF1D097
:1008B0001F4B1B6813F4003318BF01230193019BE6
:1008C000012B07D0194B4FF000629A6003B05DF81E
:1008D000044B7047194A164B122111605A685A602E
:1008E0005A685A605A6842F480625A605A6822F420
:1008F0007C125A605A6842F4E8125A601A6842F050
:1009000080721A601A461168094B8901FBD55A6832
:1009100022F003025A605A6842F002025A601A46F4
:10092000536803F00C03082BFAD1CBE700ED00E08D
:10093000001002400CC07FF8CCFC00FF00200240F9
:1009400001F10C02F0B41CCA0F684D688E683D437B
:1009500035432A43C66842EA03058A69074B2C439C
:10096000224333401343C3600A7F036B013A23F0F1
:100970000F0313430363F0BC704700BF07C0FFFDC4
:10098000002301220277036043608360C360036138
:1009900043618361704700BFB0F1A04FF0B515D03F
:1009A000184B984212D0184B88689D68174BCC683A
:1009B00091E8440032432B400243097C1A4342EA47
:1009C000043343EA0123104A9360F0BD104BD1F881
:1009D00000E04D689F688C680C4ACB680E7C4EEA3C
:1009E00005013A4021430A4342EA0332B0F1A04FE5
:1009F00042EA062302D0034A9042E4D1044A9360BB
:100A0000F0BD00BF0001005000070050E010FCFFE7
:100A100000030050836819B943F0020383607047F4
:100A200043F0010383607047836843F000438360B1
:100A3000704700BF836823F0804383608368194355
:100A4000816070478068C00F704700BF836823F0E3
:100A500040538360836819B943F000538360704743
:100A600043F0805383607047042A30B41FD802EBF0
:100A700042025200056B1F24944025EA040401FA47
:100A800002F222430263092922D8013942694469EA
:100A900001EB410138228A4024EA020242614269A4
:100AA000033103FA01F11143416130BC7047092A57
:100AB0001ED8053A02EB42025200456B1F249440B7
:100AC00025EA040401FA02F2224309294263DCD92F
:100AD0000A398269846901EB410107228A4024EACC
:100AE0000202826182698B401343836130BC70478C
:100AF0000E2A0DD80A3A02EB42025200856B1F24DF
:100B0000944025EA040401FA02F222438263BAE720
:100B10000F3A02EB42025200C56B1F24944025EAB3
:100B2000040401FA02F22243C263ACE7836843F093
:100B300004038360704700BF03680B4214BF0120A9
:100B400000207047F0B501218FB0314D4FF40030D7
:100B5000FFF74EFD04A800F071FD04A9284600F03F
:100B60005DFD00244FF4E1320C23089209940A94AD
:100B70000B940D940C93AB6843F04003AB60284694
:100B800008A900F0EDFC01214FF40030FFF722FD31
:100B900001260227042302A94FF0904002938DF80A
:100BA0000E408DF80C708DF80D6000F04FFA39464C
:100BB00007224FF0904000F0A5FA082302A94FF059
:100BC000904002938DF80C708DF80F4000F03EFAC3
:100BD000072203214FF0904000F094FA3246284655
:100BE0000C4900F043FD262301A88DF804308DF850
:100BF00006408DF807608DF8056000F08BFB064B12
:100C00004022314628465A6000F01EFD0FB0F0BD6C
:100C1000004400400501050000E100E0014608B580
:100C2000044800F01BFD4021024800F03BFD002875
:100C3000F9D008BD00440040F8B5394B394C1D8847
:100C400045F30B1637115420FFF7E8FFC7F30313E2
:100C500007F00F07E05C06F00F06FFF7DFFF05F077
:100C60000F05E05DFFF7DAFFA05DFFF7D7FF605DDE
:100C7000FFF7D4FF2C4B1D8845F30B16371153207B
:100C8000FFF7CCFFC7F3031307F00F07E05C06F094
:100C90000F06FFF7C3FF05F00F05E05DFFF7BEFF8E
:100CA000A05DFFF7BBFF605DFFF7B8FF1F4BB3F917
:100CB00000502E1137115820FFF7B0FFC7F3031370
:100CC00007F00F07E05C06F00F06FFF7A7FF05F03F
:100CD0000F05E05DFFF7A2FFA05DFFF79FFF605DDE
:100CE000FFF79CFF124B1D8845F30B16371152205E
:100CF000FFF794FFC7F3031307F00F07E05C06F05C
:100D00000F06FFF78BFF05F00F05E05DFFF786FF8D
:100D1000A05DFFF783FF605DBDE8F840FFF77EBF91
:100D2000CC04002040000020E00400202A340020F1
:100D30003E000020F8B5124D2C7804B1F8BD2021FA
:100D4000104800F0AFFC0028F8D00F4E0D4837785F
:100D500000F088FC0D4A3378D05512780133DBB2AD
:100D6000732A337005D0112BE8D1012334702B7016
:100D7000E4E7074A3470012314702B70F8BD00BFFC
:100D80002C340020004400402D340020103400207A
:100D9000500000202DE9F04FDFF824E19EF80020FC
:100DA000012A7FD1404B5D789F7893F804C0197871
:100DB00093F805B0187B93F806A093F8099093F880
:100DC0000D80303DC5EB4514303F05EB840407EB47
:100DD0008707ACF1300C6B290CEBC40C07EB8704D4
:100DE000DF7808BF31499D7B08BF0A70303F0CEBAC
:100DF0008404997A2E4A93F808C007EB870704EB1E
:100E00004707178030391A7CABF1300B01EB8101B9
:100E1000A0F1300401EB8106CBEB4B17A2F13001BE
:100E2000D879DA7ADB7BAAF1300AACF1300C0BEB23
:100E3000870B0AEB8A0A0AEB8A0A0CEBCB0B303BD6
:100E400030380BEB8A0703EB830C00EB8000194B67
:100E5000A9F13009A8F1300807EB40001880303DB7
:100E6000C9EB4910C8EB4813303A08EB830305EB94
:100E7000850509EB800004EBC00002EB820A05EB5C
:100E8000850501EBC30202EB850300EB86010A4CEA
:100E90000A4801EB4A0203EB4C0300212280038045
:100EA0008EF80010BDE8F08F1034002050000020B4
:100EB0003C000020C80400203A0000203E00002032
:100EC0002C3400202DE9F04101218EB0314C324FFD
:100ED0004FF48020FFF78CFB04A800F0AFFB04A9BF
:100EE000204600F09BFB00264FF4E1320C230892D1
:100EF00009960A960B960D960C93A36843F040034F
:100F0000A360204608A900F02BFB01214FF48010BC
:100F1000FFF760FB01254FF480734FF0020838465D
:100F200002A902938DF80E608DF80C808DF80D509B
:100F300000F08CF838460722082100F0E3F84FF45F
:100F4000007302A9384602938DF80F608DF80C806B
:100F500000F07CF838460722092100F0D3F82A4631
:100F600020460E4900F082FB272301A88DF80430AB
:100F70008DF807508DF805508DF8065000F0CAF92D
:100F8000074B8022294620465A6000F05DFB0EB0D8
:100F9000BDE8F08100480040000C00480501050054
:100FA00000E100E0F8B50E4C257805B1F8BD202130
:100FB0000C4800F077FB0028F8D00B4E0948377832
:100FC00000F050FB3378094A0133DBB2042BD055D3
:100FD00001D03370F8BD012335702370E6E700BF00
:100FE000F104002000480040F004002024340020D8
:100FF0000A4B1A78012A10D170B4094A094D1678A3
:1010000090785178D278084C02EB0022002001EB56
:10101000062118702980228070BC7047F1040020DE
:1010200024340020E00400202A340020704700BF50
:10103000FEE700BFFEE700BFFEE700BFFEE700BF20
:10104000704700BF704700BF704700BF00222DE906
:10105000F0471346D1F800E001274FF0030C04E0FD
:101060000133102B02F1020225D007FA03F434EA0F
:101070000E05F5D10E79751E012D0CFA02F51CD95D
:10108000ED43046891F8078025400560056806FA7D
:1010900002F42C430460C4680CFA02F524EA050447
:1010A000C460C56808FA02F401332C43102BC460F5
:1010B00002F10202D9D1BDE8F087D0F808A091F87A
:1010C000058091F806900CFA02F5ED430AEA050A4C
:1010D000C0F808A0D0F808A008FA02F848EA0A0800
:1010E000C0F80880B0F804801FFA88F828EA0404E1
:1010F0008480B0F8048009FA03F444EA0804A4B236
:101100008480BEE7CB0800EB830001F0070110B438
:101110008900046A0F238B4024EA03030362036AF5
:101120005DF8044B8A4042EA03010162704700BF48
:1011300008B500F0D7F8FFF77FFDFCE738B51A4D8A
:101140002DED088BDFED19BA9FED19BADFED19AA65
:101150009FED19AADFED199A9FED199A002407EE69
:10116000904AB8EEE78A013478EE2B7A87EE8B0A44
:1011700020EE400A00F09CFA38EE6A8AF0EE408ACF
:1011800088EE0A0A20EE400A00F092FA20EE290AC0
:1011900040F6B833A8EE890A9C42A5EC010ADED1DC
:1011A000BDEC088B38BD00BF3005002000209946FB
:1011B00000105E459AB90D440000EF4433F3D74365
:1011C000F45C285B202383F31188704710B4074C2C
:1011D000074B0848002284F8232007211A605DF895
:1011E000044B58609A601960704700BF00ED00E042
:1011F00010E000E080FC0A0010B5154A154913887C
:10120000097801339BB2012913800ED00024124BC0
:10121000148020461C6000F073F9104B1C80FFF70F
:10122000E7FEBDE81040FFF7B5BD092B07D90B4815
:101230000B4C038821700133002103801180FEF7DD
:10124000A3FFFFF7D5FEBDE81040FFF7A3BD00BF29
:101250002E34002050000020C4040020CC040020C4
:10126000CA04002030B5012183B04FF40030FFF7ED
:10127000B1F90124002569464FF0904000948DF8A3
:1012800004508DF80750FFF7E1FE21464FF400109F
:10129000FFF7A0F94FF680536946104800938DF888
:1012A00004408DF805408DF806508DF80750FFF783
:1012B000CDFE21464FF40020FFF78CF90423694648
:1012C00007488DF804408DF805408DF806508DF8DC
:1012D00007500093FFF7BAFE03B030BD001000487E
:1012E0000008004808B5FFF7BDFFFFF76FFFFFF7E5
:1012F00069FFFFF7E7FDFFF725FCFFF7F9F9FFF7B7
:101300001DFFFFF75FFAFFF781F90020BDE80840F5
:1013100000F0F6B8C3785BB9037817485A09203251
:1013200003F01F03012101FA03F340F82230704754
:10133000F0B4124B8278D968467804780E4DC943D0
:10134000C1F302210F23C1F10407CB40BE4013407B
:10135000334304F1604202F561421B01DBB282F8C3
:1013600000330378012203F01F015B098A4045F82E
:101370002320F0BC704700BF00E100E000ED00E07A
:10138000264A038890429BB238D002F50062904210
:1013900034D0B0F1804F31D0A2F5983290422DD0A8
:1013A00002F58062904229D01D4A90422DD002F56C
:1013B0008062904229D00A8970B423F44073174C9C
:1013C0004E680D889BB21343A0420380C662058518
:1013D0000ED0144B98420BD003F54063984207D0CF
:1013E00003F58063984203D003F58063984201D1EE
:1013F0008B7A03860123436170BC70474A8823F0CF
:1014000070031343064A9042D1D103800B884A6887
:10141000C262038501234361704700BF002C014075
:101420000010004000340140038829B923F0010373
:101430001B041B0C038070479BB243F00103038025
:10144000704700BFF0B5046A8D898B880F68184E0D
:1014500024F010040462046AD0F804E0826922F0E7
:10146000807224F020042B4322F4E642B04244EA86
:10147000031342EA072209D00E4CA04206D0896825
:10148000C0F804E0826181630362F0BDCD890E8AF9
:101490004C8A23F0800343EA0513CD882EF4406E76
:1014A00023F04003344343EA05134EEA840EE6E793
:1014B000002C014000340140002103E00A4B5B583E
:1014C0004350043109480A4B42189A42F6D3094A5C
:1014D00002E0002342F8043B074B9A42F9D3FFF79E
:1014E000A7F9FFF725FE7047B81D0008000000208F
:1014F0008C0400208C04002030340020FEE7000023
:10150000134B984210B510DB124B9842044611DD84
:10151000114A04211C469182FFF738F90F4890FBCD
:10152000F4F0BDE81040FFF73DB90A4C0A4B002229
:101530009A82F1E7002808DB074B4FF004029A82F9
:10154000EAD1BDE81040FFF727B94442EEE700BFFB
:10155000E05EF8FF20A107000008004800A24A044E
:10156000F0B50668CB688F68D1F804C0044626F051
:10157000010608690D4649692660666826F4405EE2
:101580004EEA0707676022684CEA030622F4B0536C
:1015900023F00C0346EA000213432360A36823F4FC
:1015A00040730B4391B0A36001A8FEF7AFFE174B49
:1015B0009C4224D0164B9C4223D0164B9C4222D0F6
:1015C000154B9C420CBF0E9A0F9A23682968180489
:1015D00048BF5200B2FBF1F301FB1322B2EB510FF3
:1015E000226828BF0133120405D54FF6F0721A4065
:1015F000C3F3420313439BB2A38111B0F0BD0B9A16
:10160000E3E70C9AE1E70D9ADFE700BF00380140FD
:101610000044004000480040004C004030B44A689C
:101620000D688C684368C9682A4322430A4323F43F
:1016300070631343436030BC704700BF00230360F6
:1016400043608360C3607047036819B923F00103E6
:101650000360704743F0010303607047C1F3080162
:1016600001857047808CC0F30800704710B4CCB27D
:10167000C1F307210123022903FA04F310D003293F
:1016800008BF083032B902685DF8044B22EA030350
:101690000360704702685DF8044B134303607047B2
:1016A0000430EFE7C3690B4214BF012000207047EC
:1016B000D0B52DED028B394C8AB0F0EE408A00F0A7
:1016C00079F894F900300133B0EE408A3ED0B0EEA4
:1016D000680A00F049F9002838D0DFED317AF4EEDD
:1016E000E78AF1EE10FA37DCDFED2E7AF4EEE78AC6
:1016F000F1EE10FA2AD504232B4A009318EE900A33
:1017000000230893019200F09DFA94F9003000261E
:101710000027022BCDE90401CDE90201CDE90667DE
:1017200037D0684600F01EF9002832D0089B1BB164
:1017300000F02CFB089B0360DDE9060100F0D6FAFF
:1017400000EE100A0AB0BDEC028BD0BDB0EE480A24
:101750000AB0BDEC028BD0BD0323134A009318EEF0
:10176000900A00230893019200F06CFA94F900307B
:10177000CDE90401CDE902012BB90C4B4FF06042D9
:10178000CDE90623CDE70A490020022BCDE9060169
:10179000C7D100F0FBFA22230360C7E788040020CA
:1017A0008071B142B5F1CFC2981D0008FFFFEF472D
:1017B0000000F07F10EE103A23F00042B2F1FF4F2C
:1017C00056D84FEAD37156D05448834273DC002B6D
:1017D00069DB534B9A4255D9524B9A427DD85248B5
:1017E000524A8B00184490ED007A1A4470EE474A32
:1017F000C1F1010392ED007A5B1A34EEC70A60EE84
:10180000007A9FED4B4A9FED4B5ADFED4B5A9FED0F
:101810004B6ADFED4B6AA7EE845AE7EE855AA7EED6
:10182000A56AE7EE866AB0EE406AA7EEE66AF0EED9
:10183000006A002B44D020EE060A76EEC67A13F139
:101840007D0F80EE276AF7EE006A37EE467A37EEB4
:10185000647A36EEC70A5ADA10EE102A643302EBC5
:10186000C353DFED387A00EE103A20EE270A7047B6
:1018700030EE000A7047DFED347A002918BFB0EE71
:10188000670A7047B2F1465F13D2DFED307A70EE2F
:10189000277AF7EE006AF4EEE67AF1EE10FA08DD48
:1018A00030EE260A70472A4B9A4292D99FED260ABB
:1018B00070470023A3E79FED250A20EE000A70473A
:1018C00060EE067A76EE666AB7EE006A87EEA67A72
:1018D00037EE400A36EE400A70471E4B9FED1E6AF7
:1018E000DFED1E6A9FED1E7A03EB8103D3ED007AD4
:1018F000E0EE067AF0EE404AFDEEE77A17EE903A17
:10190000F8EEE77AE7EEE64A27EE877A75E710EE1B
:10191000102A02EBC35300EE103A70471772B1421F
:101920001872B13E9115853FB01D0008A81D000832
:101930004CBB31330EEADDB555B38A38610B36BB8B
:10194000ABAA2A3E0000800D00000000CAF24971D7
:10195000B5F1CF42A01D00083BAAB83F8071313FCE
:10196000D1F717370020704710EE103A23F00040EF
:10197000B0F1FF4FACBF00200120704781F0004163
:1019800002E000BF83F0004330B54FEA41044FEA64
:10199000430594EA050F08BF90EA020F1FBF54EAFF
:1019A000000C55EA020C7FEA645C7FEA655C00F09B
:1019B000E2804FEA5454D4EB5555B8BF6D420CDD6C
:1019C0002C4480EA020281EA030382EA000083EAEF
:1019D000010180EA020281EA0303362D88BF30BD8F
:1019E00011F0004F4FEA01314FF4801C4CEA1131E5
:1019F00002D0404261EB410113F0004F4FEA033344
:101A00004CEA133302D0524263EB430394EA050FCE
:101A100000F0A780A4F10104D5F1200E0DDB02FA3D
:101A20000EFC22FA05F2801841F1000103FA0EF2D1
:101A3000801843FA05F359410EE0A5F120050EF197
:101A4000200E012A03FA0EFC28BF4CF0020C43FAC8
:101A500005F3C01851EBE37101F0004507D54FF0D5
:101A6000000EDCF1000C7EEB00006EEB0101B1F525
:101A7000801F1BD3B1F5001F0CD349085FEA30006B
:101A80004FEA3C0C04F101044FEA445212F5800F76
:101A900080F09A80BCF1004F08BF5FEA500C50F113
:101AA000000041EB045141EA050130BD5FEA4C0CF6
:101AB000404141EB010111F4801FA4F10104E9D17F
:101AC00091F0000F04BF01460020B1FA81F308BF76
:101AD0002033A3F10B03B3F120020CDA0C3208DD42
:101AE00002F1140CC2F10C0201FA0CF021FA02F11D
:101AF0000CE002F11402D8BFC2F1200C01FA02F18D
:101B000020FA0CFCDCBF41EA0C019040E41AA2BFB1
:101B100001EB0451294330BD6FEA04041F3C1CDA79
:101B20000C340EDC04F11404C4F1200220FA04F099
:101B300001FA02F340EA030021FA04F345EA030143
:101B400030BDC4F10C04C4F1200220FA02F001FA05
:101B500004F340EA0300294630BD21FA04F0294687
:101B600030BD94F0000F83F4801306BF81F4801120
:101B70000134013D4EE77FEA645C18BF7FEA655C93
:101B800029D094EA050F08BF90EA020F05D054EA65
:101B9000000C04BF1946104630BD91EA030F1EBF6A
:101BA0000021002030BD5FEA545C05D1400049416E
:101BB00028BF41F0004130BD14F580043CBF01F561
:101BC000801130BD01F0004545F0FE4141F4700147
:101BD0004FF0000030BD7FEA645C1ABF1946104622
:101BE0007FEA655C1CBF0B46024650EA013406BF23
:101BF00052EA033591EA030F41F4002130BD00BFE2
:101C000090F0000F04BF0021704730B54FF480649E
:101C100004F132044FF000054FF0000150E700BF1F
:101C200090F0000F04BF0021704730B54FF480647E
:101C300004F1320410F0004548BF40424FF000016B
:101C40003EE700BF42004FEAE2014FEA31014FEAAE
:101C500002701FBF12F07F4393F07F4F81F06051FD
:101C6000704792F0000F14BF93F07F4F704730B56C
:101C70004FF4607401F0004521F0004120E700BFFF
:101C800050EA010208BF704730B54FF000050AE086
:101C900050EA010208BF704730B511F0004502D587
:101CA000404261EB41014FF4806404F132045FEA89
:101CB000915C3FF4DCAE4FF003025FEADC0C18BF2E
:101CC00003325FEADC0C18BF033202EBDC02C2F124
:101CD000200300FA03FC20FA02F001FA03FE40EAB6
:101CE0000E0021FA02F11444C1E600BF4FEA41029E
:101CF000B2F1E04324BFB3F5001CDCF1FE5C0DD96A
:101D000001F0004C4FEAC0024CEA5070B2F1004FB3
:101D100040EB830008BF20F00100704711F0804FB6
:101D200021D113F13872BCBF01F00040704741F47B
:101D300080114FEA5252C2F11802C2F1200C10FA7F
:101D40000CF320FA02F018BF40F001004FEAC12363
:101D50004FEAD32303FA0CFC40EA0C0023FA02F307
:101D60004FEA4303CCE77FEA625307D150EA0133DD
:101D70001EBF4FF0FE4040F44000704701F00040AD
:101D800040F0FE4040F40000704700BF014B18686F
:101D9000704700BF580000206578706600000000A2
:101DA0000000003F000000BFD1F71737D1F717B789
:081DB0008071313F807131BFE9
:101DB80000000000010203040102030406070809E9
:101DC8000000010002000400060008000A000C00E0
:101DD8001000200040008000000100003200640074
:101DE80008005E0350C300000101AF000F272C015B
:101DF8003031323334353637383941424344454639
:101E0800010000000A00000060000020000000003F
:101E180000000000000000000100000000000000B9
:101E280000000000000000000000000000000000AA
:101E3800000000000000000000000000000000009A
:101E4800000000000000000000000000000000008A
:101E5800000000000000000000000000000000007A
:0C22380000000000000000000100000099
:0400000508000000EF
:00000001FF
