:020000040800F2
:1000000000A00020710C00085505000859050008E3
:100010005D05000861050008650500080000000096
:10002000000000000000000000000000690500085A
:100030006D0500080000000071050008AD0600080D
:10004000B50C0008B50C0008B50C0008B50C00088C
:10005000B50C0008B50C000815080008F1070008E9
:10006000B50C0008B50C0008CD070008B50C000859
:10007000B50C0008B50C0008B50C0008B50C00085C
:10008000B50C0008B50C0008B50C0008B50C00084C
:10009000B50C0008B50C0008B50C0008B50C00083C
:1000A000B50C0008B50C0008B50C0008B50C00082C
:1000B000B50C0008B50C0008B50C0008B50C00081C
:1000C000B50C0008B50C0008B50C0008B50C00080C
:1000D000B50C0008B50C0008B50C0008B50C0008FC
:1000E000B50C0008B50C0008B50C0008B50C0008EC
:1000F000B50C0008B50C0008B50C0008B50C0008DC
:10010000000000000000000000000000B50C000826
:10011000B50C0008B50C0008B50C0008B50C0008BB
:10012000B50C0008B50C0008B50C0008B50C0008AB
:10013000B50C0008B50C000800000000000000002D
:10014000B50C0008B50C0008B50C00080000000054
:10015000000000000000000000000000000000009F
:100160000000000000000000B50C0008B50C0008FD
:10017000B50C0008000000000000000000000000B6
:1001800000000000B50C000829B9054A536923EAAC
:10019000000050617047024B5A6910435861704724
:1001A0000010024029B9054A936923EA00009061D2
:1001B0007047024B9A6910439861704700100240E3
:1001C00029B9054AD36923EA0000D0617047024B80
:1001D000DA691043D86170470010024030B5012140
:1001E0008BB00846FFF7ECFF01214FF40030FFF71A
:1001F000CBFF1E4A002512880392472302A94FF025
:100200008040ADF80830ADF81050ADF80A5000F05D
:100210004FFC174BADF820501B8807930124602337
:1002200005A94FF080400593ADF8184000F0E6FCBA
:10023000022369464FF0904000938DF804308DF80A
:1002400007508DF8054000F095F9224621464FF001
:10025000904000F0EBF94FF080404FF4D04321463E
:10026000C36100F079FC0BB030BD00BF020000207C
:10027000000000202DE9F04101218AB00420FFF7A1
:100280009FFF01214FF48010FFF77EFF1C4B1D4D97
:100290001B88039300242846472302A9ADF80830A1
:1002A000ADF80A40ADF8104000F002FC164B174FB5
:1002B0001B88079301262846602305A905934FF064
:1002C0000208ADF82040ADF8186000F053FC4FF480
:1002D00080533846694600938DF807408DF80560D5
:1002E0008DF8048000F046F9424638460C2100F0B3
:1002F0009DF93146284600F02FFC0AB0BDE8F08198
:10030000020000200008004000000020000C00480F
:100310002DE9F04101218AB00220FFF751FF0121B0
:100320004FF48020FFF730FF1C4B1D4D1B880393BB
:1003300000242846472302A9ADF80830ADF80A404A
:10034000ADF8104000F0B4FB164B174F1B88079315
:1003500001262846602305A905934FF00208ADF851
:100360002040ADF8186000F005FC102338466946BF
:1003700000938DF807408DF805608DF8048000F03B
:10038000F9F842463846042100F050F93146284633
:1003900000F0E2FB0AB0BDE8F08100BF02000020DF
:1003A000000400400000002000040048F0B50121D6
:1003B0008BB04FF40050FFF7F5FE01214FF4002001
:1003C000FFF7E2FE1B4B1C4D1B88039300242846BD
:1003D000472302A9ADF80830ADF80A40ADF8104047
:1003E00000F066FB154B164F1B8807930126284625
:1003F000602305A90593ADF82040ADF8186000F022
:10040000B9FB022338464FF4807269468DF80430F8
:1004100000928DF807408DF8056000F0ABF8384683
:100420000422082100F002F93146284600F094FB2E
:100430000BB0F0BD0200002000340140000000209D
:100440000008004810B43E4C3E4BD4F888003E4AA9
:100450003E4940F47000C4F88800186840F001007C
:100460001860586802405A601A6822F0847222F4B8
:1004700080321A601A6822F480221A605A6822F4C4
:10048000FE025A60DA6A22F00F02DA62186B83B059
:100490000022014019639A60009201921A6842F4A6
:1004A00080321A601A4603E0009BB3F5A06F09D0B2
:1004B000136803F400330193009B01330093019B05
:1004C000002BF1D01F4B1B6813F4003318BF01231E
:1004D0000193019B012B07D0194B4FF000629A60EA
:1004E00003B05DF8044B7047194A164B1221116096
:1004F0005A685A605A685A605A6842F480625A6070
:100500005A6822F47C125A605A6842F4E8125A601F
:100510001A6842F080721A601A461168094B890104
:10052000FBD55A6822F003025A605A6842F0020270
:100530005A601A46536803F00C03082BFAD1CBE734
:1005400000ED00E0001002400CC07FF8CCFC00FF82
:1005500000200240704700BFFEE700BFFEE700BF7B
:10056000FEE700BFFEE700BF704700BF704700BF57
:10057000704700BF00222DE9F0471346D1F800E094
:1005800001274FF0030C04E00133102B02F10202AB
:1005900025D007FA03F434EA0E05F5D10E79751E5D
:1005A000012D0CFA02F51CD9ED43046891F807807F
:1005B00025400560056806FA02F42C430460C4680F
:1005C0000CFA02F524EA0504C460C56808FA02F4CE
:1005D00001332C43102BC46002F10202D9D1BDE8D3
:1005E000F087D0F808A091F8058091F806900CFAF1
:1005F00002F5ED430AEA050AC0F808A0D0F808A001
:1006000008FA02F848EA0A08C0F80880B0F804803E
:100610001FFA88F828EA04048480B0F8048009FAF4
:1006200003F444EA0804A4B28480BEE7CB0800EBDC
:10063000830001F0070110B48900046A0F238B4086
:1006400024EA03030362036A5DF8044B8A4042EA2A
:1006500003010162704700BF08B5FFF7BFFD00202E
:1006600000F042FBFFF706FE002000F057FBFFF70B
:100670004FFE002000F09CFBFFF798FE002000F0EA
:10068000B3FB00F0D9F8BDE8084000F011B800BF96
:1006900008B5FFF7E1FF4FF4487000F05BFB012065
:1006A00000F06CFB012000F083FBFEE7704700BF09
:1006B000F0B5012191B00846FFF774FD10A9102391
:1006C00000240125022641F8303D3D488DF81440B4
:1006D0008DF816408DF815508DF81760FFF74AFF1A
:1006E00010A9384841F8286D8DF81C408DF81E403F
:1006F0008DF81D508DF81F60FFF73CFF10A93248A0
:1007000041F8205D8DF824408DF826408DF8255065
:100710008DF82760FFF72EFF0421052000F0CCFAAA
:10072000082704230AA80A938DF82E508DF82C4030
:100730008DF82D7000F0DEF82946284600F0BCFA4E
:100740000CA80C958DF836508DF834408DF8357026
:1007500000F0D0F82146304600F0AEFA0EA88DF831
:100760003D700E948DF83E508DF83C4000F0C2F87C
:100770000A2301A88DF804308DF805408DF8064055
:100780008DF8075000F05EF907230DEB07008DF898
:1007900008308DF809508DF80A408DF80B5000F0A4
:1007A00051F9062303A88DF80D608DF80E408DF8E1
:1007B0000F508DF80C3000F045F911B0F0BD00BFBE
:1007C00000140048000400480008004808B5042050
:1007D00000F018F900B908BD044A1368013313602A
:1007E0000420BDE8084000F021B900BF1C00002033
:1007F00008B5012000F006F900B908BD044A1368E5
:10080000012003441360BDE8084000F00FB900BFA9
:100810001800002008B5002000F0F4F800B908BD69
:10082000044A1368013313600020BDE8084000F05B
:10083000FDB800BF1400002030B5012189B04FF48D
:100840008020FFF7A1FC01214FF40020FFF79CFC62
:1008500001214FF48010FFF797FC01214FF4800035
:10086000FFF792FC012500244FF4026369461D48FE
:1008700000938DF804508DF805508DF806408DF8E2
:100880000740FFF777FE4FF4017302A91648029361
:100890008DF80C508DF80D508DF80E408DF80F40EE
:1008A000FFF768FE4FF4005304A9104804938DF835
:1008B00014508DF815508DF816408DF81740FFF73D
:1008C00059FE4FF4117306A909488DF81C508DF894
:1008D0001D508DF81E408DF81F400693FFF74AFE0D
:1008E00009B030BD0004004800080048000C004872
:1008F000001400488379F0B4002B54D003680279C7
:100900003D4E3E4D23F01F0101F1804101F5823142
:1009100003F01F040F68012303FA04F427EA040418
:100920000C60016821F01F0701F01F01BC5903FA98
:1009300001F124EA0101B9510168314C02F1804210
:1009400021F01F0702F5823201F01F01BE5803FAA1
:1009500001F13143B9500268417922F01F0702F0DA
:100960001F027E5903FA02F226EA02027A51026855
:1009700022F01F0702F01F023E5903FA02F226EA94
:10098000020210293A5121D0006801F1804220F082
:100990001F0402F5823200F01F00A15883400B4370
:1009A000A350F0BC70470379026803F1804322F042
:1009B0001F0403F5823302F01F02E158012000FA00
:1009C00002F221EA0202E250F0BC7047026822F013
:1009D0001F0602F01F02715903FA02F20A43725114
:1009E000026822F01F0002F01F02015993400B43DE
:1009F0000351F0BC704700BF0404014008040140EB
:100A00000C04014020F01F0303F1804303F58233FF
:100A100000F01F00012219685B69824012EA03009E
:100A200003D0114214BF01200020704700F01F01C5
:100A3000012320F01F00024A8B408350704700BF03
:100A400014040140C3785BB9037817485A0920326F
:100A500003F01F03012101FA03F340F8223070472D
:100A6000F0B4124B8278D968467804780E4DC943A9
:100A7000C1F302210F23C1F10407CB40BE40134054
:100A8000334304F1604202F561421B01DBB282F89C
:100A900000330378012203F01F015B098A4045F807
:100AA0002320F0BC704700BF00E100E000ED00E053
:100AB000264A038890429BB238D002F500629042E9
:100AC00034D0B0F1804F31D0A2F5983290422DD081
:100AD00002F58062904229D01D4A90422DD002F545
:100AE0008062904229D00A8970B423F44073174C75
:100AF0004E680D889BB21343A0420380C6620585F1
:100B00000ED0144B98420BD003F54063984207D0A7
:100B100003F58063984203D003F58063984201D1C6
:100B20008B7A03860123436170BC70474A8823F0A7
:100B300070031343064A9042D1D103800B884A6860
:100B4000C262038501234361704700BF002C01404E
:100B50000010004000340140038829B923F001034C
:100B60001B041B0C038070479BB243F001030380FE
:100B7000704700BFF0B5046A8B89B1F804E00F68D4
:100B80001C4E24F001040462046A4568826924F062
:100B9000020422F48032234322F07302B0424EEA70
:100BA000030342EA070214D0134CA04211D004F50B
:100BB0004064A0420DD004F58064A04209D004F541
:100BC0008064A04205D08968456082614163036208
:100BD000F0BDCE89B1F810E0CF8823F0080333438D
:100BE00025F440744E8A23F004034EEA04053B4387
:100BF0003543E8E7002C014000340140F0B5046AB9
:100C00008D898B880F68184E24F010040462046AE2
:100C1000D0F804E0826922F0807224F020042B4393
:100C200022F4E642B04244EA031342EA072209D022
:100C30000E4CA04206D08968C0F804E0826181634E
:100C40000362F0BDCD890E8A4C8A23F0800343EA0B
:100C50000513CD882EF4406E23F04003344343EA5D
:100C600005134EEA840EE6E7002C014000340140F3
:100C7000002103E00A4B5B584350043109480A4BFA
:100C800042189A42F6D3094A02E0002342F8043B94
:100C9000074B9A42F9D3FFF7D5FBFFF7F9FC7047F2
:100CA0001C0E0008000000200400002004000020AA
:100CB00020000020FEE7000001F0FC0303F1804368
:100CC00003F5803301F0030110B489009C680F2202
:100CD0008A4024EA02029A609A685DF8044B8840D0
:100CE00010439860704700BF01280AD040B90A4AF3
:100CF000938A5B0704D5938A9BB283F004039382A3
:100D00007047054A938A9BB2042BF9D0938A9BB211
:100D100043F00403938270470014004801280AD06E
:100D200040B90B4A938A9B0404D5938A9BB283F4FF
:100D3000005393827047064A938A9BB2B3F5005FD3
:100D4000F8D0938A9BB243F400539382704700BF5C
:100D5000000C0048074B93FBF0F00138064A00EB0B
:100D6000D0735B10D062536313889BB243F00103CE
:100D70001380704740420F000004004001280AD051
:100D800040B90A4A938A9B0604D5938A9BB283F0A2
:100D9000200393827047054A938A9BB2202BF9D097
:100DA000938A9BB243F0200393827047000400486B
:100DB00001280AD040B90B4A938A9B0504D5938A2F
:100DC0009BB283F4007393827047064A938A9BB266
:100DD000B3F5007FF8D0938A9BB243F400739382FB
:100DE000704700BF0014004801280AD040B90A4AE1
:100DF000938A5B0604D5938A9BB283F04003938267
:100E00007047054A938A9BB2402BF9D0938A9BB2D4
:0C0E100043F04003938270470014004838
:040E1C00320064003C
:0400000508000000EF
:00000001FF
