:020000040800F2
:1000000000A0002045180008550500085905000803
:100010005D05000861050008650500080000000096
:10002000000000000000000000000000690500085A
:100030006D0500080000000071050008A10B000814
:10004000891800088918000889180008891800080C
:10005000891800088918000835100008E90F000801
:1000600089180008891800089D0F000889180008E1
:1000700089180008891800088918000889180008DC
:1000800089180008891800088918000889180008CC
:10009000891800088918000889180008D10E00087E
:1000A00089180008891800088918000889180008AC
:1000B000891800088918000889180008891800089C
:1000C000891800088918000889180008891800088C
:1000D000891800088918000889180008891800087C
:1000E000190F0008891800088918000889180008E5
:1000F000891800088918000889180008891800085C
:100100000000000000000000000000008918000846
:10011000891800088918000889180008891800083B
:10012000891800088918000889180008891800082B
:10013000891800088918000800000000000000006D
:1001400089180008891800088918000800000000B4
:10015000000000000000000000000000000000009F
:10016000000000000000000089180008891800083D
:1001700089180008000000000000000000000000D6
:10018000000000008918000829B9054A536923EACC
:10019000000050617047024B5A6910435861704724
:1001A0000010024029B9054A936923EA00009061D2
:1001B0007047024B9A6910439861704700100240E3
:1001C00029B9054AD36923EA0000D0617047024B80
:1001D000DA691043D86170470010024030B5012140
:1001E0008BB00846FFF7ECFF01214FF40030FFF71A
:1001F000CBFF1E4A002512880392472302A94FF025
:100200008040ADF80830ADF81050ADF80A5001F05C
:1002100039FA174BADF820501B880793012460234F
:1002200005A94FF080400593ADF8184001F0D0FAD1
:10023000022369464FF0904000938DF804308DF80A
:1002400007508DF8054000F095F9224621464FF001
:10025000904000F0EBF94FF080404FF4D04321463E
:10026000C36101F063FA0BB030BD00BF060000208F
:10027000040000202DE9F04101218AB00420FFF79D
:100280009FFF01214FF48010FFF77EFF1C4B1D4D97
:100290001B88039300242846472302A9ADF80830A1
:1002A000ADF80A40ADF8104001F0ECF9164B174FCD
:1002B0001B88079301262846602305A905934FF064
:1002C0000208ADF82040ADF8186001F03DFA4FF497
:1002D00080533846694600938DF807408DF80560D5
:1002E0008DF8048000F046F9424638460C2100F0B3
:1002F0009DF93146284601F019FA0AB0BDE8F081AF
:10030000060000200008004004000020000C004807
:100310002DE9F04101218AB00220FFF751FF0121B0
:100320004FF48020FFF730FF1C4B1D4D1B880393BB
:1003300000242846472302A9ADF80830ADF80A404A
:10034000ADF8104001F09EF9164B174F1B8807932C
:1003500001262846602305A905934FF00208ADF851
:100360002040ADF8186001F0EFF9102338466946D7
:1003700000938DF807408DF805608DF8048000F03B
:10038000F9F842463846042100F050F93146284633
:1003900001F0CCF90AB0BDE8F08100BF06000020F2
:1003A000000400400400002000040048F0B50121D2
:1003B0008BB04FF40050FFF7F5FE01214FF4002001
:1003C000FFF7E2FE1B4B1C4D1B88039300242846BD
:1003D000472302A9ADF80830ADF80A40ADF8104047
:1003E00001F050F9154B164F1B880793012628463C
:1003F000602305A90593ADF82040ADF8186001F021
:10040000A3F9022338464FF4807269468DF8043010
:1004100000928DF807408DF8056000F0ABF8384683
:100420000422082100F002F93146284601F07EF945
:100430000BB0F0BD06000020003401400400002095
:100440000008004810B43E4C3E4BD4F888003E4AA9
:100450003E4940F47000C4F88800186840F001007C
:100460001860586802405A601A6822F0847222F4B8
:1004700080321A601A6822F480221A605A6822F4C4
:10048000FE025A60DA6A22F00F02DA62186B83B059
:100490000022014019639A60009201921A6842F4A6
:1004A00080321A601A4603E0009BB3F5A06F09D0B2
:1004B000136803F400330193009B01330093019B05
:1004C000002BF1D01F4B1B6813F4003318BF01231E
:1004D0000193019B012B07D0194B4FF000629A60EA
:1004E00003B05DF8044B7047194A164B1221116096
:1004F0005A685A605A685A605A6842F480625A6070
:100500005A6822F47C125A605A6842F4E8125A601F
:100510001A6842F080721A601A461168094B890104
:10052000FBD55A6822F003025A605A6842F0020270
:100530005A601A46536803F00C03082BFAD1CBE734
:1005400000ED00E0001002400CC07FF8CCFC00FF82
:1005500000200240704700BFFEE700BFFEE700BF7B
:10056000FEE700BFFEE700BF704700BF704700BF57
:10057000704700BF00222DE9F0471346D1F800E094
:1005800001274FF0030C04E00133102B02F10202AB
:1005900025D007FA03F434EA0E05F5D10E79751E5D
:1005A000012D0CFA02F51CD9ED43046891F807807F
:1005B00025400560056806FA02F42C430460C4680F
:1005C0000CFA02F524EA0504C460C56808FA02F4CE
:1005D00001332C43102BC46002F10202D9D1BDE8D3
:1005E000F087D0F808A091F8058091F806900CFAF1
:1005F00002F5ED430AEA050AC0F808A0D0F808A001
:1006000008FA02F848EA0A08C0F80880B0F804803E
:100610001FFA88F828EA04048480B0F8048009FAF4
:1006200003F444EA0804A4B28480BEE7CB0800EBDC
:10063000830001F0070110B48900046A0F238B4086
:1006400024EA03030362036A5DF8044B8A4042EA2A
:1006500003010162704700BF08B5FFF7BFFD00202E
:1006600001F056F9FFF706FE002001F09BF9FFF7B5
:100670004FFE002001F0E0F9FFF798FE002001F0A6
:10068000F7F900F0B5FEBDE8084000F08BBA00BFF6
:100690002DE9F04F89B0DFF85491FFF7DDFFCB462D
:1006A000CA46514B3B21186800F044F90490049B62
:1006B0000746186802F052F94FF00108804505DD41
:1006C00041E0BBF800309BB2002B7ED0B9F8063079
:1006D0009BB2012BF5D057F8040F00F00BF905463B
:1006E00000F0A2F90446143049C8627CA168029265
:1006F000A27CD4F800E00191CAF80800D4F804C044
:10070000CAF80C30217CCAF810600392002841D14D
:10071000EBB976BB291D0EC90120A9F806002846B1
:10072000C9F82010C9F82420C9F8283002F022F9AD
:10073000204602F01FF9049B186802F00FF908F137
:1007400001088045C2DD049802F014F9A9E71FFAF8
:100750008CF001F0F7F8029801F008F9012001F09F
:1007600021F901220023A9F80220C9F81830002E2F
:10077000D0D0BDF8040001F031F9039801F042F93E
:10078000012001F059F901220023A9F80420C9F839
:100790001C30BFE71FFA8EF00793CDF814C0069106
:1007A00001F08CF80699084601F098F8012001F054
:1007B000AFF8079BDDF814C001200021AAF8000063
:1007C000CAF81410002BA4D0C1E7084B5B889BB279
:1007D000002B7FF47BAF054B9B889BB2002B7FF4F3
:1007E00075AF024AD38071E7000000208C0800201A
:1007F000F0B504468DB00C2002F0B4F82178002644
:1008000005468DF800608DF810608DF82060684610
:1008100091B128290CD02C290ED09DF80030002B46
:1008200062D0034613F8012F002AFBD119705E70C5
:1008300014F8011F0029ECD1617804AE0134C9B16C
:100840002C2917D033460027197014F8011F5F7048
:1008500081B12C290ED09DF81030002B46D03346A4
:1008600013F8012F002AFBD1197014F8011F5F70D3
:100870000029EED1617808AF0134D9B1292919D006
:100880003B464FF0000E197014F8011F83F801E089
:1008900081B129290ED09DF820304BB33B4613F887
:1008A000012F002AFBD1197014F8011F83F801E011
:1008B0000029EED102F04EF851EC100B02F002F8D4
:1008C0002860304602F046F851EC100B01F0FAFFB8
:1008D0006860384602F03EF851EC100B01F0F2FF70
:1008E000A86028460DB0F0BD03469FE73346ABE74E
:1008F0003B46C8E770B50446102002F033F80546C1
:10090000A8B123781BB912E014F8013F7BB14C2B3E
:10091000FAD12E46002306F8043B601CFFF768FF5F
:10092000034607C886E80700184602F023F8284661
:1009300070BD00BF2DE9F04F0646A5B04FF48070A2
:10094000884602F00FF80746041F00F1FC0541201D
:1009500002F008F844F8040FAC42F8D131780029CD
:100960005BD041454FF001054FF0400414D09DF895
:100970001030002B4BD004AB13F8012F002AFBD111
:100980004FF0000219705A7016F8013F93B1AC4253
:100990001EDD19464145EAD157F8250004A902F0A9
:1009A000B7FC4FF000038DF8103016F8013F013509
:1009B000002BECD16B1E1A4A01A80C2100F0BCFCE4
:1009C00001A9386802F0A4FC384625B0BDE8F08FD4
:1009D0004FEA440A52462146124800F0F5FC3846D8
:1009E000E10002F08BFA5545074612DA0AF1010BD5
:1009F00000EB85092C46584601F0B4FF0134A245AE
:100A000049F8040BF7DC337854461946C2E704ABC7
:100A1000B6E7337854461946BCE70B46CBE700BF30
:100A2000CC5B0008885B0008F8B505462DED088B07
:100A3000202001F097FF0446002877D056496F68C0
:100A4000AE68E86891E80C00D21B07EE902A89682E
:100A50009B1BF8EEE78A07EE903A091AB8EEE78A90
:100A6000F5EEC08A07EE901AF1EE10FAB8EEE79AAA
:100A700060DDB5EEC08A0123F1EE10FA23746BDD60
:100A8000B5EEC09A0123F1EE10FA637476DD01230E
:100A9000A374424D286801F027FC064618EE900A20
:100AA0000F4601F021FC41EC1B0B18EE100A01F07F
:100AB0001BFCB0EE4B0AF0EE6B0A41EC110B41EC63
:100AC0001A0B00F0EFFF304653EC102B394601F0C3
:100AD0005FFC01F01FFF2060286801F005FCB0EE0C
:100AE0004B1AF0EE6B1AB0EE4A0AF0EE6A0A0646AE
:100AF0000F4600F0D7FF304653EC102B394601F07B
:100B000047FC01F007FFD5ED007A6060FCEEE77A64
:100B1000FCEEE88ABCEEC88ABCEEC99AC4ED027A43
:100B2000C4ED058A84ED068A84ED079ABDEC088B36
:100B30002046F8BDFDEEE88AB5EEC08A18EE902A90
:100B4000002AB8BF524208EE902A0023F1EE10FAB4
:100B5000F8EEE88A237493DCBDEEC88AB5EEC09A3D
:100B600018EE102A002AB8BF524208EE102A0023BD
:100B7000F1EE10FAB8EEC88A637488DCBDEEC99A4B
:100B8000002319EE102A002AB8BF524209EE102A9B
:100B9000A374B8EEC99A7CE7AC08002008000020D6
:100BA000704700BF2DE9F0470121AEB04FF400308F
:100BB000FFF7EAFA0121084600240125FFF7F2FABF
:100BC00002264FF480624FF400730AA91027BD4833
:100BD0000C920E930A97DFF8F4828DF82C408DF872
:100BE00034408DF83C408DF82E408DF836408DF81D
:100BF0003E408DF837408DF83F408DF82D508DF8F0
:100C000035508DF83D508DF82F60FFF7B3FC0CA9DF
:100C10004FF09040FFF7AEFC0EA94FF09040FFF769
:100C2000A9FC4FF480724FF40043404610A9129281
:100C30001493A54F8DF844408DF84C408DF85440E6
:100C40008DF846408DF84E408DF856408DF8455051
:100C50008DF84D508DF855508DF847608DF84F4008
:100C60008DF857401096FFF785FC404612A9FFF714
:100C700081FC14A94FF09040FFF77CFC4FF48052A8
:100C80004FF40063384616A918921A938DF85C4009
:100C90008DF864408DF86C408DF85E408DF86640AC
:100CA0008DF86E408DF85D508DF865508DF86D5063
:100CB0008DF85F608DF867408DF86F401695FFF7EF
:100CC00059FC384618A9FFF755FC38461AA9FFF712
:100CD00051FC0421052000F0D9FD20460A2100F036
:100CE000D5FD0921204600F0D1FD082709234FF04A
:100CF0000C084FF004094FF00A0A1CA820938DF845
:100D000075708DF87D808DF885808DF876508DF822
:100D10007E508DF886508DF874408DF87C408DF8AB
:100D20008440CDF87090CDF878A000F0BFFB1EA8ED
:100D300000F0BCFB20A800F0B9FB2946284600F0D3
:100D4000A5FD3946284600F0A1FD0F21204600F000
:100D50009DFD0F2322A8269324978DF88D708DF882
:100D600095808DF89D8022958DF88E508DF8965047
:100D70008DF89E508DF88C408DF894408DF89C40F5
:100D800000F094FB24A800F091FB26A800F08EFB55
:100D90002146304600F07AFD4146304600F076FDAF
:100DA0000B21304600F072FD0B2328A82C93CDF8C0
:100DB000A8808DF8A5708DF8AD708DF8B570289469
:100DC0008DF8A6508DF8AE508DF8B6508DF8A44031
:100DD0008DF8AC408DF8B44000F068FB2AA800F014
:100DE00065FB2CA800F062FB282703234FF01708AF
:100DF0000DEB09008DF80E308DF804A08DF805403C
:100E00008DF809508DF80D508DF806408DF80A4088
:100E10008DF807508DF80B508DF80F508DF8087035
:100E20008DF80C8000F0F8FB02A800F0F5FB03A899
:100E300000F0F2FB072304A88DF810308DF81A900B
:100E40008DF814808DF818708DF811408DF81550BC
:100E50008DF819508DF812508DF816508DF81350EA
:100E60008DF817508DF81B5000F0D6FB05A800F048
:100E7000D3FB06A800F0D0FB0622052307A88DF8B7
:100E80001C208DF826308DF81D408DF820708DF8CF
:100E900024708DF821508DF825508DF81E608DF846
:100EA00022608DF81F508DF823508DF8275000F0E8
:100EB000B3FB08A800F0B0FB09A800F0ADFB2EB012
:100EC000BDE8F0870014004800080048000400480E
:100ED00008B5092000F072FB80B9082000F06EFB15
:100EE00000B908BD002000F05DFD0A4A1368013317
:100EF00013600820BDE8084000F074BB002000F03B
:100F000007FD044A136809200133136000F06AFBEF
:100F1000E3E700BFF808002008B50A2000F04EFB08
:100F200070BB0F2000F04AFBF8B90C2000F046FB24
:100F300080B90B2000F042FB00B908BD002000F092
:100F40007BFD154A1368013313600B20BDE8084090
:100F500000F048BB002000F06FFD0F4A13680C2022
:100F60000133136000F03EFBE3E7002000F01AFDC0
:100F7000094A13680F200133136000F033FBD4E7F4
:100F8000002000F0C5FC044A13680A2001331360F6
:100F900000F028FBC5E700BFF808002008B50420D2
:100FA00000F00CFB68B10D4B0D481A6801321A6055
:100FB00019680268914205D80420BDE8084000F095
:100FC00011BB08BD0022074910460A801A6000F0D4
:100FD0009FFC0420BDE8084000F004BBA0080020EE
:100FE000940800208C08002008B5012000F0E6FAE3
:100FF00068B10D4B0D481A6801321A601968026811
:10100000914205D80120BDE8084000F0EBBA08BDC8
:101010000022074910460A801A6000F0C3FC012034
:10102000BDE8084000F0DEBAA408002098080020BF
:101030008E08002008B5002000F0C0FA68B10D4B02
:101040000D481A6801321A6019680268914205D881
:101050000020BDE8084000F0C5BA08BD00220749DD
:1010600010460A801A6000F0E7FC0020BDE8084046
:1010700000F0B8BAA80800209C08002090080020C2
:10108000092B70B51E4602F1FF35044613D8002D1A
:101090001BDD0B46411904F8013BA142FBD1104670
:1010A0000B4BA3FB0623DB0803EB8303A6EB4303F5
:1010B00030330B7070BD064BA3FB0623DB082A46BA
:1010C000FFF7DEFF21180130EAE701460120E7E7DC
:1010D000CDCCCCCCF8B5002B04460E4628DB092B32
:1010E0001D4602F1FF321ADC002A38DD1146204687
:1010F000013900F8016BFBD1013A22EAE272501C7F
:10110000002B044426DB901C164BA3FB0523DB08B5
:1011100003EB8303A5EB430330332370F8BD114B7E
:10112000A3FB0563DB08FFF7D5FF04440130EBE7C1
:101130005D42092D02F1FF3708D90A4BA3FB0523B5
:10114000DB083A465B42FFF7C5FFEEE7023A002AAA
:10115000CCDC00202D2304F8013B0230D4E7012031
:10116000D2E700BFCDCCCCCC2DE9F04182B0551EEA
:10117000089E5FEA161E044698461ED1002D24DD07
:101180000F46431904F8017BA342FBD1104606F039
:101190000F06092E0CD9B8F1000F04D157361E7076
:1011A00002B0BDE8F08137361E7002B0BDE8F081B4
:1011B00030361E7002B0BDE8F081CDF800E02A465E
:1011C000FFF7D2FF23180130E1E703460120DEE7F5
:1011D0002DE9F0410F4682B09E46064608B1002335
:1011E0000370002513785BB1BD4280F09780252BFA
:1011F0000ED001323370137801350136002BF3D154
:10120000AF4240F28B802846337002B0BDE8F081D7
:101210005178252935D0302938D00B46541CA3F1FC
:101220003002092A4FF0200136D8002202EB820258
:1012300003EB420214F8013FA3F13000303A0928D1
:1012400002F0FF02F2D910462844874238BF7A1BC9
:10125000A3F1580338BFD2B2202B66D8DFE803F0E1
:10126000596565656565656565656551476565656C
:10127000654765656565656565656538652E6565A0
:101280001F003170023201350136ABE79378941CB0
:10129000A3F13002092AC8D900200246D4E7DEF8BB
:1012A0000030009300230EF104083046FFF75CFF86
:1012B000C6460346621C1E44054493E7DEF8003030
:1012C00030460EF10408FFF7DBFEC6460346F1E7A1
:1012D000DEF800100B780EF1040E5BB3324602F814
:1012E000013B11F8013F901B002BF8D1E1E7DEF83C
:1012F000003030460EF10408FFF7ECFEC646034608
:10130000D8E7DEF80030337001230EF1040E1846E2
:10131000D0E7DEF8003000930123C4E70023681E05
:1013200006F8013C02B0BDE8F0814FF0FF3002B09A
:10133000BDE8F0811846BDE70CB400B583B004AB3E
:1013400053F8042B0193FFF743FF03B05DF804EB60
:1013500002B07047F0B51A4D96460F4606460FCDBF
:10136000A3B06C460FC40FCD0FC42B6823603A4660
:10137000734609A86421FFF72BFF632817DC9DF84B
:10138000240058B10F4B1A68916809AB00208E42B7
:1013900006D0D468A64203D04FF0FF3023B0F0BD92
:1013A00013F8014F0130002CF1D123B0F0BD9DF8AE
:1013B000003023B16B4613F8012F002AFBD1FEE762
:1013C000D05B0008100000200FB400B5074B83B0BD
:1013D00004AA1B6852F8041B98680192FFF7BAFF31
:1013E00003B05DF804EB04B0704700BF10000020AC
:1013F00030B5012189B04FF48020FEF7C5FE0121F0
:101400004FF40020FEF7C0FE01214FF48010FEF7DC
:10141000BBFE01214FF48000FEF7B6FE012500243B
:101420004FF4026369461D4800938DF804508DF80F
:1014300005508DF806408DF80740FFF79BF84FF4F4
:10144000017302A9164802938DF80C508DF80D50C7
:101450008DF80E408DF80F40FFF78CF84FF40053D5
:1014600004A9104804938DF814508DF815508DF888
:1014700016408DF81740FFF77DF84FF4117306A959
:1014800009488DF81C508DF81D508DF81E408DF8C0
:101490001F400693FFF76EF809B030BD0004004806
:1014A00000080048000C0048001400488379F0B49C
:1014B000002B54D0036802793D4E3E4D23F01F01AE
:1014C00001F1804101F5823103F01F040F6801230F
:1014D00003FA04F427EA04040C60016821F01F07F2
:1014E00001F01F01BC5903FA01F124EA0101B951CD
:1014F0000168314C02F1804221F01F0702F582326F
:1015000001F01F01BE5803FA01F13143B9500268DE
:10151000417922F01F0702F01F027E5903FA02F2FE
:1015200026EA02027A51026822F01F0702F01F0227
:101530003E5903FA02F226EA020210293A5121D05A
:10154000006801F1804220F01F0402F5823200F0B1
:101550001F00A15883400B43A350F0BC7047037990
:10156000026803F1804322F01F0403F5823302F086
:101570001F02E158012000FA02F221EA0202E250C1
:10158000F0BC7047026822F01F0602F01F0271597A
:1015900003FA02F20A437251026822F01F0002F0BD
:1015A0001F02015993400B430351F0BC704700BF29
:1015B00004040140080401400C04014020F01F0312
:1015C00003F1804303F5823300F01F000122196804
:1015D0005B69824012EA030003D0114214BF01206C
:1015E0000020704700F01F01012320F01F00024A75
:1015F0008B408350704700BF14040140044A0549E2
:101600001368002B08BF0B4618441060184670473B
:10161000BC08002004090020C3785BB90378174890
:101620005A09203203F01F03012101FA03F340F8A5
:1016300022307047F0B4124B8278D968467804782B
:101640000E4DC943C1F302210F23C1F10407CB4062
:10165000BE401340334304F1604202F561421B0176
:10166000DBB282F800330378012203F01F015B092B
:101670008A4045F82320F0BC704700BF00E100E03D
:1016800000ED00E0264A038890429BB238D002F574
:101690000062904234D0B0F1804F31D0A2F5983240
:1016A00090422DD002F58062904229D01D4A90428E
:1016B0002DD002F58062904229D00A8970B423F4BB
:1016C0004073174C4E680D889BB21343A0420380B1
:1016D000C66205850ED0144B98420BD003F54063CB
:1016E000984207D003F58063984203D003F58063E6
:1016F000984201D18B7A03860123436170BC704705
:101700004A8823F070031343064A9042D1D10380E4
:101710000B884A68C262038501234361704700BF9A
:10172000002C01400010004000340140038829B91A
:1017300023F001031B041B0C038070479BB243F092
:1017400001030380704700BFF0B5046A8B89B1F8CC
:1017500004E00F681C4E24F001040462046A45682A
:10176000826924F0020422F48032234322F07302BF
:10177000B0424EEA030342EA070214D0134CA042DF
:1017800011D004F54064A0420DD004F58064A0425D
:1017900009D004F58064A04205D089684560826163
:1017A00041630362F0BDCE89B1F810E0CF8823F029
:1017B0000803334325F440744E8A23F004034EEAB1
:1017C00004053B433543E8E7002C01400034014069
:1017D000F0B5046A8D898B880F68184E24F01004C8
:1017E0000462046AD0F804E0826922F0807224F076
:1017F00020042B4322F4E642B04244EA031342EAB7
:10180000072209D00E4CA04206D08968C0F804E037
:10181000826181630362F0BDCD890E8A4C8A23F018
:10182000800343EA0513CD882EF4406E23F0400375
:10183000344343EA05134EEA840EE6E7002C0140E8
:1018400000340140002103E00A4B5B58435004314F
:1018500009480A4B42189A42F6D3094A02E000238B
:1018600042F8043B074B9A42F9D3FEF7EBFDFEF733
:101870000FFF7047B05F0008000000208C080020B8
:101880008C08002004090020FEE7000001F0FC03A2
:1018900003F1804303F5803301F0030110B48900A4
:1018A0009C680F228A4024EA02029A609A685DF8D6
:1018B000044B884010439860704700BF064B93FB71
:1018C000F0F001384FF0804300EBD07252108121CC
:1018D000D8629A631980704740420F0001280AD0ED
:1018E00040B90A4A938A5B0704D5938A9BB283F076
:1018F000040393827047054A938A9BB2042BF9D064
:10190000938A9BB243F00403938270470008004817
:1019100001280AD040B90A4A938A5B0704D5938A02
:101920009BB283F0040393827047054A938A9BB26B
:10193000042BF9D0938A9BB243F00403938270473F
:1019400000140048074B93FBF0F00138064A00EB07
:10195000D0735B10D062536313889BB243F00103D2
:101960001380704740420F000008004001280AD051
:1019700040B90B4A938A1B0504D5938A9BB283F422
:10198000006393827047064A938A9BB2B3F5006F57
:10199000F8D0938A9BB243F400639382704700BFF0
:1019A0000004004801280AD040B90B4A938A9B04DE
:1019B00004D5938A9BB283F4005393827047064AFE
:1019C000938A9BB2B3F5005FF8D0938A9BB243F43D
:1019D00000539382704700BF000C0048074B93FBF5
:1019E000F0F00138064A00EBD0735B10D06253630D
:1019F00013889BB243F001031380704740420F00ED
:101A00000004004001280AD040B90A4A938A9B0684
:101A100004D5938A9BB283F0200393827047054AD2
:101A2000938A9BB2202BF9D0938A9BB243F0200378
:101A3000938270470004004801280AD040B90B4A3D
:101A4000938A9B0504D5938A9BB283F40073938297
:101A50007047064A938A9BB2B3F5007FF8D0938A09
:101A60009BB243F400739382704700BF0014004898
:101A700001280AD040B90A4A938A5B0604D5938AA2
:101A80009BB283F0400393827047054A938A9BB2CE
:101A9000402BF9D0938A9BB243F040039382704766
:101AA0000014004800F000B851EC110B43422DE93E
:101AB000F047034321F00048754F48EAD373BB4217
:101AC00055EC104B49D86342234325F0004A4AEABB
:101AD000D373BB42A94640D801F1404303F58013BC
:101AE00003438E4650D08E1706F0020654EA0A03CE
:101AF00046EAD57639D050EA08033ED0B84555D0ED
:101B0000BA453AD0C8EB0A084FEA2858B8F13C0F5A
:101B100040DC002970DB02460B462046294600F0D7
:101B200061FD41EC100B00F073FA00F0B5F851ECD8
:101B3000100B012E5AD0022E48D0002E42D03EA3C8
:101B4000D3E9002300F070FA3DA3D3E9002300F0AD
:101B50006BFA41EC100BBDE8F08722462B4600F0F3
:101B600065FA41EC100BBDE8F087022E16D0032E6B
:101B70000ED19FED350BBDE8F087B9F1000F11DBF9
:101B80009FED330BBDE8F087BDE8F04700F084B867
:101B9000BDE8F0872EA1D1E90001CAE79FED280B2F
:101BA000BDE8F0879FED2C0BBDE8F087C24529D03A
:101BB000022EF3D0032EDCD0012E2DD09FED280B6A
:101BC000BDE8F08741EC100BBDE8F0871AA3D3E91C
:101BD000002300F029FA02460B4619A1D1E90001C1
:101BE00000F022FA41EC100BBDE8F08701F1004152
:101BF00041EC100BBDE8F08718F13C0F8BDA0020A8
:101C0000002196E7022E13D0032E0DD0012E07D00F
:101C10009FED150BBDE8F0879FED150BBDE8F08734
:101C20009FED150BBDE8F0879FED150BBDE8F08724
:101C30009FED150BBDE8F087075C143326A6A13C89
:101C4000182D4454FB210940182D4454FB2109C090
:101C5000182D4454FB21F93F182D4454FB21F9BFA2
:101C60000000000000000000182D4454FB21E93F53
:101C70000000000000000080182D4454FB21E9BF43
:101C8000D221337F7CD902C0D221337F7CD902405C
:101C90000000F07F000000002DE9F84F55EC104BDC
:101CA000D14B25F000469E42AB4610DDCF4B9E4205
:101CB00000F3B28000F0AD80BBF1000F40F3FD8077
:101CC000ADA5D5E9004545EC104BBDE8F88FC84BF4
:101CD0009E4200F3C080A3F1DE739E4240F3A880D1
:101CE0004FF0FF3A22462B462046294600F050FB93
:101CF00002460B468046894600F04AFBA0A3D3E982
:101D0000002306460F4600F043FB9FA3D3E90023C0
:101D100000F08CF932463B4600F03AFB9CA3D3E935
:101D2000002300F083F932463B4600F031FB9AA3D2
:101D3000D3E9002300F07AF932463B4600F028FB55
:101D400097A3D3E9002300F071F932463B4600F037
:101D50001FFB95A3D3E9002300F068F942464B46E8
:101D600000F016FB92A3D3E9002380468946304653
:101D7000394600F00DFB90A3D3E9002300F054F99D
:101D800032463B4600F004FB8DA3D3E9002300F06C
:101D90004BF932463B4600F0FBFA8BA3D3E9002314
:101DA00000F042F932463B4600F0F2FA88A3D3E94C
:101DB000002300F039F932463B4600F0E9FABAF167
:101DC000FF3F02460B467CD04046494600F02EF9C4
:101DD00022462B4600F0DCFA864E874B4FEACA0AB1
:101DE00056449A44DAE9002300F01EF922462B46B5
:101DF00000F01AF902460B46D6E9000100F014F98A
:101E0000BBF1000F52DB04460D4645EC104BBDE81C
:101E1000F88F002C3FF450AF22462B46204629462F
:101E200000F004F904460D4645EC104BBDE8F88F70
:101E300069A3D3E9002310EE100A294600F0F6F852
:101E400000226E4B00F034FD00283FF449AF45EC12
:101E5000104BBDE8F88F00F0DBF8694B9E4255EC63
:101E6000104B3FDCA3F550239E4268DC10EE102A95
:101E700010EE100A2B46294600F0D8F800225F4BDE
:101E800000F0D2F8002206460F464FF0804320466D
:101E9000294600F0CBF802460B463046394600F0A2
:101EA000A1FB4FF0000A04460D461BE7044601F172
:101EB000004545EC104BBDE8F88F49A5D5E9004534
:101EC000B2E74046494600F0B1F822462B4600F002
:101ED0005FFA02460B462046294600F0A5F8044664
:101EE0000D46A1E7474B9E421DDC10EE100A002272
:101EF000454B294600F098F8002206460F46424B13
:101F00002046294600F044FA00223C4B00F08EF8AF
:101F100002460B463046394600F064FB4FF0020A99
:101F200004460D46DEE62B4610EE102A0020374907
:101F300000F058FB4FF0030A04460D46D2E610EEBF
:101F4000100A00222D4B294600F06EF800220646AA
:101F50000F462A4B2046294600F068F802460B46F9
:101F60003046394600F03EFB4FF0010A04460D466C
:101F7000B8E600BFAFF30080182D4454FB21F93FB1
:101F800011DA22E33AAD903FEB0D76244B7BA93F6B
:101F9000513DD0A0660DB13F6E204CC5CD45B73F39
:101FA000FF8300922449C23F0D5555555555D53FE5
:101FB0002F6C6A2C44B4A2BF9AFDDE522DDEAD3FD9
:101FC0006D9A74AFF2B0B33F711623FEC671BC3F79
:101FD000C4EB98999999C93F9C7500883CE4377E79
:101FE000182D4454FB21F9BFFFFF0F440000F07F80
:101FF000FFFFDB3F185C0008F85B00080000F03FC3
:10200000FFFFF23FFF7F03400000F83F0000F0BFFA
:1020100053EC102B23F0004343EC102B704700BF10
:1020200081F0004102E000BF83F0004330B54FEA89
:1020300041044FEA430594EA050F08BF90EA020FF6
:102040001FBF54EA000C55EA020C7FEA645C7FEA89
:10205000655C00F0E2804FEA5454D4EB5555B8BFAC
:102060006D420CDD2C4480EA020281EA030382EA1D
:10207000000083EA010180EA020281EA0303362DAF
:1020800088BF30BD11F0004F4FEA01314FF4801C82
:102090004CEA113102D0404261EB410113F0004F94
:1020A0004FEA03334CEA133302D0524263EB43034B
:1020B00094EA050F00F0A780A4F10104D5F1200EE9
:1020C0000DDB02FA0EFC22FA05F2801841F1000144
:1020D00003FA0EF2801843FA05F359410EE0A5F118
:1020E00020050EF1200E012A03FA0EFC28BF4CF049
:1020F000020C43FA05F3C01851EBE37101F00045FF
:1021000007D54FF0000EDCF1000C7EEB00006EEB0B
:102110000101B1F5801F1BD3B1F5001F0CD3490895
:102120005FEA30004FEA3C0C04F101044FEA4452EC
:1021300012F5800F80F09A80BCF1004F08BF5FEA73
:10214000500C50F1000041EB045141EA050130BD53
:102150005FEA4C0C404141EB010111F4801FA4F1F6
:102160000104E9D191F0000F04BF01460020B1FA4B
:1021700081F308BF2033A3F10B03B3F120020CDA83
:102180000C3208DD02F1140CC2F10C0201FA0CF061
:1021900021FA02F10CE002F11402D8BFC2F1200CC6
:1021A00001FA02F120FA0CFCDCBF41EA0C0190407C
:1021B000E41AA2BF01EB0451294330BD6FEA0404C5
:1021C0001F3C1CDA0C340EDC04F11404C4F12002B0
:1021D00020FA04F001FA02F340EA030021FA04F3C2
:1021E00045EA030130BDC4F10C04C4F1200220FA19
:1021F00002F001FA04F340EA0300294630BD21FA57
:1022000004F0294630BD94F0000F83F4801306BF1C
:1022100081F480110134013D4EE77FEA645C18BF10
:102220007FEA655C29D094EA050F08BF90EA020FA7
:1022300005D054EA000C04BF1946104630BD91EA9F
:10224000030F1EBF0021002030BD5FEA545C05D1A2
:102250004000494128BF41F0004130BD14F58004E1
:102260003CBF01F5801130BD01F0004545F0FE4155
:1022700041F470014FF0000030BD7FEA645C1ABF8A
:10228000194610467FEA655C1CBF0B46024650EAC1
:10229000013406BF52EA033591EA030F41F40021ED
:1022A00030BD00BF90F0000F04BF0021704730B573
:1022B0004FF4806404F132044FF000054FF0000148
:1022C00050E700BF90F0000F04BF0021704730B509
:1022D0004FF4806404F1320410F0004548BF4042DE
:1022E0004FF000013EE700BF42004FEAE2014FEA33
:1022F00031014FEA02701FBF12F07F4393F07F4F0E
:1023000081F06051704792F0000F14BF93F07F4F3F
:10231000704730B54FF4607401F0004521F0004182
:1023200020E700BF50EA010208BF704730B54FF008
:1023300000050AE050EA010208BF704730B511F00D
:10234000004502D5404261EB41014FF4806404F145
:1023500032045FEA915C3FF4DCAE4FF003025FEAC7
:10236000DC0C18BF03325FEADC0C18BF033202EB4F
:10237000DC02C2F1200300FA03FC20FA02F001FAA9
:1023800003FE40EA0E0021FA02F11444C1E600BF48
:1023900070B54FF0FF0C4CF4E06C1CEA11541DBFFB
:1023A0001CEA135594EA0C0F95EA0C0F00F0DEF8C6
:1023B0002C4481EA030621EA4C5123EA4C5350EAAB
:1023C000013518BF52EA033541F4801143F48013FC
:1023D00038D0A0FB02CE4FF00005E1FB02E506F08D
:1023E0000042E0FB03E54FF00006E1FB03569CF0E2
:1023F000000F18BF4EF0010EA4F1FF04B6F5007FE8
:1024000064F5407404D25FEA4E0E6D4146EB060659
:1024100042EAC62141EA55514FEAC52040EA5E50E2
:102420004FEACE2EB4F1FD0C88BFBCF5E06F1ED88C
:10243000BEF1004F08BF5FEA500E50F1000041EBC3
:10244000045170BD06F0004646EA010140EA020070
:1024500081EA0301B4EB5C04C2BFD4EB0C0541EA92
:10246000045170BD41F480114FF0000E013C00F3A7
:10247000AB8014F1360FDEBF002001F0004170BDCB
:10248000C4F10004203C35DA0C341BDC04F11404E4
:10249000C4F1200500FA05F320FA04F001FA05F270
:1024A00040EA020001F0004221F0004110EBD3703D
:1024B00021FA04F642EB06015EEA430E08BF20EA69
:1024C000D37070BDC4F10C04C4F1200500FA04F30C
:1024D00020FA05F001FA04F240EA020001F000419E
:1024E00010EBD37041F100015EEA430E08BF20EA11
:1024F000D37070BDC4F1200500FA05F24EEA020E59
:1025000020FA04F301FA05F243EA020321FA04F087
:1025100001F0004121FA04F220EA020000EBD3703E
:102520005EEA430E08BF20EAD37070BD94F0000F3E
:102530000FD101F00046400041EB010111F4801F72
:1025400008BF013CF7D041EA060195F0000F18BF23
:10255000704703F00046520043EB030313F4801F5F
:1025600008BF013DF7D043EA0603704794EA0C0F19
:102570000CEA135518BF95EA0C0F0CD050EA41062F
:1025800018BF52EA4306D1D181EA030101F00041AC
:102590004FF0000070BD50EA410606BF10461946D4
:1025A00052EA430619D094EA0C0F02D150EA0136E0
:1025B00013D195EA0C0F05D152EA03361CBF104621
:1025C00019460AD181EA030101F0004141F0FE41C0
:1025D00041F470014FF0000070BD41F0FE4141F444
:1025E000780170BD70B54FF0FF0C4CF4E06C1CEA44
:1025F00011541DBF1CEA135594EA0C0F95EA0C0FF9
:1026000000F0A7F8A4EB050481EA030E52EA0335B3
:102610004FEA013100F088804FEA03334FF08055D4
:1026200045EA131343EA12634FEA022245EA111501
:1026300045EA10654FEA00260EF000419D4208BFB2
:10264000964244F1FD0404F5407402D25B084FEA5F
:102650003202B61A65EB03055B084FEA32024FF40B
:1026600080104FF4002CB6EB020E75EB030E22BF68
:10267000B61A754640EA0C005B084FEA3202B6EB28
:10268000020E75EB030E22BFB61A754640EA5C00D7
:102690005B084FEA3202B6EB020E75EB030E22BF67
:1026A000B61A754640EA9C005B084FEA3202B6EB68
:1026B000020E75EB030E22BFB61A754640EADC0027
:1026C00055EA060E18D04FEA051545EA16754FEA89
:1026D00006164FEAC30343EA52734FEAC2025FEAA7
:1026E0001C1CC0D111F4801F0BD141EA00014FF036
:1026F00000004FF0004CB6E711F4801F04BF014307
:102700000020B4F1FD0C88BFBCF5E06F3FF6AFAE22
:10271000B5EB030C04BFB6EB020C5FEA500C50F1B2
:10272000000041EB045170BD0EF0004E4EEA113135
:1027300014EB5C04C2BFD4EB0C0541EA045170BD3C
:1027400041F480114FF0000E013C90E645EA060E80
:102750008DE60CEA135594EA0C0F08BF95EA0C0FAE
:102760003FF43BAF94EA0C0F0AD150EA01347FF4F6
:1027700034AF95EA0C0F7FF425AF104619462CE7CD
:1027800095EA0C0F06D152EA03353FF4FDAE104630
:10279000194622E750EA410618BF52EA43067FF481
:1027A000C5AE50EA41047FF40DAF52EA43057FF411
:1027B000EBAE12E74FF0FF3C06E000BF4FF0010C1C
:1027C00002E000BF4FF0010C4DF804CD4FEA410C80
:1027D0007FEA6C5C4FEA430C18BF7FEA6C5C1BD04D
:1027E00001B050EA410C0CBF52EA430C91EA030FCE
:1027F00002BF90EA020F0020704710F1000F91EA2B
:10280000030F58BF994208BF90422CBFD8176FEAF8
:10281000E37040F0010070474FEA410C7FEA6C5CC6
:1028200002D150EA013C07D14FEA430C7FEA6C5CCD
:10283000D6D152EA033CD3D05DF8040B704700BFF9
:102840008446104662468C461946634600E000BF47
:1028500001B5FFF7B7FF002848BF10F1000F01BD19
:102860004DF808EDFFF7F4FF0CBF012000205DF8E4
:1028700008FB00BF4DF808EDFFF7EAFF34BF012069
:1028800000205DF808FB00BF4DF808EDFFF7E0FF02
:1028900094BF012000205DF808FB00BF4DF808ED53
:1028A000FFF7CEFF94BF012000205DF808FB00BFBA
:1028B0004DF808EDFFF7C4FF34BF012000205DF89C
:1028C00008FB00BF4FEA410212F5001215D211D5E4
:1028D0006FF47873B3EB625212D94FEAC12343F01D
:1028E000004343EA505311F0004F23FA02F018BF9F
:1028F000404270474FF00000704750EA013005D168
:1029000011F0004008BF6FF0004070474FF000002A
:10291000704700BF4A0011D212F5001211D20DD536
:102920006FF47873B3EB62520ED44FEAC12343F0D5
:10293000004343EA505323FA02F070474FF000007F
:10294000704750EA013002D14FF0FF3070474FF02E
:1029500000007047002101F0BBBC00BF0A2200212B
:1029600001F052BD024B0146186800F00BB800BFE1
:1029700010000020024B0146186801F09FBD00BF07
:10298000100000202DE9F04F01F10B05162D83B04A
:10299000064640F29F8035F0070500F1BF80A9424E
:1029A00000F2BC8000F0A6FAB5F5FC7FC0F09C8276
:1029B0006B0A00F0BA80042B00F28381A80900F1B1
:1029C000390E4FEA4E033830C44F07EB8303A3F1AF
:1029D00008015C68A14207D1ACE0002A80F2AC801B
:1029E000E468A14200F0A680636823F003035A1B49
:1029F0000F2AF2DDB9493C6901F1080E744500F077
:102A0000B381636823F003035A1B0F2A00F39981F3
:102A1000002AC1F814E0C1F810E080F29E80B3F5FE
:102A2000007F80F06781DB0803F1010C01229B101D
:102A300002FA03F34A6851F83C80C4F8088001EBBD
:102A4000CC091A43A9F10803E3604A6041F83C400D
:102A5000C8F80C40831001249C40944200F28A8004
:102A6000144206D120F003006400144200F1040077
:102A7000FAD007EBC009CC468046DCF80C108C4538
:102A800007D173E1002A80F28181C9688C4500F08A
:102A90006D814B6823F003035A1B0F2AF2DD0C46AD
:102AA000D1F80CC054F8088F4B1945F001054D6062
:102AB00042F00101C8F80CC03046CCF808807B61B8
:102AC0003B61C3F80CE0C3F808E059609A5000F08D
:102AD00013FA1FE0102921D800F00CFA1025062364
:102AE00002207E4F07EB8303A3F108025C68944247
:102AF00000F045816368E168A56823F0030323447F
:102B000030465A68E96042F001028D605A6000F078
:102B1000F3F90834204603B0BDE8F08F00240C23FD
:102B20002046336003B0BDE8F08F80234FF0400EA5
:102B30003F2049E770465DE72344E1685A68A5688D
:102B400042F00102E96030468D605A6000F0D4F92D
:102B50000834204603B0BDE8F08F234430465A685D
:102B600042F001025A6000F0C7F90834204603B071
:102B7000BDE8F08FBC68636823F00308A84504D360
:102B8000C5EB08030F2B00F38C80554BDFF86091E9
:102B90001A68D9F8003001332A4404EB080A00F01F
:102BA000608102F580520F3222F47F6222F00F0220
:102BB00011463046019200F099FBB0F1FF3F834689
:102BC000019A00F05881824500F2FC80454B19685B
:102BD000DA451144196000F05381D9F80000DFF89C
:102BE00010E101301BBFCAEB0B0A5144CEF800B014
:102BF00019601BF0070100F01781C1F10800C1F551
:102C00008051834408315A44C2F30B02C2EB0109DC
:102C100049463046019300F069FB431C019B00F0DC
:102C20003F81CBEB00024A4442F001021968C7F829
:102C300008B04944BC42CBF804201960DFF8A490E6
:102C400016D0B8F10F0F40F2FD806268A8F10C03B6
:102C500023F00703E01802F001024FF0050E1A43BB
:102C60000F2B6260C0F804E0C0F808E000F21C819D
:102C70001D4BBC681A68914288BF19601B4B1A68CB
:102C80009142626888BF196022F003029542A2EB6C
:102C9000050301D80F2B04DC304600F02DF9002489
:102CA00038E7621943F0010345F0010565603046DD
:102CB000BA60536000F020F90834204603B0BDE844
:102CC000F08F142B71D9542B00F2A480280B00F143
:102CD0006F0E4FEA4E036E3076E600BF40040020D0
:102CE000C8080020CC080020C4080020C00800202C
:102CF0004C0800205A0A042A5ED9142A00F2B38034
:102D000002F15C0149005B3207EB810C57F821109E
:102D1000DFF8DC81ACF1080C8C4500F088804A6853
:102D200022F00302934202D289688C45F7D1D1F890
:102D30000CC07A68C4F80CC0A160CCF80840CC6024
:102D400088E6631942F0010745F0010565603046E9
:102D50004B610B61C3F80CE0C3F808E05F609A5068
:102D6000083400F0C9F8D5E64A6873E608F10108AE
:102D700018F0030F0CF1080C7FF47FAE30E0DC6834
:102D8000A34208BF02303FF435AEB3E60B440C4615
:102D90005A68C96854F8085F42F001025A60304628
:102DA000E9608D6000F0A8F8B4E603F15C0E03F171
:102DB0005B004FEA4E0307E69A0902F13901490028
:102DC0003832A1E7BC424A4B3FF400AF9C686268CE
:102DD00022F003025AE759F80839994540F08280F9
:102DE00010F0030F00F1FF30F5D17B6823EA0403F4
:102DF0007B6064009C423FF6BDAE002C3FF4BAAE4F
:102E00001C4240467FF435AE64001C4200F10400D1
:102E1000FAD02EE6B3F5AA7F18D8E80B00F1780EA9
:102E20004FEA4E037730CFE54FF48051EBE60121B6
:102E3000D8F80430921001FA02F21A43C8F80420BC
:102E4000614677E70123CBF8043025E740F254527E
:102E5000934220D8A80C00F17D0E4FEA4E037C303F
:102E6000B2E51032A4E6542A26D81A0B02F16F01FB
:102E700049006E3248E7BC68626822F0030205E749
:102E8000CAF30B0000287FF4A8AE4244BB6842F0AE
:102E900001025A60ECE6FE234FF07F0E7E2093E5A0
:102EA00001224FF00009C1E604F10801304601F0AB
:102EB00005FBD9F80010DBE6B2F5AA7F05D8DA0BDE
:102EC00002F17801490077321EE740F254518A42FC
:102ED00005D89A0C02F17D0149007C3214E7FE21ED
:102EE0007E2211E77B6884E7E808431C5B00F8E575
:102EF00040040020704700BF704700BF024B0A46E5
:102F00000146186800F002B8100000202DE9F04FCB
:102F1000174683B0002900F0C1800E46814607F1B4
:102F20000B05FFF7E7FF56F804EC162D2EF003040F
:102F3000A6F1080840D810221546AF4241D8944265
:102F400075DAC94B996808EB04008842416800F0C3
:102F5000D98021F0010303445B68DB077DD51EF0B7
:102F6000010F35D039464846FFF70CFD0746E0B162
:102F700056F8043C23F001034344A0F108029A42AE
:102F800000F04481221F242A00F23181132A00F22A
:102F9000048103463246116819605168596092688D
:102FA0009A603146484601F089FA4846FFF7A4FF87
:102FB000384603B0BDE8F08F25F00705002D2A46FE
:102FC000BBDA0C230020C9F8003003B0BDE8F08F55
:102FD00056F8083CC3EB080ADAF8043023F0030C77
:102FE00004EB0C039342BDDB5746DAF80C1057F89C
:102FF000080F221F242AC160886000F21781132A5B
:1030000040F212813168CAF808107168CAF80C10D1
:103010001B2A00F22B8108360AF110023168116078
:1030200071685160B16891603E461C46D046631B92
:103030000F2B1DD8D8F8043003F001032343444478
:10304000C8F80430636843F0010363604846FFF743
:1030500053FF304603B0BDE8F08F21F00301214457
:10306000914221DBC36882680C46D3609A60DEE738
:10307000D8F8042008EB050102F00102154343F0E3
:1030800001020B44C8F804504A605A6842F0010239
:1030900008315A60484601F011FAD7E7114603B0EB
:1030A000BDE8F04FFFF76EBC1EF0010F7FF45AAF82
:1030B00056F8083CC3EB080ADAF8043023F0030C96
:1030C00001EB0C0E96458BDBC36882685746D360D4
:1030D0009A6057F8081FDAF80C30CB60221F242AB8
:1030E000996000F29980132A62D93368CAF80830CF
:1030F0007368CAF80C301B2A00F2A08008360AF167
:10310000100356E021F0030BA34405F110008345A2
:1031100059DA1EF0010F7FF425AF56F8081CC1EBF9
:10312000080ADAF8041021F0030CE34458453FF78D
:1031300057AF5746DAF80C1057F8080F221F242A09
:10314000C160886000F2B480132A40F2A580316823
:10315000CAF808107168CAF80C101B2A00F2AF8078
:1031600008360AF110023168116071685160B16867
:1031700091600AEB0501C5EB0B0242F00102996078
:103180004A60DAF8043003F001031D434846CAF8E8
:103190000450FFF7B1FE38465CE73368036073689C
:1031A00043601B2A27D800F1080306F10802F2E663
:1031B0003B4632681A6072685A60B2689A603E464E
:1031C0007446D04633E708EB0501C5EB0B0B4BF01B
:1031D000010299604A6056F8043C03F001031D4364
:1031E000484646F8045CFFF787FE304632E7314632
:1031F00001F09EFED5E6B3688360F368C360242ABD
:1032000028D000F1100306F11002C4E650F8043C87
:1032100023F003031C440AE7314638467446D0467F
:1032200001F086FE3E4602E73A46F7E6314638466A
:103230001C46D04601F07CFE3E46F8E6B368CAF86C
:103240001030F368CAF81430242A1BD010360AF163
:103250001803AEE7336903617369436106F118022D
:1032600000F1180397E600BF40040020B168CAF8D7
:103270001010F168CAF81410242A0FD010360AF181
:103280001802CBE63369CAF818307369CAF81C30E3
:1032900018360AF120038CE73A4664E73269CAF827
:1032A00018207269CAF81C2018360AF12002B5E607
:1032B00031463846019301F03BFE019B59E7B16866
:1032C000CAF81010F168CAF81410242A03D0103676
:1032D0000AF1180247E73269CAF818207269CAF879
:1032E0001C2018360AF120023DE700BF38B5074C14
:1032F0000023054608462360FEF780F9431C00D0F2
:1033000038BD2368002BFBD02B6038BD000900209E
:1033100080EA0102844612F0030F4FD111F0030F2F
:1033200032D14DF8044D11F0040F51F8043B0BD08D
:10333000A3F101329A4312F0803F04BF4CF8043BE2
:1033400051F8043B16D100BF51F8044BA3F10132F0
:103350009A4312F0803FA4F101320BD14CF8043BA8
:10336000A24312F0803F04BF51F8043B4CF8044BD9
:10337000EAD023460CF8013B13F0FF0F4FEA33234A
:10338000F8D15DF8044B704711F0010F06D011F829
:10339000012B0CF8012B002A08BF704711F0020F17
:1033A000BFD031F8022B12F0FF0F16BF2CF8022B02
:1033B0008CF8002012F47F4FB3D1704711F8012B25
:1033C0000CF8012B002AF9D1704700BF70B50446F4
:1033D0000D46164645EC104B02F00EF996B1C5F3BA
:1033E0000A53C3F16B03002B0CDD1B0503F17F5166
:1033F000002001F5401102460B4651EC100BFEF780
:10340000C7FF70BD51EC100B70BD00BF0000000085
:103410002DE9F04F9FB00E46002105921A9100222F
:103420000021CDE902121996824633461A4613F856
:10343000017B2D2F00F2D580DFE807F017D3D3D31F
:10344000D3D3D3D3D3C2C2C2C2C2D3D3D3D3D3D3A1
:10345000D3D3D3D3D3D3D3D3D3D3D3D3C2D3D3D34D
:10346000D3D3D3D3D3D3D32BD3BF059B4FF00008F3
:103470004FF0000943B100230693059B1E60069B95
:1034800013B109F10043994649EC108B1FB0BDE818
:10349000F08F00230693541C19945778002FE4D022
:1034A000302F00F0A48008944FF0000BA7F13003F8
:1034B0004FF00008092B45462346444619D8082CEE
:1034C000C8BF08EB880805EB850203F1010307EB91
:1034D00042021993C4BF07EB4807A7F130081F78D1
:1034E000D8BFA2F13005A7F13002092A04F1010486
:1034F000E5D95046079301F07DFCD0F80090504686
:1035000001F078FC006802F0FBF9079B024649468F
:10351000184602F063FA8146002800F0E28000209D
:1035200084468646A146652F73D0452F71D000236F
:10353000B9F1000F46D0B9F1100FCCEB03032846C8
:10354000CB460A93A8BF4FF0100BFEF7ABFE002C42
:1035500008BF4C46BBF1090FCDE9020113DD734BE7
:1035600003EBCB0353E91223FEF712FF0646404656
:103570000F46FEF797FE02460B4630463946FEF7E9
:1035800055FDCDE90201B9F10F0F00F3D7800A9B79
:10359000002B00F0A38040F369850A9B162B00F3F3
:1035A000A484624901EBC301D1E90001DDE90223F2
:1035B000FEF7EEFE804689460DE0012306936AE79A
:1035C000199333E718B9BBF1000F00F0A7824FF051
:1035D00000084FF00009059B002B3FF450AF199EE7
:1035E0004BE70023302F144606937FF45CAF6378DB
:1035F000582B00F04D83782B00F04A830134199446
:103600002778302FFAD0002FE1D008944FF0010B2B
:103610004CE7B9F1000F00F00582199E731C199355
:1036200077782B2F00F071822D2F00F06882002315
:103630000793A7F13003092B00F21E82302F05D12A
:10364000199B013319931F78302FFAD0A7F131035A
:10365000082B3FF66CAF199B0A9319465A1C199216
:10366000A7F130034F78A7F1300109290CD80132B6
:10367000199203EB830307EB43031778A7F130019B
:103680000929A3F13003F2D90A99521A082A00F342
:10369000238444F61F629342A8BF1346079A002A68
:1036A0003FF446AF5B42B9F1000F7FF444AF89E7C6
:1036B00019A81F4901F0C6FA00283FF4D6AE199B9D
:1036C0001C49013B19A8199301F0BCFA10B9199BC8
:1036D00001331993184B039300230293DDE9028908
:1036E00079E7504601F086FB006802F009F9199A63
:1036F00013181993175C002C40F0EF81302F2046EF
:1037000006D1013319931F78302F00F10100F8D052
:10371000A7F13103082B40F24884652F00F07E8129
:103720004FF00009CC464FF0010EFEE6C05E0008E7
:103730004C5C0008505C00080000F07F0A9BCBEB5B
:10374000090B9B44BBF1000F40F36D831BF00F018D
:103750000AD0BD4B03EBC101D1E90001DDE9022331
:10376000FEF716FECDE902013BF00F0640F02E8277
:103770000023079300954B4622460899504601F0D6
:10378000ABFC0F90002800F0CA820A9A0021002AA0
:10379000C2F10003A8BF0B460A9322EAE2739846DF
:1037A0000F4689460F9C5046616801F025FC834610
:1037B000002800F0E08222699DED027B0232920037
:1037C00004F10C010C308DED087B01F017FB9DED31
:1037D000080B1CAA1BA9504601F0A0FF1A90002854
:1037E00000F056840121504601F010FD07460028E4
:1037F00000F0C1821B9B002BC0F232810A9A454621
:10380000D61807991C9C914A5B1A2344013B9342AA
:10381000C4F1360480F2E980D21A1F2AA4EB020414
:1038200000F32281012393400E9300230C9325443F
:10383000079B3444A6421D443346A8BF2346AB42EF
:10384000A8BF2B46002B02DDE41AED1AF61A0A9BDC
:10385000BBB139461A46504601F07AFD07460028AA
:1038600000F0898201461A9A504601F0D9FC0028DE
:1038700000F081820B901A99504601F0E3FB0B9BFC
:103880001A93002C08DD22461A99504601F0B0FD2B
:103890001A90002800F0FC83434643B15946424643
:1038A000504601F055FD8346002800F06482002D4B
:1038B00008DD59462A46504601F09AFD8346002805
:1038C00000F05982002E08DD39463246504601F09C
:1038D0008FFD0746002800F04E825A461A9950463E
:1038E00001F000FE8146002800F045820023C268F6
:1038F000C36039460B9201F0D3FD0028C0F2CA83A1
:1039000000F01A843946484601F066FF55EC104B2A
:1039100000224FF0804310EE100A2946FEF7B4FF54
:10392000002867D00B9B002B00F0B2809FED427BFC
:103930008DED0C7B039B464D0E930024454E0E9A55
:10394000454B16409E4200F0BE81079B23B3B6F163
:10395000D46F21D83AA3D3E90023DDE90C01FEF7A7
:1039600093FFB0B1DDE90C01FEF7D4FF002800F0B1
:10397000DE82FEF797FCCDE90C010B9B002B40F09B
:10398000D182DDE90C1202F1004312911393DDE9BB
:10399000124505F1D6639D1B9DED080B01F02CFE31
:1039A000204653EC102B2946FEF7F2FCDDE90823F4
:1039B000FEF73CFBCDE902010C46079B23B9254BE2
:1039C00023409E4200F0F7811A99504601F03AFBDD
:1039D0005946504601F036FB3946504601F032FB5D
:1039E0004946504601F02EFBDCE600230C930123F0
:1039F0000E931CE7194B204629460022FEF7C8FC0F
:103A00000B9BCDE90C01002B3DD101F1004310903F
:103A10001193039B0E93DDE910458FE74FF0000CE7
:103A20004FF0010E002876D1BBF1000F3FF41DAD21
:103A30008146F2E5AFF30080000000000000F03F97
:103A40000000C0FFFFFFDF41C05E000802FCFFFF77
:103A50000000F03F0000F07F0000E07F0000E03F4A
:103A60004246D51A0A9ECCE6B54AD21A012303FA79
:103A700002F20C920E93DAE619960023B9F1000FC8
:103A80007FF459AD9EE59DED0C7B8DED107BC0E77D
:103A9000DDE90212002940F0DD80C2F313030E922B
:103AA000002B40F0DD800022A64B20462946FEF781
:103AB000E1FE002840F067830022A34B2046294600
:103AC000FEF766FC0A460146CDE90C1202F10043FE
:103AD00016901793DDE9164530E74846CC46A146D7
:103AE000A7F13003092B13D8421C1F46002B40F0CE
:103AF00033821046199A531C19935778F0E7012323
:103B00000793B31C1993B77893E500230793F8E75D
:103B10004FF0010E07E54FF000097EE5BEF1000F02
:103B20007FF4A3AC493F252F3FF69FAC01A353F888
:103B300027F000BFB13600086B3400086B34000872
:103B40006B3400086B3400086F3C00086B340008CD
:103B50006B3400086B3400086B3400086B340008C9
:103B60006B3400086B3400086B3400086B340008B9
:103B70006B3400086B3400086B3400086B340008A9
:103B80006B3400086B3400086B3400086B34000899
:103B90006B3400086B3400086B3400086B34000889
:103BA0006B3400086B3400086B3400086B34000879
:103BB0006B340008B13600086B3400086B34000821
:103BC0006B3400086B3400086F3C0008B6F59A7F30
:103BD00000F3A5803611012EDFF890B140F3EB829F
:103BE000DDE9020100235F46984616F0010F08F157
:103BF00001084FEA660604D0D7E90023FEF7C8FBA8
:103C00000123012E07F10807EFD1002B40F0468376
:103C1000039BA3F1547303930BEBC808DDE9022364
:103C2000D8E90001FEF7B4FB21F000431B0D474A21
:103C30001B059342CDE9020171D8A2F5801293428F
:103C400040F29C82424B0393002307934FF0FF33D3
:103C500002938FE5DDE90212012900F06D810E92D9
:103C60009FED357B00243B4D8DED0C7B66E619A85E
:103C7000394900F0E7FF00283FF4F7AB199B1B78A8
:103C8000282B00F0DB82354B03930023029325E5BC
:103C9000069A01921AAB0093314A1BAB19A9504600
:103CA00000F048FD10F0070605463FF490AC062EE4
:103CB00040F08981631C199300234FF000084FF0F6
:103CC0000009069387E4A2F1547303939DED027BF0
:103CD000B0EE470AF0EE670A01F08EFC204653EC86
:103CE000102B2946FEF754FBDDE90223FEF79EF96F
:103CF00021F00043CDE902011B0D1A4ADDE908015C
:103D00001B059342CDE9140140F2EA80104B994221
:103D10002ED00F4B03934FF0FF33029354E6124B18
:103D20000393002222230292DDE90289CAF80030BF
:103D300051E400BFAFF30080000000000000F03F3E
:103D4000E2FBFFFF0000F03F0000E03F0000A07C2E
:103D5000FFFFEF7F0000F0BF585C00080000F8FF95
:103D6000385C0008FFFF9F7C0000F07F885F000840
:103D7000149B0133CDD14E461A98B34B03930022C6
:103D80000292DDE902892223CAF80030014650463A
:103D900001F058F95946504601F054F93946504659
:103DA00001F050F90F99504601F04CF93146504658
:103DB00001F048F90FE4DDE90C5631462846FEF7DC
:103DC00081FDFEF77FFA0B46024631462846FEF794
:103DD0002BF90B9B05460E468BB9029B7BB9C4F3AE
:103DE000130464B990A3D3E90023FEF743FD002830
:103DF0003FF4EAAD4E461A98DDE90289C6E78CA386
:103E0000D3E9002328463146FEF734FD0028F1D1DE
:103E10002846314688A3D3E90023FEF749FD002850
:103E20003FF4D2ADE6E73FF4A3ACCBF1000616F0C9
:103E30000F020AD0854B03EBC203DDE90201D3E98F
:103E40000023FEF7CFFBCDE9020136113FF490AC21
:103E50001F2E38DC16F0100300F0E0816A23002EDC
:103E6000079313DDDDE90201794F0023F20704D542
:103E7000D7E90023FEF78CFA0123761007F1080733
:103E8000F4D1002B40F0FC81079B9BB1DDE90212CD
:103E9000C2F30A53C3F16B03002B11460ADD1F2B3B
:103EA00040F3C4810022342B029240F3EF814FF0A3
:103EB0005C73039300220023DDE90201FEF7D0FCCE
:103EC00000283FF457AC2223CAF800304FF0000816
:103ED0004FF00009FFF77FBB44F61F63FFF7DEBB1F
:103EE000039B03F15474039467E50A9EC9F125030B
:103EF0009E423FF723AC554CC9F10F0904EBC901B1
:103F0000C9EB0609DDE9022304EBC904D1E900018C
:103F1000FEF73EFAD4E90023FEF73AFA80468946D6
:103F2000FFF759BB9DED0C7B8DED127B2FE59FEDCF
:103F3000447B8DED0C7B20E5DDE902120E92002A18
:103F40007FF48EAE4E462223CAF800301A984FF006
:103F500000084FF0000919E7012A944418BF4844AB
:103F600003D188E1550081450FD009F1010909F11C
:103F7000FF32082A05EB8502F4DDB9F1100FDCBF32
:103F800008EB88084FEA4808EDE7199A09F101099A
:103F9000082812DDB9F1100FD8BF08EB88084FF0E0
:103FA0000000D8BF03EB4808A5E5199B0893303FF4
:103FB00000F1010C1A464FF0010905EB850507EBEE
:103FC0004505002097E51A9A3AB135211CA801F061
:103FD00033FC50461A9901F035F8062E0BD8DFE86D
:103FE00006F01D39181304391D006FF000430393C8
:103FF0004FF0FF33029329077FF570AB039B43F02B
:1040000000430393FFF76ABB0F4B03930023029314
:10401000F1E71C9B02931D9B0393ECE700230393A2
:104020000293E8E7AFF300809535A094FFFFCF3F00
:104030009535A094FFFFDF3F35E5AF350000E03F49
:10404000000000000000F03F0000F07FC05E0008AC
:10405000605C00081B9A1D9B1C99029102F233427E
:1040600023F4801343EA02530393C4E70A9A12F13C
:104070001603FFF663AB904BA3EBC203DDE902012D
:10408000D3E90023FEF7AEFA80468946FFF7A3BACC
:104090004E4672E60B9A4D464E46DDE908897ABBDC
:1040A000DDE9020160BBC1F313030C4643BB21F001
:1040B00000431B0D1B05B3F1D66F21D96B6913B9F2
:1040C0002B69012B1CDD31460122504601F090F98D
:1040D0003946064601F0E4F9002811DD079B002B64
:1040E00040F0BE80754B2340A3F580136FEA135355
:1040F0006FEA035303934FF0FF330293DDE9028924
:10410000079BBBB16E4B159300231493DDE9142379
:1041100040464946FEF73CF903460C468046894630
:10412000CDE9023431B9029B23B922231A98CAF887
:1041300000302BE61A9829E60B9B4E46DDE90889EC
:1041400053B3DDE902455F4BC5F3130199422A469B
:1041500046D00C9B53B3039A1342D1D00B9B079AC2
:10416000DDE9020153B3FFF731F902460B46404641
:104170004946FDF75BFF80468946C1E701F154736C
:104180000393FFF7F5BA9FED487B8DED167B9FED0E
:10419000487B8DED0C7B9DE4DDE90212C2F3130335
:1041A0001446002BD5D10029D3D197E70E9B029A54
:1041B0001342A5D0D2E74FF0000829E5FFF706F932
:1041C00002460B4640464946FDF72EFF00220023DB
:1041D00080468946FEF744FB00287FF4B4AE8FE7A3
:1041E000079B0299FBB1354B2B40B3F1D46F1AD822
:1041F0001B0DC3F16B034FF0FF3000FA03F38B424A
:10420000A7D131498A423ED02C4B134003F580138D
:10421000039300230293DDE9028971E7002E0793DF
:104220003FF720AE46E64FF0FF33E8E74FF0FF32AE
:1042300002FA03F3029A1A4002923BE619A81CAA5A
:10424000224900F017FD05287FF41DAD1D9B43F0AA
:10425000FF4343F4E00303931C9B0293FFF73EBA32
:10426000164B2340B3F1D66F3FF73EAFB3F15C7FFF
:104270003FF748AF67E64846199A09F1010987E612
:10428000CDE9020100E60133BED175E5203B4FF0D8
:10429000FF3202FA03F30B4003930BE6CDE9020170
:1042A000B6E400BFAFF30080000000000000E0BFF4
:1042B000000000000000E03FC05E00080000F07F4A
:1042C00000005039FFFF0F00FFFFEF7F885C000800
:1042D000024B0A4601461868FFF79AB81000002002
:1042E0002DE9F04F474C83460E46D4F800E000E03D
:1042F0002646344614F8015B0EEB0500407800F0CA
:10430000080000F0FF080028F2D12D2D5CD02B2DE5
:1043100004BF7578B41C002B3ED0102B60D09A4699
:10432000B8F1000F0CBF6FF000404FF000400027C5
:10433000B0FBFAF9BC460AFB19000CE0303DAB4279
:1043400019DD7E1C05D0CC4523D820D00AFB0C5C9F
:10435000012714F8015B0EEB0506767816F0040FC2
:10436000ECD116F0030606D0012E14BF57263726CF
:10437000AD1BAB42E5DC7B1C16D0B8F1000F10D1B1
:104380006046002A39D0DFB91160BDE8F08F854260
:10439000DCDD4FF0FF37DCE7302D1AD00A239A46D8
:1043A000BEE7CCF1000CEBE7B8F1000F4FF02203B1
:1043B0000CBF6FF000404FF00040CBF80030F2B17E
:1043C000611E1160BDE8F08FB41C75784FF00108D4
:1043D000A1E7237803F0DF03582B08D008239EE7DA
:1043E000302D9CD1207800F0DF00582897D14FF075
:1043F000100A65785346023492E7BDE8F08FBDE8B5
:10440000F08F00BF5008002010B4044C13460A4639
:10441000014620685DF8044BFFF762BF10000020E2
:10442000F8B5234F0C460646FEF764FDBB685D6891
:1044300025F00305291B01F6EF7121F47F6121F0BE
:104440000F01A1F58054B4F5805F07DB00213046F1
:10445000FEF74CFFBB682B44984204D03046FEF771
:104460004BFD0020F8BD61423046FEF73FFF0130B2
:104470000DD0104BBA6819682D1B45F00105304668
:10448000091B55601960FEF737FD0120F8BD0021BA
:104490003046FEF72BFFBA68831A0F2BDEDD064C81
:1044A0000449246843F00103001B53600860D5E70A
:1044B00040040020CC0800204C080020002945D0F2
:1044C0002DE9F0410D468046FEF714FD55F8047CB9
:1044D0006A4927F00103A5F10804E2188E685068C4
:1044E000B24220F0030062D0FE0750600BD455F8B2
:1044F000087CE41B01F1080EA56875453B446FD0AC
:10450000E768EF60BD6015186D68ED0742D543F0B0
:1045100001026260E350B3F5007F18D2DB085A1C39
:104520004D6851F83270A76001209B1000FA03F328
:1045300001EBC2001D430838E0604D6041F8324095
:10454000FC604046BDE8F041FEF7D6BC70475A0A11
:10455000042A53D89A0902F139077F0002F138057D
:1045600001EB870051F827204449083890424DD08C
:10457000516821F003018B4202D292689042F7D138
:10458000D068E060A2608460D4604046BDE8F0413D
:10459000FEF7B2BC95683A4FBD4203443FD0D068A5
:1045A000E86043F0010285606260E350B3E7FF0713
:1045B000034407D455F8082CA41A1344A068E268F1
:1045C000C26090602F4A126843F00100934260601D
:1045D0008C60B6D32C4B40461968FFF721FFB0E73B
:1045E00011184968C90744D49168D268CA60034465
:1045F00043F0010091606060E350A2E7142A17D8ED
:1046000002F15C077F0002F15B05A9E7AA104B6885
:10461000012505FA02F213434B600246B1E743F06D
:1046200001024C610C61E560A5606260E35088E7BF
:10463000542A06D81A0B02F16F077F0002F16E05AB
:104640008EE7B2F5AA7F06D8DA0B02F178077F0071
:1046500002F1770584E740F25450824206D89A0C62
:1046600002F17D077F0002F17C0579E7FE277E25B8
:1046700076E743F001026260E35062E74004002005
:104680004804002048080020C808002002694B1197
:1046900093422EDAF0B511F01F0100F1140606EB7B
:1046A000820206EB830E29D056F823300EF1040562
:1046B000AA4223FA01F4C1F1200C39D900F1100704
:1046C0002B6803FA0CF3234347F8043F55F8043BE7
:1046D000AA4223FA01F4F3D8CEEB0202053A22F003
:1046E000030204323244146004B10432931B9B1061
:1046F00016E000230361002343617047724512D91D
:1047000000F11004714651F8045B44F8045F8A42DA
:10471000F9D86FEA0E03134423F0030304339B100C
:10472000036113B1F0BD0023036100234361F0BDB9
:104730003246D8E72DE9F04F8BB0894603920893B3
:10474000059000F057FB0368029318461C4601F0E1
:10475000D7F8D9F8003000909A782118302A11F84B
:1047600001BC40F0AA8103334FF000081C4613F847
:10477000012B302A08F10108F8D0B34EB35C002BAE
:1047800000F0F08023784FF0000AF35C554627468E
:1047900023B117F8013FF35C002BFAD1009A02997C
:1047A000384601F01BF9002800F092803B78002D7C
:1047B00000F07281ED1BAA000192502B00F0918055
:1047C000702B00F08E803D46C9F80070BAF1000FE2
:1047D00040F0B7802B1B013B072B514604DD5B10DB
:1047E000072B01F10101FADC059800F005FC0346F6
:1047F0001433A5420490079340F2D4819946009B5C
:104800004FF00008C3F10103474606930FE0202F45
:1048100000F09F803A46043715F8013CF35C55469A
:1048200003F00F039340A54248EA030815D915F891
:10483000013C5B4505F1FF3AE9D1069B5344A34295
:10484000E5D31846009A0299099301F0C7F8099B2D
:104850000028DCD11D46A542E9D849F8048B079B06
:10486000049AC3EB09094FEAA903136140464FEAD2
:10487000431900F07DFC039B1E68C0EB0900B042A9
:1048800000F3E480C0F20A810027039B019A9B6831
:104890009A4200F39780039801994368994280F205
:1048A000B5805D1AAE4200F31081C268022A00F0A2
:1048B0008081032A00F05D81012A00F07E81059845
:1048C000049900F0BFFB149A0023136050203DE0D0
:1048D000002D00F01A813B786CE7002301934FF024
:1048E000010A7B782B2B00F0AC802D2B75D0791C26
:1048F0000025F35C54485A1E182A3FF664AF4A78E4
:10490000825C501E1828A3F1100301F101010BD89D
:1049100011F8010F03EB830302EB4303325C501EDB
:104920001828A3F11003F3D905B15B42019A3D4663
:104930001A440F460192C9F80070BAF1000F3FF413
:1049400049AFB8F1000F0CBF062000200BB0BDE846
:10495000F08FC9F800804FF0000809F104094246C1
:10496000042759E7009D02992A46204601F036F8AF
:10497000002836D023782746502BAED0702BACD0F1
:10498000C9F80070DDE7049B9B689F4280F2358187
:104990003B46049800EB830201210133022C0361A2
:1049A000516100F019819F4280F2DC80012104985E
:1049B000FFF76CFE039B019A9B6801329A420192B9
:1049C00040F3D3800598049900F03CFB149A00232F
:1049D000A32013600BB0BDE8F08F0125BB78B91C94
:1049E00087E7625DB35C6719002B6AD0302A3C46CA
:1049F00004D114F8013F302BFBD0F35CB3FA83FAF7
:104A00003D464FEA5A1A4FF00108C0E6012467B14B
:104A1000039BDB68022B00F08680032B00F087806D
:104A2000012B00F0B68044F01004149B1A46049B3E
:104A30001360089B1A46019B136020460BB0BDE82B
:104A4000F08F0025CAE700BFA05D0008841B214647
:104A5000049800F015FF002835D0621E5111079808
:104A600002F01F0350F82110012707FA03F30B424D
:104A70000AD0BA4240F39B80A11E049800F000FFC8
:104A8000002800F094800327019B049823442146CA
:104A90000193FFF7FBFDF8E601958EE6341A0499C1
:104AA0000598224600F0A4FC019B04901B1B019377
:104AB0000346143307930027E7E69C1C4FF00008D9
:104AC0005BE6134658E70746DEE76C1E002F4ED123
:104AD00024B12146049800F0D3FE07466311079ADB
:104AE000049852F8232004F01F04012303FA04F46D
:104AF0001442294618BF47F00207FFF7C7FD039B82
:104B00005B680193761B022481E700997B5CF25C71
:104B10007D182F46002A3FF44DAE17F8013FF25C96
:104B2000002AFAD146E6159BC3F101031593159BA4
:104B3000002B3FF478AF049B079D1F694FEA87085D
:104B400005EB08002B46002104E043F8041B9842C3
:104B50007FF619AF1A68B2F1FF3FF6D00132022C8E
:104B60001A6039D016F01F063DD121245DE70127D8
:104B7000B4E7159A002A3FF4A2AE08990B60079B90
:104B8000049901220A611A60149B1A46622011607E
:104B9000DCE6BA077FF547AF079B1B683B43DB07A3
:104BA000C9D440E7DDF81C904FF0000855E6022715
:104BB0006AE7159A002AE0D081E6AE427FF47FAE24
:104BC000012EDADD711E049800F05AFE00283FF431
:104BD00076AE039B5B68D0E7039B1B68013B9E425C
:104BE00024D0222421E74544C6F1200655F8040CC0
:104BF00000F0BEFAB042B8DAD8E6049BDDF81490B3
:104C000059684846013100F0F7F904990B699A1C7C
:104C1000054692000C310C3000F0F0F8049948463B
:104C200000F010FA04952B691435B2E6731106F002
:104C30001F0655F823200123B340134214BF21243B
:104C40002224F2E630B4046808E014F8013FA3F12E
:104C50004105192D98BF2033934208D111F8012B3B
:104C6000002AF2D101340460012030BC70470020DA
:104C700030BC70472DE9F04F0B68DFF8749185B0B8
:104C8000591102EB810113F01F0301911CBF043184
:104C90000191019C029003930023194644F8043CBF
:104CA0009A469E46029BA4F1040C1D68E0466046AD
:104CB00015F8013F23B319F80340002C43D1202BF2
:104CC0005DD8D645F4DD404513D2072911DCC1F18A
:104CD000080189000668C1F1200B03465F6807FAE6
:104CE0000BF4344327FA01F61C6043F8046F98452F
:104CF000F4D890423AD815F8013F0821002BDAD1B8
:104D0000BEF1000F3DD0404501D207295CDD904245
:104D10003BD9134650F8041B43F8041B8445F9D2D1
:104D2000002143F8041B9C45FBD2019B53F8043C33
:104D30002BB962453AD05CF8043D002BF9D0052030
:104D400005B0BDE8F08F013108290EF1010E06DD36
:104D50009042ADD9002340F8043C01210438036897
:104D600004F00F0444EA03140460A1E70023A0F157
:104D7000040840F8043CF2464046194698E7292BBF
:104D80001BD0042005B0BDE8F08F039B002BCCD0D6
:104D9000019C039B54F8041CC3F120034FF0FF3027
:104DA00020FA03F30B4044F8043CC1E7012305203B
:104DB000CCF8003005B0BDE8F08F029B01351D60D6
:104DC000BEF1000F9FD1DCE7C1F108039B0005682D
:104DD000C3F1200701464E6806FA07F42C4326FA71
:104DE00003F50C6041F8045F8845F4D88FE700BFF5
:104DF000A05D00080048704754080020844641EA3E
:104E0000000313F003036DD1403A41D351F8043B42
:104E100040F8043B51F8043B40F8043B51F8043B94
:104E200040F8043B51F8043B40F8043B51F8043B84
:104E300040F8043B51F8043B40F8043B51F8043B74
:104E400040F8043B51F8043B40F8043B51F8043B64
:104E500040F8043B51F8043B40F8043B51F8043B54
:104E600040F8043B51F8043B40F8043B51F8043B44
:104E700040F8043B51F8043B40F8043B51F8043B34
:104E800040F8043B51F8043B40F8043B403ABDD2A3
:104E9000303211D351F8043B40F8043B51F8043B45
:104EA00040F8043B51F8043B40F8043B51F8043B04
:104EB00040F8043B103AEDD20C3205D351F8043BD4
:104EC00040F8043B043AF9D2043208D0D2071CBFA0
:104ED00011F8013B00F8013B01D30B8803806046C9
:104EE000704700BF082A13D38B078DD010F003033F
:104EF0008AD0C3F10403D21ADB071CBF11F8013BAF
:104F000000F8013B80D331F8023B20F8023B7BE7FD
:104F1000043AD9D3013A11F8013B00F8013BF9D228
:104F20000B7803704B7843708B78837060467047C2
:104F30008842F0B50DD98B1898420AD28118002A00
:104F400051D09A1A13F8014D01F8014D9342F9D14D
:104F5000F0BD0F2A48D941EA00039B0746D100F172
:104F6000100401F11003154653F8106C44F8106C4E
:104F700053F80C6C44F80C6C53F8086C44F8086C4B
:104F8000103D53F8046C44F8046C0F2D03F110032A
:104F900004F11004E8D8A2F1100323F00F0302F08B
:104FA0000F0E1033BEF1030F1944034421D91E1F05
:104FB0000D467446043C55F8047B46F8047F032CE8
:104FC000F8D8AEF1040424F003040434234421444B
:104FD00002F0030262B1013B0A4411F8014B03F8ED
:104FE000014F8A42F9D1F0BD0346F3E70346F2E7E9
:104FF000F0BD7246EEE700BFC36C70B505460C46C7
:105000004BB153F8240080B1026843F824200023F8
:105010000361C36070BD2122042100F02FFDE8640C
:1050200003460028EDD1002070BD012101FA04F6ED
:10503000721D2846920000F021FD0028F3D0446044
:105040008660E4E731B1C36C4A6853F82200086017
:1050500043F82210704700BFF0B50C6983B00D46CD
:10506000064601F1140E0027DEF8000081B202FBB3
:1050700001310B0C000C02FB003389B2013701EB4C
:105080000341BC424EF8041B4FEA1343ECDC3BB136
:10509000AA68944207DA05EB8402013453612C615B
:1050A000284603B0F0BD6968019301313046FFF72F
:1050B000A3FF2A69023205F10C01074692000C3069
:1050C000FFF79CFEF26C6968019B52F82100286092
:1050D00042F821503D46DEE72DE9F843234C089D78
:1050E0001F46083384FB034EDB17C3EB6E0EBEF185
:1050F000010F06460C46904635DD012300215B007A
:105100009E4501F10101FADC3046FFF775FF0123EE
:10511000B8F1090F4561036121DD04F109094D462C
:10512000444415F8013B0146303B0A223046FFF764
:1051300093FFA542F5D109EB0804083C47450CDD77
:10514000C8EB0707274414F8013B0146303B0A220D
:105150003046FFF781FFA742F5D1BDE8F8830A3456
:105160004FF00908EAE70021CEE700BF398EE338A7
:10517000030C1B04B3B90004102310F07F4F04BFCD
:105180000002083310F0704F04BF0001043310F028
:10519000404F04BF80000233002807DB420003D4E5
:1051A000202070470023E8E7581C704718467047D6
:1051B000036813F0070207D0D90720D49A0720D438
:1051C0009B0803600220704799B209B91B0C10229A
:1051D00013F0FF0F04BF1B0A0832190704BF1B0995
:1051E0000432990704BF9B080232D90704D45B0834
:1051F00001D1202070470132036010467047002023
:1052000070475B0803600120704700BF10B50C4673
:105210000121FFF7F1FE01224461026110BD00BFD0
:105220002DE9F04F0D691769BD4283B00C46164653
:1052300004DA2A4634463D460E461746A36861689E
:1052400005EB07089845C8BF0131FFF7D5FE00F10F
:10525000140C0CEB8809CC45009005D26346002164
:1052600043F8041B9945FBD806F1140202EB870AA8
:1052700004F11403524503EB850E54D2CDF804908B
:10528000994652F8043B1FFA83FBBBF1000F20D074
:1052900000204F466646054600E01E4657F8044B80
:1052A0003068A1B283B20BFB0131240C000C4B1906
:1052B0000BFB040000EB134099B2334641EA004176
:1052C000BE454FEA104543F8041BE6D8756052F816
:1052D000043C5FEA134B20D0DCF8003067461846E8
:1052E0004D46002100E037462C88000C0BFB0400E3
:1052F00001449CB23E4644EA014346F8043B7868C8
:1053000055F8044B83B2240C0BFB043404EB11431B
:10531000AE454FEA1341E6D87B6092450CF1040C90
:10532000AFD8DDF80490B8F1000F0BDD59F8043C5C
:10533000A9F104091BB105E059F8043D13B9B8F10E
:105340000108F9D10098C0F8108003B0BDE8F08FD3
:1053500012F003032DE9F041144607462ED10E4604
:10536000A4101CD0BD6C95B3E3074FF0000806D421
:10537000641014D02868A8B10546E307F8D52A467A
:1053800031463846FFF74CFFB6B17268FB6C6410CB
:1053900053F82210316043F822600646EAD13046C5
:1053A000BDE8F0812A4629463846FFF739FF2860D4
:1053B000C0F800800546E0E70646D9E75A1E0B4DC7
:1053C000002355F82220FFF747FE0646C8E70121D3
:1053D0003846FFF711FE40F271210122002341619E
:1053E00002610546B8640360BEE700BFB45E000812
:1053F0002DE9F04791460A698B684FEA691404EB7E
:10540000020808F101059D420E468246496804DD06
:105410005B009D4201F10101FADC5046FFF7ECFD13
:10542000002C00F1140238DD02EB8403002142F865
:10543000041B9342FBD1346906F1140119F01F09D2
:1054400001EB840E21D0C9F1200200240F6807FA75
:1054500009FC4CEA04049C4643F8044B51F8044B05
:105460008E4524FA02F4F1D8CCF804400CB108F1CE
:105470000205DAF84C307268013D53F822100561DC
:10548000316043F82260BDE8F087043B51F8042BFB
:1054900043F8042F8E45F9D8EBE71346CBE700BF5E
:1054A00002690B69D21A13D19B00143014311944CC
:1054B00010B4034401E098420CD253F8044D51F863
:1054C000042D9442F7D009D301205DF8044B7047B6
:1054D0001046704700205DF8044B70474FF0FF30D6
:1054E000F3E700BF2DE9F8430B690F4611695B1A1A
:1054F000002B904617D1890007F1140208F114051A
:105500005318294401E09A425ED253F8046D51F8D1
:10551000044DA642F7D060D23B46144647464FF0B2
:105520000109984606E05DDB07F1140502F1140459
:105530004FF000097968FFF75FFDD8F810303E6939
:10554000C0F80C9004EB830CA64605EB860700F12F
:10555000140400235EF8041B55F8048B8AB213FA76
:1055600088F3090C9A1AC1EB184303EB224392B259
:1055700042EA0342F44544F8042B4FEA2343E9D8B6
:10558000AF4217D9A446294651F804EB13FA8EF21C
:10559000131403EB1E4392B242EA03428F424CF8CB
:1055A000042B4FEA2343EFD8ED433D4425F0030598
:1055B00004352C44043C22B954F8043D013E002B30
:1055C000FAD00661BDE8F8830021FFF715FD01223E
:1055D000002302614361BDE8F8832C464FF00009C7
:1055E0001546A7E73B4607F1140408F114054746A2
:1055F0004FF0010998469DE7134B10EE902A1A4090
:10560000A2F15073002B04DD0020194641EC100B71
:1056100070475B421B15132B0DDD143B1E2BDDBFAA
:10562000C3F11F03012202FA03F3012300211846EC
:1056300041EC100B70474FF40022002042FA03F1B6
:1056400041EC100B704700BF0000F07F2DE9F041E6
:10565000066900F1140808EB860656F8047C384603
:10566000FFF786FDC0F120030A280B60A6F10403B2
:1056700018DC9845C0F10B0238BF56F8083C27FAF1
:1056800002F100F1150041F07F5534BFD3400023F3
:1056900007FA00F045F4401540EA030445EC104BCE
:1056A000BDE8F081984520D2B0F10B0356F8082CE4
:1056B0001ED007FA03F040F07F57C3F1200EA6F189
:1056C000080147F4401722FA0EF0884547EA000522
:1056D00020D256F80C1C02FA03F021FA0EF31843FC
:1056E000044645EC104BBDE8F0810B3809D1024669
:1056F00047F07F5545F44015144645EC104BBDE886
:10570000F08107FA00F040F07F55002045F4401585
:105710000446E6E702FA03F00446E2E72DE9F04327
:1057200057EC106B83B0884601213C46C7F30A55FD
:105730001746FFF761FCC4F3130481460DB144F42E
:10574000801401941EB302A840F8086DFFF730FDE5
:10575000002834D19DE80C00C9F81420002B0CBFA0
:1057600001210221C9F81830C9F81010DDB909EB80
:105770008103A0F23240C8F800001869FFF7F8FC76
:10578000C0EB41103860484603B0BDE8F08301A883
:10579000FFF70EFD019BC9F8143001212030C9F834
:1057A0001010002DE3D0A5F233450544C0F13500BB
:1057B000C8F800503860484603B0BDE8F0839DE863
:1057C0000C00C0F1200103FA01F10A43C340019328
:1057D000C9F81420C2E700BF2DE9F04383B0884622
:1057E00069468146FFF732FF404601A955EC104B50
:1057F000FFF72CFF9DE80A00D9F81020D8F8100018
:10580000C91A101A01EB4013002B57EC106B0DDD79
:1058100005EB03510D4632463B4620462946FCF730
:10582000E1FE41EC100B03B0BDE8F083A7EB035998
:1058300010EE106A4F46EEE770B4146902F11403DB
:1058400001394E1103EB84040136A34200EB8606B6
:105850000CD2011F53F8045B41F8045F9C42F9D855
:10586000A31A153B23F0030304331844864204D9DA
:10587000002340F8043B8642FBD870BC704700BF51
:1058800003694A11934210B400F1140410DA04EBD6
:1058900083039C4221D253F8040C043B18B115E059
:1058A00053F8042D92B99C42FAD35DF8044B70472B
:1058B00010DD11F01F010DD054F8220020FA01F381
:1058C00003FA01F1884204EB8203E2D001205DF883
:1058D000044B704704EB8203DBE70020E5E700BFE1
:1058E00000000000000000000000000000000000B8
:1058F00000000000000000000000000000000000A8
:1059000090F800F06DE9024520F007016FF0000CFF
:1059100010F0070491F820F040F049804FF00004A7
:105920006FF00700D1E9002391F840F000F1080082
:1059300082FA4CF2A4FA8CF283FA4CF3A2FA8CF3BA
:105940004BBBD1E9022382FA4CF200F10800A4FA21
:105950008CF283FA4CF3A2FA8CF3E3B9D1E9042375
:1059600082FA4CF200F10800A4FA8CF283FA4CF3AC
:10597000A2FA8CF37BB9D1E9062301F1200182FA66
:105980004CF200F10800A4FA8CF283FA4CF3A2FA6C
:105990008CF3002BC6D0002A04BF04301A4612BA7A
:1059A000B2FA82F2FDE8024500EBD2007047D1E97D
:1059B000002304F00305C4F100004FEAC50514F00C
:1059C000040F91F840F00CFA05F562EA05021CBFDD
:1059D00063EA050362464FF00004A9E7002A41D0BC
:1059E00040EA010313F00303F0B425D1032A23D9BD
:1059F00004680D68AC421FD1043A35D0A4F10135DA
:105A000025EA040414F0803F31D1071D0D1D0DE07F
:105A100057F8043B0E68A3F10134B34224EA0304AF
:105A20000AD1043A20D014F0803F23D1032A29461A
:105A3000384605F10405EBD803780C789C4202F156
:105A4000FF320CD182B114B916E06AB17BB110F803
:105A5000013F11F8014FA34202F1FF32F5D0181BAC
:105A6000F0BC7047104670471046F0BC70471846AF
:105A7000F0BC70470020F3E72046F1E710B502FBC9
:105A800001F1FCF77FFF0446D8B150F8042C22F056
:105A90000302043A242A18D8132A14D900231B2AF3
:105AA0000360436016D9242A8360C36011BF00F1EC
:105AB00010020361436100F1180200231360536078
:105AC0009360204610BD0246F7E7002100F006F87B
:105AD000204610BD00F10802EFE700BF70B4840754
