:020000040800F2
:1000000000A00020851C0008F5080008F908000879
:10001000FD080008010900080509000800000000AB
:1000200000000000000000000000000009090008B6
:100030000D0900080000000011090008C10F0008A8
:10004000C91C0008C91C0008C91C0008C91C0008FC
:10005000C91C0008C91C0008D1140008AD14000810
:10006000C91C0008C91C000861140008C91C00084C
:10007000C91C0008C91C0008C91C0008C91C0008CC
:10008000C91C0008C91C0008C91C0008C91C0008BC
:10009000C91C0008C91C0008C91C00081513000869
:1000A000C91C0008C91C0008C91C0008C91C00089C
:1000B000C91C0008C91C0008C91C0008C91C00088C
:1000C000C91C0008C91C0008C91C0008C91C00087C
:1000D000C91C0008C91C000879080008C91C0008D0
:1000E000C1130008C91C0008C91C0008C91C00086D
:1000F000C91C0008C91C0008C91C0008C91C00084C
:10010000000000000000000000000000C91C000802
:10011000C91C0008C91C0008C91C0008C91C00082B
:10012000C91C0008C91C0008C91C0008C91C00081B
:10013000C91C0008C91C00080000000000000000E5
:10014000C91C0008C91C0008C91C000800000000E8
:10015000000000000000000000000000000000009F
:100160000000000000000000C91C0008C91C0008B5
:10017000C91C000800000000000000000000000092
:1001800000000000C91C0008A54A536803F00C03D6
:10019000042BF0B500F00F81082B00F0F980A14C82
:1001A000046003B100239E4D9F496A68C2F30312A5
:1001B00011F802E05FFA8EFE24FA0EF242606E68D9
:1001C000C6F302268E5D22FA06F686606F68C7F3D4
:1001D000C227CF5DFFB2FA40C260ED6AC5F30415D5
:1001E00001EB45052D8AADB215F0100F1CBFB3FB16
:1001F000F5F505618A4D08BF0461ED6AC5F3442534
:1002000001EB4501098A89B2CD0644BFB3FBF1F188
:100210004161834958BF4461096BCD065CBF814988
:1002200081617F4948BF8461096B89065CBF7D4954
:10023000C1617B4948BFC4610D6BED0538D5A34250
:1002400000F0BF8002620B6B4262754B196B89072D
:1002500038D18262724B1A6B12F4403F4AD1C662A7
:100260006F4B1A6B12F4402F5DD106636C4B1A6B07
:1002700012F4401F70D14663694B1A6B12F4400FA1
:1002800000F084801A6B02F44002B2F5800F00F097
:10029000AD801A6B02F44002B2F5000F00F0BB8093
:1002A0001B6B03F44003B3F5400F00F0A180F0BDD9
:1002B0000262096B8D05C7D5A342C5D1BE45C3D126
:1002C000630087E01A6B02F00302012A00F08480C9
:1002D0001A6B02F00302022A00F091801B6B03F0FC
:1002E0000303032B04BF4F4B83624D4B1A6B12F475
:1002F000403FB4D01A6B02F44032B2F5803F5ED07A
:100300001A6B02F44032B2F5003F74D01B6B03F459
:100310004033B3F5403F04BF424BC362404B1A6BBE
:1003200012F4402FA1D01A6B02F44022B2F5802FB4
:1003300056D01A6B02F44022B2F5002F67D01B6B27
:1003400003F44023B3F5402F04BF364B0363344B13
:100350001A6B12F4401F8ED01A6B02F44012B2F5E1
:10036000801F3BD01A6B02F44012B2F5001F4AD036
:100370001B6B03F44013B3F5401F04BF294B4363C9
:10038000274B1A6B12F4400F7FF47CAF8663F0BDED
:1003900053685468C3F38343991CE30322D5D36A9B
:1003A000204A03F00F030133B2FBF3F301FB03F325
:1003B00003601C46F7E61B4C04600023F3E6C462AE
:1003C0004EE7BE457FF43EAF63000362096B8F05C5
:1003D0007FF53AAF436238E784623BE744634BE71B
:1003E000046343E7114B03FB01F3E1E78463F0BDD2
:1003F0000C4B8363F0BD4FF40043C36230E74FF40E
:100400000043836226E74FF40043436334E74FF42D
:10041000004303632AE74FF400438363F0BD00BF4A
:100420000010024000127A000000002000093D0088
:1004300029B9054A536923EA000050617047024B0D
:100440005A691043586170470010024029B9054AA3
:10045000936923EA000090617047024B9A69104348
:10046000986170470010024029B9054AD36923EA10
:100470000000D0617047024BDA691043D8617047C1
:100480000010024030B501218BB00846FFF7ECFFA9
:1004900001214FF40030FFF7CBFF1E4A00251288E0
:1004A0000392472302A94FF08040ADF80830ADF821
:1004B0001050ADF80A5001F005FB174BADF8205075
:1004C0001B8807930124602305A94FF08040059302
:1004D000ADF8184001F09CFB022369464FF09040B4
:1004E00000938DF804308DF807508DF8054000F02A
:1004F00011FA224621464FF0904000F067FA4FF083
:1005000080404FF4D0432146C36101F02FFB0BB074
:1005100030BD00BF2E0000202C0000202DE9F0414E
:1005200001218AB00420FFF79FFF01214FF48010C2
:10053000FFF77EFF1C4B1D4D1B88039300242846AC
:10054000472302A9ADF80830ADF80A40ADF81040D5
:1005500001F0B8FA164B174F1B880793012628465F
:10056000602305A905934FF00208ADF82040ADF8CF
:10057000186001F009FB4FF4805338466946009338
:100580008DF807408DF805608DF8048000F0C2F901
:10059000424638460C2100F019FA3146284601F04F
:1005A000E5FA0AB0BDE8F0812E0000200008004006
:1005B0002C000020000C00482DE9F04101218AB0F8
:1005C0000220FFF751FF01214FF48020FFF730FF99
:1005D0001C4B1D4D1B88039300242846472302A96A
:1005E000ADF80830ADF80A40ADF8104001F06AFAF5
:1005F000164B174F1B88079301262846602305A931
:1006000005934FF00208ADF82040ADF8186001F0F6
:10061000BBFA10233846694600938DF807408DF8E1
:1006200005608DF8048000F075F9424638460421D3
:1006300000F0CCF93146284601F098FA0AB0BDE83E
:10064000F08100BF2E000020000400402C0000209C
:1006500000040048704700BF10B43E4C3E4BD4F835
:1006600088003E4A3E4940F47000C4F8880018688B
:1006700040F001001860586802405A601A6822F081
:10068000847222F480321A601A6822F480221A607E
:100690005A6822F4FE025A60DA6A22F00F02DA6225
:1006A000186B83B00022014019639A600092019296
:1006B0001A6842F480321A601A4603E0009BB3F5D0
:1006C000A06F09D0136803F400330193009B01333A
:1006D0000093019B002BF1D01F4B1B6813F40033D8
:1006E00018BF01230193019B012B07D0194B4FF039
:1006F00000629A6003B05DF8044B7047194A164BCC
:10070000122111605A685A605A685A605A6842F455
:1007100080625A605A6822F47C125A605A6842F425
:10072000E8125A601A6842F080721A601A4611681C
:10073000094B8901FBD55A6822F003025A605A68B6
:1007400042F002025A601A46536803F00C03082B69
:10075000FAD1CBE700ED00E0001002400CC07FF8BA
:10076000CCFC00FF00200240F0B501218FB0314DDC
:100770004FF40030FFF778FE04A801F02BFC04A929
:10078000284601F017FC00244FF4E1320C230892B4
:1007900009940A940B940D940C93AB6843F04003B6
:1007A000AB60284608A901F0A7FB01214FF40030F7
:1007B000FFF73EFE01260227042302A94FF09040D6
:1007C00002938DF80E408DF80C708DF80D6000F0DE
:1007D000A1F8394607224FF0904000F0F7F80823BF
:1007E00002A94FF0904002938DF80C708DF80F40E5
:1007F00000F090F8072203214FF0904000F0E6F857
:10080000324628460C4901F0FDFB262301A88DF84D
:1008100004308DF806408DF807608DF8056001F012
:100820001BF9064B4022314628465A6001F0D8FB9E
:100830000FB0F0BD004400400501050000E100E0FC
:10084000014608B5044801F0D5FB4021024801F0FB
:10085000F5FB0028F9D008BD0044004010B504465F
:10086000007828B1FFF7ECFF14F8010F0028F9D148
:1008700010BD00BFFFF7F2BF38B52021174801F0C7
:10088000DDFB00B938BD154801F0B8FBC3B23B2B06
:1008900018D00A2BF6D0124D2A88402A08D0114CC5
:1008A000A354511C18462980BDE83840FFF7C8BF43
:1008B0000D4C4120FFF7C4FF14F8010F0028F9D1B7
:1008C000288038BD064B094A06491D881160002260
:1008D00007484A5501241A80048038BD004400406E
:1008E000B00800202C090020785A00086C0900206C
:1008F000BE080020704700BFFEE700BFFEE700BF54
:10090000FEE700BFFEE700BF704700BF704700BFB3
:10091000704700BF00222DE9F0471346D1F800E0F0
:1009200001274FF0030C04E00133102B02F1020207
:1009300025D007FA03F434EA0E05F5D10E79751EB9
:10094000012D0CFA02F51CD9ED43046891F80780DB
:1009500025400560056806FA02F42C430460C4686B
:100960000CFA02F524EA0504C460C56808FA02F42A
:1009700001332C43102BC46002F10202D9D1BDE82F
:10098000F087D0F808A091F8058091F806900CFA4D
:1009900002F5ED430AEA050AC0F808A0D0F808A05D
:1009A00008FA02F848EA0A08C0F80880B0F804809B
:1009B0001FFA88F828EA04048480B0F8048009FA51
:1009C00003F444EA0804A4B28480BEE7CB0800EB39
:1009D000830001F0070110B48900046A0F238B40E3
:1009E00024EA03030362036A5DF8044B8A4042EA87
:1009F00003010162704700BF08B5FFF743FD002007
:100A000001F0A6F9FFF78AFD002001F0EBF9FFF7EE
:100A1000D3FD002001F030FAFFF71CFE002001F0AA
:100A200051FA00F0E7FE00F0DFFABDE8084000F000
:100A3000B1BA00BF2DE9F04F87B0FFF7DDFFFFF738
:100A400093FE604C23889BB2002BFBD0DFF878919B
:100A5000DFF880B1DFF86CA1B9F800309BB2012B50
:100A60003FD063899BB2002BFBD00027DBF800004E
:100A7000AAF80A7000F032F90378042B064600F059
:100A80008A8000F0BDF9054614300DC869680091F0
:100A9000A9680191697CD5F800E095F810C0CAF802
:100AA0000C000291CAF8102095F81280CAF8143090
:100AB000002854D1002A2DD1002B3FD1311D0EC961
:100AC0000120A9F8000030466162A262E36202F0F0
:100AD00021FA284602F01EFAB9F800309BB2012B29
:100AE000BFD163889BB2012B62D0364B9B889BB2EF
:100AF000002BB1D1334BDB889BB2002BACD1314BF7
:100B00001B899BB2002BA7D12F4A30481380FFF7D7
:100B1000B1FEA1E7BDF80000039301F033F902989C
:100B200001F044F9012001F05DF9039B012200214D
:100B3000E280E161A9F80020002BBFD0BDF80400DD
:100B400001F06CF9404601F07DF9012001F094F9C3
:100B50000123002223812262A9F80030AEE71FFAA8
:100B60008EF005930492CDF80CC001F0C7F8DDF8C3
:100B70000CC0604601F0D2F8012001F0E9F8049AB7
:100B8000059B0121AAF80410CAF81870A9F80010F2
:100B9000002A91D0BEE7384601F094F9384601F0BA
:100BA000D7F8384601F01EF9384601F065F953E7E9
:100BB000054A074800231380FFF75CFE00F0D2F8D7
:100BC0004FE700BFB40800202A0000208C5A00081C
:100BD000805A00086C090020F0B504468DB00C2046
:100BE00002F090F92178002605468DF800608DF816
:100BF00010608DF82060684691B128290CD02C290E
:100C00000ED09DF80030002B62D0034613F8012F60
:100C1000002AFBD119705E7014F8011F0029ECD175
:100C2000617804AE0134C9B12C2917D033460027AE
:100C3000197014F8011F5F7081B12C290ED09DF836
:100C40001030002B46D0334613F8012F002AFBD179
:100C5000197014F8011F5F700029EED1617808AF98
:100C60000134D9B1292919D03B464FF0000E197033
:100C700014F8011F83F801E081B129290ED09DF8F5
:100C800020304BB33B4613F8012F002AFBD11970DB
:100C900014F8011F83F801E00029EED102F02EF9CB
:100CA00051EC100B02F0E2F82860304602F026F911
:100CB00051EC100B02F0DAF86860384602F01EF9C9
:100CC00051EC100B02F0D2F8A86028460DB0F0BD30
:100CD00003469FE73346ABE73B46C8E770B504469B
:100CE000102002F00FF90546C8B123783BB916E091
:100CF000522B16D0532B2FD014F8013F7BB14C2B25
:100D0000F6D12E46002306F8043B601CFFF764FF73
:100D1000034607C886E80700184602F0FBF8284695
:100D200070BD2E46002306F8043B601CFFF754FFFD
:100D3000034607C886E80700184602F0EBF8084BA0
:100D4000E8686E68AC680ECB0344314422446960A5
:100D5000AA60EB60284670BD04232B70284670BD46
:100D6000D8080020F0B51D4F1D4E1E4D1E4C3A8870
:100D700030882B882188DFF884C080B289B292B293
:100D8000C0EB00109BB2C1EB011191B040004900D3
:100D9000A2EB0212A3EB03134FF0000E00EB420292
:100DA00001EB430368461149A7F800E0A6F800E00C
:100DB000A5F800E0A4F800E0ACF800E000F00AFDBF
:100DC0000B4B6846C3F800D0FFF754FD0948FFF706
:100DD00051FD094B01221A8011B0F0BDEA08002034
:100DE000E8080020E6080020E4080020D85A00089F
:100DF0006C090020885A0008BE080020B6080020B0
:100E0000F8B505462DED088B202002F07BF804464E
:100E1000002800F083805D496F68AE68E86891E85B
:100E20000C00D21B07EE902A89689B1BF8EEE78A1C
:100E300007EE903A091AB8EEE78AF5EEC08A07EE97
:100E4000901AF1EE10FAB8EEE79A6BDDB5EEC08AB3
:100E50000123F1EE10FA237476DDB5EEC09A01237A
:100E6000F1EE10FA637440F382800123A374484DBD
:100E7000286801F00DFD064618EE900A0F4601F0B5
:100E800007FD41EC1B0B18EE100A01F001FDB0EE5E
:100E90004B0AF0EE6B0A41EC110B41EC1A0B01F01E
:100EA000D3F8304653EC102B394601F045FD02F0E3
:100EB00005F82060286801F0EBFCB0EE4B1AF0EE6C
:100EC0006B1AB0EE4A0AF0EE6A0A06460F4601F0C7
:100ED000BBF8304653EC102B394601F02DFD01F0E4
:100EE000EDFFBCEEE87ABCEEC99A17EE102ABCEE14
:100EF000C87AD5ED007A606017EE103A19EE100A44
:100F00006421FCEEE77A01FB02F201FB03F301FB33
:100F100000F1C4ED027A6261A361E161BDEC088B6E
:100F20002046F8BDFDEEE88AB5EEC08A18EE902A9C
:100F3000002AB8BF524208EE902A0023F1EE10FAC0
:100F4000F8EEE88A237488DCBDEEC88AB5EEC09A54
:100F500018EE102A002AB8BF524208EE102A0023C9
:100F6000F1EE10FAB8EEC88A63743FF77EAFBDEEBB
:100F7000C99A002319EE102A002AB8BF524209EE7E
:100F8000102AA374B8EEC99A71E700BFD8080020F0
:100F90003000002030B4074C074B0848302584F857
:100FA0002350002207211A6030BC58609A601960F3
:100FB000704700BF00ED00E010E000E090D00300BB
:100FC00008B5012000F074FF054A13680133B3F53A
:100FD000167F136002D3034B01221A8008BD00BFA5
:100FE000F0080020B40800202DE9F0470121AEB040
:100FF0004FF40030FFF71CFA0121084600240125B8
:10100000FFF724FA02264FF480624FF400730AA916
:101010001027BD480C920E930A97DFF8F4828DF8E2
:101020002C408DF834408DF83C408DF82E408DF8E2
:1010300036408DF83E408DF837408DF83F408DF8B2
:101040002D508DF835508DF83D508DF82F60FFF7FD
:1010500061FC0CA94FF09040FFF75CFC0EA94FF02B
:101060009040FFF757FC4FF480724FF40043404626
:1010700010A912921493A54F8DF844408DF84C405E
:101080008DF854408DF846408DF84E408DF856400E
:101090008DF845508DF84D508DF855508DF84760BE
:1010A0008DF84F408DF857401096FFF733FC4046BF
:1010B00012A9FFF72FFC14A94FF09040FFF72AFC6C
:1010C0004FF480524FF40063384616A918921A93D1
:1010D0008DF85C408DF864408DF86C408DF85E4072
:1010E0008DF866408DF86E408DF85D508DF8655036
:1010F0008DF86D508DF85F608DF867408DF86F400A
:101100001695FFF707FC384618A9FFF703FC384689
:101110001AA9FFF7FFFB0421052000F0D7FD2046A8
:101120000A2100F0D3FD0921204600F0CFFD082759
:1011300009234FF00C084FF004094FF00A0A1CA8CD
:1011400020938DF875708DF87D808DF885808DF8F1
:1011500076508DF87E508DF886508DF874408DF85D
:101160007C408DF88440CDF87090CDF878A000F0E8
:10117000BDFB1EA800F0BAFB20A800F0B7FB294673
:10118000284600F0A3FD3946284600F09FFD0F21B8
:10119000204600F09BFD0F2322A8269324978DF86C
:1011A0008D708DF895808DF89D8022958DF88E50EC
:1011B0008DF896508DF89E508DF88C408DF89440A7
:1011C0008DF89C4000F092FB24A800F08FFB26A82D
:1011D00000F08CFB2146304600F078FD4146304659
:1011E00000F074FD0B21304600F070FD0B2328A8A1
:1011F0002C93CDF8A8808DF8A5708DF8AD708DF882
:10120000B57028948DF8A6508DF8AE508DF8B65074
:101210008DF8A4408DF8AC408DF8B44000F066FB2A
:101220002AA800F063FB2CA800F060FB282703230A
:101230004FF017080DEB09008DF80E308DF804A063
:101240008DF805408DF809508DF80D508DF8064049
:101250008DF80A408DF807508DF80B508DF80F501F
:101260008DF808708DF80C8000F0F6FB02A800F0F5
:10127000F3FB03A800F0F0FB072304A88DF810305F
:101280008DF81A908DF814808DF818708DF8114033
:101290008DF815508DF819508DF812508DF81650A4
:1012A0008DF813508DF817508DF81B5000F0D4FBBB
:1012B00005A800F0D1FB06A800F0CEFB062205230E
:1012C00007A88DF81C208DF826308DF81D408DF86C
:1012D00020708DF824708DF821508DF825508DF8F0
:1012E0001E608DF822608DF81F508DF823508DF808
:1012F000275000F0B1FB08A800F0AEFB09A800F0F1
:10130000ABFB2EB0BDE8F087001400480008004891
:101310000004004810B5092090B000F06FFB38B110
:101320001F4B1C88A4B2012C2AD0092000F07AFBA4
:10133000082000F063FB38B1194B1C88A4B2012CC3
:1013400004D0082000F06EFB10B010BD154B188AB9
:1013500000F4807080B20028F3D100F043FD124900
:10136000124A134B0C8014801A681249684600F028
:1013700031FA6846FFF77EFA0F48FFF77BFAE0E79D
:101380004FF09043188A00F4007080B20028CCD14E
:1013900000F0DEFC044A094B14801C80C5E700BF46
:1013A000B408002000040048B6080020E40800202B
:1013B000D0080020E45A0008885A0008EA080020F3
:1013C00010B50A2000F01AFB38B1214B1C88A4B2DA
:1013D000012C2DD00A2000F025FB0F2000F00EFB81
:1013E00038B11B4B1C88A4B2012C14D00F2000F084
:1013F00019FB0C2000F002FB48B90B2000F0FEFAAC
:1014000000B910BD0B20BDE8104000F00BBB0C2054
:1014100000F008FBF1E74FF090431B8A1B04E5D472
:10142000002000F0DFFC0B4A0B4B14801C80DDE732
:101430004FF09043188A00F4806080B20028C9D130
:1014400000F086FC034A054B14801C80C2E700BFF5
:10145000B4080020B6080020E6080020E8080020B4
:1014600008B5042000F0CAFA68B10D4B0D481A689F
:1014700001321A6019680268914205D80420BDE85B
:10148000084000F0CFBA08BD0022074910460A8084
:101490001A6000F05DFC0420BDE8084000F0C2BA0C
:1014A000CC080020C0080020B808002008B50120A2
:1014B00000F0A4FA00B908BD044A136801200344EF
:1014C0001360BDE8084000F0ADBA00BFD0080020AE
:1014D00008B5002000F092FA68B10D4B0D481A686B
:1014E00001321A6019680268914205D80020BDE8EF
:1014F000084000F097BA08BD0022074910460A804C
:101500001A6000F0B9FC0020BDE8084000F08ABA7B
:10151000D4080020C8080020BC080020092B70B5A2
:101520001E4602F1FF35044613D8002D1BDD0B4685
:10153000411904F8013BA142FBD110460B4BA3FB20
:101540000623DB0803EB8303A6EB430330330B7066
:1015500070BD064BA3FB0623DB082A46FFF7DEFF20
:1015600021180130EAE701460120E7E7CDCCCCCCD9
:10157000F8B5002B04460E4628DB092B1D4602F168
:10158000FF321ADC002A38DD11462046013900F806
:10159000016BFBD1013A22EAE272501C002B044499
:1015A00026DB901C164BA3FB0523DB0803EB830310
:1015B000A5EB430330332370F8BD114BA3FB056348
:1015C000DB08FFF7D5FF04440130EBE75D42092D4E
:1015D00002F1FF3708D90A4BA3FB0523DB083A4683
:1015E0005B42FFF7C5FFEEE7023A002ACCDC0020A1
:1015F0002D2304F8013B0230D4E70120D2E700BFDD
:10160000CDCCCCCC2DE9F04182B0551E089E5FEACE
:10161000161E044698461ED1002D24DD0F464319A0
:1016200004F8017BA342FBD1104606F00F06092EF9
:101630000CD9B8F1000F04D157361E7002B0BDE8C6
:10164000F08137361E7002B0BDE8F08130361E7072
:1016500002B0BDE8F081CDF800E02A46FFF7D2FFE6
:1016600023180130E1E703460120DEE72DE9F041D0
:101670000F4682B09E46064608B10023037000253F
:1016800013785BB1BD4280F09780252B0ED00132DC
:101690003370137801350136002BF3D1AF4240F29D
:1016A0008B802846337002B0BDE8F081517825293F
:1016B00035D0302938D00B46541CA3F13002092A0A
:1016C0004FF0200136D8002202EB820203EB4202E7
:1016D00014F8013FA3F13000303A092802F0FF026C
:1016E000F2D910462844874238BF7A1BA3F1580329
:1016F00038BFD2B2202B66D8DFE803F059656565A4
:1017000065656565656565514765656565476565D9
:101710006565656565656538652E65651F003170B1
:10172000023201350136ABE79378941CA3F1300205
:10173000092AC8D900200246D4E7DEF80030009319
:1017400000230EF104083046FFF75CFFC64603464F
:10175000621C1E44054493E7DEF8003030460EF16B
:101760000408FFF7DBFEC6460346F1E7DEF800108B
:101770000B780EF1040E5BB3324602F8013B11F810
:10178000013F901B002BF8D1E1E7DEF80030304636
:101790000EF10408FFF7ECFEC6460346D8E7DEF874
:1017A0000030337001230EF1040E1846D0E7DEF846
:1017B000003000930123C4E70023681E06F8013CB3
:1017C00002B0BDE8F0814FF0FF3002B0BDE8F0811B
:1017D0001846BDE70EB400B582B003AB642153F8E0
:1017E000042B0193FFF742FF02B05DF804EB03B056
:1017F000704700BFF0B501218DB04FF48020FEF797
:1018000017FE01214FF40020FEF712FE01214FF4D4
:101810008010FEF70DFE314F314E01214FF4800054
:1018200001240025FEF704FE4FF4026369462D48AB
:1018300000938DF804408DF805408DF806508DF822
:101840000750FFF767F83846042302A902938DF882
:101850000C408DF80D408DF80E508DF80F50FFF7AD
:1018600059F838464FF4407304A904938DF8144096
:101870008DF815408DF816508DF81740FFF74AF88F
:101880004FF4005306A9184806938DF81C408DF8B4
:101890001D408DF81E508DF81F50FFF73BF8304665
:1018A0004FF4017308A908938DF824408DF8254062
:1018B0008DF826508DF82750FFF72CF8402330463E
:1018C0000AA98DF82E508DF82C408DF82D408DF8FA
:1018D0002F400A93FFF71EF80DB0F0BD0008004836
:1018E0000014004800040048000C00488379F0B45C
:1018F000002B54D0036802793D4E3E4D23F01F016A
:1019000001F1804101F5823103F01F040F680123CA
:1019100003FA04F427EA04040C60016821F01F07AD
:1019200001F01F01BC5903FA01F124EA0101B95188
:101930000168314C02F1804221F01F0702F582322A
:1019400001F01F01BE5803FA01F13143B95002689A
:10195000417922F01F0702F01F027E5903FA02F2BA
:1019600026EA02027A51026822F01F0702F01F02E3
:101970003E5903FA02F226EA020210293A5121D016
:10198000006801F1804220F01F0402F5823200F06D
:101990001F00A15883400B43A350F0BC704703794C
:1019A000026803F1804322F01F0403F5823302F042
:1019B0001F02E158012000FA02F221EA0202E2507D
:1019C000F0BC7047026822F01F0602F01F02715936
:1019D00003FA02F20A437251026822F01F0002F079
:1019E0001F02015993400B430351F0BC704700BFE5
:1019F00004040140080401400C04014020F01F03CE
:101A000003F1804303F5823300F01F0001221968BF
:101A10005B69824012EA030003D0114214BF012027
:101A20000020704700F01F01012320F01F00024A30
:101A30008B408350704700BF14040140044A05499D
:101A40001368002B08BF0B461844106018467047F7
:101A5000F408002078090020C3785BB903781748A0
:101A60005A09203203F01F03012101FA03F340F861
:101A700022307047F0B4124B8278D96846780478E7
:101A80000E4DC943C1F302210F23C1F10407CB401E
:101A9000BE401340334304F1604202F561421B0132
:101AA000DBB282F800330378012203F01F015B09E7
:101AB0008A4045F82320F0BC704700BF00E100E0F9
:101AC00000ED00E0264A038890429BB238D002F530
:101AD0000062904234D0B0F1804F31D0A2F59832FC
:101AE00090422DD002F58062904229D01D4A90424A
:101AF0002DD002F58062904229D00A8970B423F477
:101B00004073174C4E680D889BB21343A04203806C
:101B1000C66205850ED0144B98420BD003F5406386
:101B2000984207D003F58063984203D003F58063A1
:101B3000984201D18B7A03860123436170BC7047C0
:101B40004A8823F070031343064A9042D1D10380A0
:101B50000B884A68C262038501234361704700BF56
:101B6000002C01400010004000340140038829B9D6
:101B700023F001031B041B0C038070479BB243F04E
:101B800001030380704700BFF0B5046A8B89B1F888
:101B900004E00F681C4E24F001040462046A4568E6
:101BA000826924F0020422F48032234322F073027B
:101BB000B0424EEA030342EA070214D0134CA0429B
:101BC00011D004F54064A0420DD004F58064A04219
:101BD00009D004F58064A04205D08968456082611F
:101BE00041630362F0BDCE89B1F810E0CF8823F0E5
:101BF0000803334325F440744E8A23F004034EEA6D
:101C000004053B433543E8E7002C01400034014024
:101C1000F0B5046A8D898B880F68184E24F0100483
:101C20000462046AD0F804E0826922F0807224F031
:101C300020042B4322F4E642B04244EA031342EA72
:101C4000072209D00E4CA04206D08968C0F804E0F3
:101C5000826181630362F0BDCD890E8A4C8A23F0D4
:101C6000800343EA0513CD882EF4406E23F0400331
:101C7000344343EA05134EEA840EE6E7002C0140A4
:101C800000340140002103E00A4B5B58435004310B
:101C900009480A4B42189A42F6D3094A02E0002347
:101CA00042F8043B074B9A42F9D3FEF7D5FCFEF706
:101CB000C1FE7047A05D000800000020B0080020B1
:101CC000B008002078090020FEE7000001F0FC03C6
:101CD00003F1804303F5803301F0030110B4890060
:101CE0009C680F228A4024EA02029A609A685DF892
:101CF000044B884010439860704700BF064B93FB2D
:101D0000F0F001384FF0804300EBD0725210812187
:101D1000D8629A631980704740420F0001280AD0A8
:101D200040B90A4A938A5B0704D5938A9BB283F031
:101D3000040393827047054A938A9BB2042BF9D01F
:101D4000938A9BB243F004039382704700080048D3
:101D500001280AD040B90A4A938A5B0704D5938ABE
:101D60009BB283F0040393827047054A938A9BB227
:101D7000042BF9D0938A9BB243F0040393827047FB
:101D800000140048074B93FBF0F00138064A00EBC3
:101D9000D0735B10D062536313889BB243F001038E
:101DA0001380704740420F000008004001280AD00D
:101DB00040B90B4A938A1B0504D5938A9BB283F4DE
:101DC000006393827047064A938A9BB2B3F5006F13
:101DD000F8D0938A9BB243F400639382704700BFAC
:101DE0000004004801280AD040B90B4A938A9B049A
:101DF00004D5938A9BB283F4005393827047064ABA
:101E0000938A9BB2B3F5005FF8D0938A9BB243F4F8
:101E100000539382704700BF000C0048074B93FBB0
:101E2000F0F00138064A00EBD0735B10D0625363C8
:101E300013889BB243F001031380704740420F00A8
:101E40000004004001280AD040B90A4A938A9B0640
:101E500004D5938A9BB283F0200393827047054A8E
:101E6000938A9BB2202BF9D0938A9BB243F0200334
:101E7000938270470004004801280AD040B90B4AF9
:101E8000938A9B0504D5938A9BB283F40073938253
:101E90007047064A938A9BB2B3F5007FF8D0938AC5
:101EA0009BB243F400739382704700BF0014004854
:101EB000034A938A9BB283F480739382704700BF76
:101EC0000008004801280AD040B90A4A938A5B06F4
:101ED00004D5938A9BB283F0400393827047054AEE
:101EE000938A9BB2402BF9D0938A9BB243F0400374
:101EF0009382704700140048F0B50668CB688F687D
:101F0000D1F804C0044626F0010608690D46496967
:101F10002660666826F4405E4EEA0707676022681E
:101F20004CEA030622F4B05323F00C0346EA000205
:101F300013432360A36823F440730B4391B0A36061
:101F400001A8FEF721F9174B9C4224D0164B9C4266
:101F500023D0164B9C4222D0154B9C420CBF0E9AAC
:101F60000F9A23682968180448BF5200B2FBF1F3A6
:101F700001FB1322B2EB510F226828BF0133120478
:101F800005D54FF6F0721A40C3F3420313439BB2D8
:101F9000A38111B0F0BD0B9AE3E70C9AE1E70D9A2B
:101FA000DFE700BF00380140004400400048004027
:101FB000004C004030B44A680D688C684368C968BA
:101FC0002A4322430A4323F470631343436030BC23
:101FD000704700BF0023036043608360C3607047A5
:101FE000036819B923F001030360704743F001034C
:101FF00003607047C1F3080101857047808CC0F30E
:102000000800704710B4CCB2C1F3072101230229A4
:1020100003FA04F310D0032908BF083032B902686C
:102020005DF8044B22EA03030360704702685DF821
:10203000044B1343036070470430EFE7C3690B425E
:1020400014BF01200020704700F002B8000000001B
:1020500051EC110B43422DE9F047034321F00048B6
:10206000754F48EAD373BB4255EC104B49D86342D5
:10207000234325F0004A4AEAD373BB42A94640D81D
:1020800001F1404303F5801303438E4650D08E1771
:1020900006F0020654EA0A0346EAD57639D050EA39
:1020A00008033ED0B84555D0BA453AD0C8EB0A0827
:1020B0004FEA2858B8F13C0F40DC002970DB02469B
:1020C0000B462046294600F061FD41EC100B00F064
:1020D00073FA00F0B5F851EC100B012E5AD0022E15
:1020E00048D0002E42D03EA3D3E9002300F070FA7E
:1020F0003DA3D3E9002300F06BFA41EC100BBDE8DF
:10210000F08722462B4600F065FA41EC100BBDE843
:10211000F087022E16D0032E0ED19FED350BBDE8B1
:10212000F087B9F1000F11DB9FED330BBDE8F087AD
:10213000BDE8F04700F084B8BDE8F0872EA1D1E9F2
:102140000001CAE79FED280BBDE8F0879FED2C0B3F
:10215000BDE8F087C24529D0022EF3D0032EDCD093
:10216000012E2DD09FED280BBDE8F08741EC100B20
:10217000BDE8F0871AA3D3E9002300F029FA02464C
:102180000B4619A1D1E9000100F022FA41EC100B35
:10219000BDE8F08701F1004141EC100BBDE8F0878C
:1021A00018F13C0F8BDA0020002196E7022E13D0A5
:1021B000032E0DD0012E07D09FED150BBDE8F08743
:1021C0009FED150BBDE8F0879FED150BBDE8F0877F
:1021D0009FED150BBDE8F0879FED150BBDE8F0876F
:1021E000075C143326A6A13C182D4454FB2109405A
:1021F000182D4454FB2109C0182D4454FB21F93FEC
:10220000182D4454FB21F9BF00000000000000001D
:10221000182D4454FB21E93F00000000000000801D
:10222000182D4454FB21E9BFD221337F7CD902C051
:10223000D221337F7CD902400000F07F00000000F3
:102240002DE9F84F55EC104BD14B25F000469E423E
:10225000AB4610DDCF4B9E4200F3B28000F0AD8064
:10226000BBF1000F40F3FD80ADA5D5E9004545EC7D
:10227000104BBDE8F88FC84B9E4200F3C080A3F11D
:10228000DE739E4240F3A8804FF0FF3A22462B4671
:102290002046294600F050FB02460B468046894600
:1022A00000F04AFBA0A3D3E9002306460F4600F046
:1022B00043FB9FA3D3E9002300F08CF932463B4651
:1022C00000F03AFB9CA3D3E9002300F083F93246E7
:1022D0003B4600F031FB9AA3D3E9002300F07AF9E2
:1022E00032463B4600F028FB97A3D3E9002300F0D9
:1022F00071F932463B4600F01FFB95A3D3E900235A
:1023000000F068F942464B4600F016FB92A3D3E971
:102310000023804689463046394600F00DFB90A3E5
:10232000D3E9002300F054F932463B4600F004FBA9
:102330008DA3D3E9002300F04BF932463B4600F071
:10234000FBFA8BA3D3E9002300F042F932463B4667
:1023500000F0F2FA88A3D3E9002300F039F93246FD
:102360003B4600F0E9FABAF1FF3F02460B467CD04B
:102370004046494600F02EF922462B4600F0DCFA92
:10238000864E874B4FEACA0A56449A44DAE900233C
:1023900000F01EF922462B4600F01AF902460B46C1
:1023A000D6E9000100F014F9BBF1000F52DB04463E
:1023B0000D4645EC104BBDE8F88F002C3FF450AFB4
:1023C00022462B462046294600F004F904460D46D5
:1023D00045EC104BBDE8F88F69A3D3E9002310EE5C
:1023E000100A294600F0F6F800226E4B00F034FD8A
:1023F00000283FF449AF45EC104BBDE8F88F00F0E2
:10240000DBF8694B9E4255EC104B3FDCA3F55023A3
:102410009E4268DC10EE102A10EE100A2B46294668
:1024200000F0D8F800225F4B00F0D2F800220646F8
:102430000F464FF080432046294600F0CBF8024675
:102440000B463046394600F0A1FB4FF0000A044627
:102450000D461BE7044601F1004545EC104BBDE875
:10246000F88F49A5D5E90045B2E74046494600F056
:10247000B1F822462B4600F05FFA02460B46204692
:10248000294600F0A5F804460D46A1E7474B9E42B9
:102490001DDC10EE100A0022454B294600F098F88A
:1024A000002206460F46424B2046294600F044FAD9
:1024B00000223C4B00F08EF802460B46304639466F
:1024C00000F064FB4FF0020A04460D46DEE62B46A0
:1024D00010EE102A0020374900F058FB4FF0030A95
:1024E00004460D46D2E610EE100A00222D4B294676
:1024F00000F06EF8002206460F462A4B2046294679
:1025000000F068F802460B463046394600F03EFBC4
:102510004FF0010A04460D46B8E600BFAFF3008055
:10252000182D4454FB21F93F11DA22E33AAD903FD4
:10253000EB0D76244B7BA93F513DD0A0660DB13FFA
:102540006E204CC5CD45B73FFF8300922449C23F62
:102550000D5555555555D53F2F6C6A2C44B4A2BF27
:102560009AFDDE522DDEAD3F6D9A74AFF2B0B33FEF
:10257000711623FEC671BC3FC4EB98999999C93F67
:102580009C7500883CE4377E182D4454FB21F9BF2C
:10259000FFFF0F440000F07FFFFFDB3F105B0008F0
:1025A000F05A00080000F03FFFFFF23FFF7F0340BA
:1025B0000000F83F0000F0BF53EC102B23F0004365
:1025C00043EC102B704700BF81F0004102E000BFD8
:1025D00083F0004330B54FEA41044FEA430594EAE3
:1025E000050F08BF90EA020F1FBF54EA000C55EA1E
:1025F000020C7FEA645C7FEA655C00F0E2804FEAEF
:102600005454D4EB5555B8BF6D420CDD2C4480EAD0
:10261000020281EA030382EA000083EA010180EA00
:10262000020281EA0303362D88BF30BD11F0004F4E
:102630004FEA01314FF4801C4CEA113102D0404284
:1026400061EB410113F0004F4FEA03334CEA1333BF
:1026500002D0524263EB430394EA050F00F0A780D7
:10266000A4F10104D5F1200E0DDB02FA0EFC22FAD2
:1026700005F2801841F1000103FA0EF2801843FAC6
:1026800005F359410EE0A5F120050EF1200E012AB7
:1026900003FA0EFC28BF4CF0020C43FA05F3C018F5
:1026A00051EBE37101F0004507D54FF0000EDCF16E
:1026B000000C7EEB00006EEB0101B1F5801F1BD317
:1026C000B1F5001F0CD349085FEA30004FEA3C0C1B
:1026D00004F101044FEA445212F5800F80F09A8011
:1026E000BCF1004F08BF5FEA500C50F1000041EB15
:1026F000045141EA050130BD5FEA4C0C404141EB19
:10270000010111F4801FA4F10104E9D191F0000F3F
:1027100004BF01460020B1FA81F308BF2033A3F1C2
:102720000B03B3F120020CDA0C3208DD02F1140CB9
:10273000C2F10C0201FA0CF021FA02F10CE002F1F4
:102740001402D8BFC2F1200C01FA02F120FA0CFCED
:10275000DCBF41EA0C019040E41AA2BF01EB045136
:10276000294330BD6FEA04041F3C1CDA0C340EDC34
:1027700004F11404C4F1200220FA04F001FA02F377
:1027800040EA030021FA04F345EA030130BDC4F135
:102790000C04C4F1200220FA02F001FA04F340EA2A
:1027A0000300294630BD21FA04F0294630BD94F0DB
:1027B000000F83F4801306BF81F480110134013DC2
:1027C0004EE77FEA645C18BF7FEA655C29D094EA33
:1027D000050F08BF90EA020F05D054EA000C04BFB1
:1027E0001946104630BD91EA030F1EBF002100209C
:1027F00030BD5FEA545C05D14000494128BF41F03B
:10280000004130BD14F580043CBF01F5801130BD9E
:1028100001F0004545F0FE4141F470014FF0000029
:1028200030BD7FEA645C1ABF194610467FEA655CDA
:102830001CBF0B46024650EA013406BF52EA03357C
:1028400091EA030F41F4002130BD00BF90F0000F6A
:1028500004BF0021704730B54FF4806404F13204A6
:102860004FF000054FF0000150E700BF90F0000F5F
:1028700004BF0021704730B54FF4806404F1320486
:1028800010F0004548BF40424FF000013EE700BF56
:1028900042004FEAE2014FEA31014FEA02701FBFE6
:1028A00012F07F4393F07F4F81F06051704792F0B8
:1028B000000F14BF93F07F4F704730B54FF4607432
:1028C00001F0004521F0004120E700BF50EA01027D
:1028D00008BF704730B54FF000050AE050EA01022A
:1028E00008BF704730B511F0004502D5404261EB9A
:1028F00041014FF4806404F132045FEA915C3FF4DB
:10290000DCAE4FF003025FEADC0C18BF03325FEA73
:10291000DC0C18BF033202EBDC02C2F1200300FA28
:1029200003FC20FA02F001FA03FE40EA0E0021FA4D
:1029300002F11444C1E600BF70B54FF0FF0C4CF437
:10294000E06C1CEA11541DBF1CEA135594EA0C0FED
:1029500095EA0C0F00F0DEF82C4481EA030621EA28
:102960004C5123EA4C5350EA013518BF52EA033563
:1029700041F4801143F4801338D0A0FB02CE4FF015
:102980000005E1FB02E506F00042E0FB03E54FF045
:102990000006E1FB03569CF0000F18BF4EF0010E3D
:1029A000A4F1FF04B6F5007F64F5407404D25FEA39
:1029B0004E0E6D4146EB060642EAC62141EA5551EC
:1029C0004FEAC52040EA5E504FEACE2EB4F1FD0C2E
:1029D00088BFBCF5E06F1ED8BEF1004F08BF5FEAAC
:1029E000500E50F1000041EB045170BD06F000465E
:1029F00046EA010140EA020081EA0301B4EB5C040B
:102A0000C2BFD4EB0C0541EA045170BD41F4801102
:102A10004FF0000E013C00F3AB8014F1360FDEBF27
:102A2000002001F0004170BDC4F10004203C35DA03
:102A30000C341BDC04F11404C4F1200500FA05F386
:102A400020FA04F001FA05F240EA020001F0004227
:102A500021F0004110EBD37021FA04F642EB06019D
:102A60005EEA430E08BF20EAD37070BDC4F10C04C7
:102A7000C4F1200500FA04F320FA05F001FA04F28B
:102A800040EA020001F0004110EBD37041F1000177
:102A90005EEA430E08BF20EAD37070BDC4F1200582
:102AA00000FA05F24EEA020E20FA04F301FA05F2EA
:102AB00043EA020321FA04F001F0004121FA04F292
:102AC00020EA020000EBD3705EEA430E08BF20EA62
:102AD000D37070BD94F0000F0FD101F0004640009C
:102AE00041EB010111F4801F08BF013CF7D041EA1E
:102AF000060195F0000F18BF704703F00046520022
:102B000043EB030313F4801F08BF013DF7D043EAF2
:102B10000603704794EA0C0F0CEA135518BF95EAA8
:102B20000C0F0CD050EA410618BF52EA4306D1D12F
:102B300081EA030101F000414FF0000070BD50EA4E
:102B4000410606BF1046194652EA430619D094EAD8
:102B50000C0F02D150EA013613D195EA0C0F05D1C2
:102B600052EA03361CBF104619460AD181EA030116
:102B700001F0004141F0FE4141F470014FF00000CE
:102B800070BD41F0FE4141F4780170BD70B54FF069
:102B9000FF0C4CF4E06C1CEA11541DBF1CEA1355E9
:102BA00094EA0C0F95EA0C0F00F0A7F8A4EB0504CB
:102BB00081EA030E52EA03354FEA013100F08880C2
:102BC0004FEA03334FF0805545EA131343EA12638B
:102BD0004FEA022245EA111545EA10654FEA002640
:102BE0000EF000419D4208BF964244F1FD0404F5F9
:102BF000407402D25B084FEA3202B61A65EB030555
:102C00005B084FEA32024FF480104FF4002CB6EB11
:102C1000020E75EB030E22BFB61A754640EA0C0091
:102C20005B084FEA3202B6EB020E75EB030E22BFD1
:102C3000B61A754640EA5C005B084FEA3202B6EB12
:102C4000020E75EB030E22BFB61A754640EA9C00D1
:102C50005B084FEA3202B6EB020E75EB030E22BFA1
:102C6000B61A754640EADC0055EA060E18D04FEA5F
:102C7000051545EA16754FEA06164FEAC30343EAFF
:102C800052734FEAC2025FEA1C1CC0D111F4801FCC
:102C90000BD141EA00014FF000004FF0004CB6E7C5
:102CA00011F4801F04BF01430020B4F1FD0C88BF64
:102CB000BCF5E06F3FF6AFAEB5EB030C04BFB6EB6F
:102CC000020C5FEA500C50F1000041EB045170BD62
:102CD0000EF0004E4EEA113114EB5C04C2BFD4EB8F
:102CE0000C0541EA045170BD41F480114FF0000E13
:102CF000013C90E645EA060E8DE60CEA135594EA8F
:102D00000C0F08BF95EA0C0F3FF43BAF94EA0C0F91
:102D10000AD150EA01347FF434AF95EA0C0F7FF406
:102D200025AF104619462CE795EA0C0F06D152EA5A
:102D300003353FF4FDAE1046194622E750EA41063E
:102D400018BF52EA43067FF4C5AE50EA41047FF44F
:102D50000DAF52EA43057FF4EBAE12E74FF0FF3CB4
:102D600006E000BF4FF0010C02E000BF4FF0010C85
:102D70004DF804CD4FEA410C7FEA6C5C4FEA430CFE
:102D800018BF7FEA6C5C1BD001B050EA410C0CBF4D
:102D900052EA430C91EA030F02BF90EA020F0020AF
:102DA000704710F1000F91EA030F58BF994208BF16
:102DB00090422CBFD8176FEAE37040F001007047D3
:102DC0004FEA410C7FEA6C5C02D150EA013C07D12A
:102DD0004FEA430C7FEA6C5CD6D152EA033CD3D075
:102DE0005DF8040B704700BF8446104662468C466F
:102DF0001946634600E000BF01B5FFF7B7FF0028A2
:102E000048BF10F1000F01BD4DF808EDFFF7F4FFCA
:102E10000CBF012000205DF808FB00BF4DF808ED55
:102E2000FFF7EAFF34BF012000205DF808FB00BF78
:102E30004DF808EDFFF7E0FF94BF012000205DF89A
:102E400008FB00BF4DF808EDFFF7CEFF94BF01204F
:102E500000205DF808FB00BF4DF808EDFFF7C4FF48
:102E600034BF012000205DF808FB00BF4FEA41029B
:102E700012F5001215D211D56FF47873B3EB6252CC
:102E800012D94FEAC12343F0004343EA505311F0F3
:102E9000004F23FA02F018BF404270474FF0000085
:102EA000704750EA013005D111F0004008BF6FF0C3
:102EB000004070474FF00000704700BF4A0011D239
:102EC00012F5001211D20DD56FF47873B3EB625284
:102ED0000ED44FEAC12343F0004343EA505323FA90
:102EE00002F070474FF00000704750EA013002D105
:102EF0004FF0FF3070474FF000007047002101F0A5
:102F00005FBA00BF024B0146186800F00BB800BF63
:102F100038000020024B0146186801F0A7BA00BF34
:102F2000380000202DE9F04F01F10B05162D83B07C
:102F3000064640F29F8035F0070500F1BF80A942A8
:102F400000F2BC8000F0A6FAB5F5FC7FC0F09C82D0
:102F50006B0A00F0BA80042B00F28381A80900F10B
:102F6000390E4FEA4E033830C44F07EB8303A3F109
:102F700008015C68A14207D1ACE0002A80F2AC8075
:102F8000E468A14200F0A680636823F003035A1BA3
:102F90000F2AF2DDB9493C6901F1080E744500F0D1
:102FA000B381636823F003035A1B0F2A00F399814E
:102FB000002AC1F814E0C1F810E080F29E80B3F559
:102FC000007F80F06781DB0803F1010C01229B1078
:102FD00002FA03F34A6851F83C80C4F8088001EB18
:102FE000CC091A43A9F10803E3604A6041F83C4068
:102FF000C8F80C40831001249C40944200F28A805F
:10300000144206D120F003006400144200F10400D1
:10301000FAD007EBC009CC468046DCF80C108C4592
:1030200007D173E1002A80F28181C9688C4500F0E4
:103030006D814B6823F003035A1B0F2AF2DD0C4607
:10304000D1F80CC054F8088F4B1945F001054D60BC
:1030500042F00101C8F80CC03046CCF808807B6112
:103060003B61C3F80CE0C3F808E059609A5000F0E7
:1030700013FA1FE0102921D800F00CFA10250623BE
:1030800002207E4F07EB8303A3F108025C689442A1
:1030900000F045816368E168A56823F003032344D9
:1030A00030465A68E96042F001028D605A6000F0D3
:1030B000F3F90834204603B0BDE8F08F00240C2358
:1030C0002046336003B0BDE8F08F80234FF0400E00
:1030D0003F2049E770465DE72344E1685A68A568E8
:1030E00042F00102E96030468D605A6000F0D4F988
:1030F0000834204603B0BDE8F08F234430465A68B8
:1031000042F001025A6000F0C7F90834204603B0CB
:10311000BDE8F08FBC68636823F00308A84504D3BA
:10312000C5EB08030F2B00F38C80554BDFF8609143
:103130001A68D9F8003001332A4404EB080A00F079
:10314000608102F580520F3222F47F6222F00F027A
:1031500011463046019200F0A1F9B0F1FF3F8346DD
:10316000019A00F05881824500F2FC80454B1968B5
:10317000DA451144196000F05381D9F80000DFF8F6
:1031800010E101301BBFCAEB0B0A5144CEF800B06E
:1031900019601BF0070100F01781C1F10800C1F5AB
:1031A0008051834408315A44C2F30B02C2EB010937
:1031B00049463046019300F071F9431C019B00F031
:1031C0003F81CBEB00024A4442F001021968C7F884
:1031D00008B04944BC42CBF804201960DFF8A49041
:1031E00016D0B8F10F0F40F2FD806268A8F10C0311
:1031F00023F00703E01802F001024FF0050E1A4316
:103200000F2B6260C0F804E0C0F808E000F21C81F7
:103210001D4BBC681A68914288BF19601B4B1A6825
:103220009142626888BF196022F003029542A2EBC6
:10323000050301D80F2B04DC304600F02DF90024E3
:1032400038E7621943F0010345F001056560304637
:10325000BA60536000F020F90834204603B0BDE89E
:10326000F08F142B71D9542B00F2A480280B00F19D
:103270006F0E4FEA4E036E3076E600BF6804002002
:103280000009002004090020FC080020F8080020A4
:10329000740800205A0A042A5ED9142A00F2B38066
:1032A00002F15C0149005B3207EB810C57F82110F9
:1032B000DFF8DC81ACF1080C8C4500F088804A68AE
:1032C00022F00302934202D289688C45F7D1D1F8EB
:1032D0000CC07A68C4F80CC0A160CCF80840CC607F
:1032E00088E6631942F0010745F001056560304644
:1032F0004B610B61C3F80CE0C3F808E05F609A50C3
:10330000083400F0C9F8D5E64A6873E608F1010808
:1033100018F0030F0CF1080C7FF47FAE30E0DC688E
:10332000A34208BF02303FF435AEB3E60B440C466F
:103330005A68C96854F8085F42F001025A60304682
:10334000E9608D6000F0A8F8B4E603F15C0E03F1CB
:103350005B004FEA4E0307E69A0902F13901490082
:103360003832A1E7BC424A4B3FF400AF9C68626828
:1033700022F003025AE759F80839994540F0828053
:1033800010F0030F00F1FF30F5D17B6823EA04034E
:103390007B6064009C423FF6BDAE002C3FF4BAAEA9
:1033A0001C4240467FF435AE64001C4200F104002C
:1033B000FAD02EE6B3F5AA7F18D8E80B00F1780E04
:1033C0004FEA4E037730CFE54FF48051EBE6012111
:1033D000D8F80430921001FA02F21A43C8F8042017
:1033E000614677E70123CBF8043025E740F25452D9
:1033F000934220D8A80C00F17D0E4FEA4E037C309A
:10340000B2E51032A4E6542A26D81A0B02F16F0155
:1034100049006E3248E7BC68626822F0030205E7A3
:10342000CAF30B0000287FF4A8AE4244BB6842F008
:1034300001025A60ECE6FE234FF07F0E7E2093E5FA
:1034400001224FF00009C1E604F10801304601F005
:103450000DF8D9F80010DBE6B2F5AA7F05D8DA0B33
:1034600002F17801490077321EE740F254518A4256
:1034700005D89A0C02F17D0149007C3214E7FE2147
:103480007E2211E77B6884E7E808431C5B00F8E5CF
:1034900068040020704700BF704700BF38B5074C74
:1034A0000023054608462360FEF7C8FA431C00D0F7
:1034B00038BD2368002BFBD02B6038BD7409002079
:1034C00070B504460D46164645EC104B02F008F860
:1034D00096B1C5F30A53C3F16B03002B0CDD1B053A
:1034E00003F17F51002001F5401102460B4651ECDB
:1034F000100BFFF721FA70BD51EC100B70BD00BF2F
:103500002DE9F04F9FB00E46002105921A9100223E
:103510000021CDE902121996824633461A4613F865
:10352000017B2D2F00F2D580DFE807F017D3D3D32E
:10353000D3D3D3D3D3C2C2C2C2C2D3D3D3D3D3D3B0
:10354000D3D3D3D3D3D3D3D3D3D3D3D3C2D3D3D35C
:10355000D3D3D3D3D3D3D32BD3BF059B4FF0000802
:103560004FF0000943B100230693059B1E60069BA4
:1035700013B109F10043994649EC108B1FB0BDE827
:10358000F08F00230693541C19945778002FE4D031
:10359000302F00F0A48008944FF0000BA7F1300307
:1035A0004FF00008092B45462346444619D8082CFD
:1035B000C8BF08EB880805EB850203F1010307EBA0
:1035C00042021993C4BF07EB4807A7F130081F78E0
:1035D000D8BFA2F13005A7F13002092A04F1010495
:1035E000E5D95046079301F0DDFBD0F80090504636
:1035F00001F0D8FB006802F003F9079B0246494638
:10360000184602F06BF98146002800F0E2800020A5
:1036100084468646A146652F73D0452F71D000237E
:10362000B9F1000F46D0B9F1100FCCEB03032846D7
:10363000CB460A93A8BF4FF0100BFFF707F9002CF9
:1036400008BF4C46BBF1090FCDE9020113DD734BF6
:1036500003EBCB0353E91223FFF76EF9064640460E
:103660000F46FFF7F3F802460B4630463946FEF7A1
:10367000B1FFCDE90201B9F10F0F00F3D7800A9B2A
:10368000002B00F0A38040F369850A9B162B00F302
:10369000A484624901EBC301D1E90001DDE9022301
:1036A000FFF74AF9804689460DE0012306936AE751
:1036B000199333E718B9BBF1000F00F0A7824FF060
:1036C00000084FF00009059B002B3FF450AF199EF6
:1036D0004BE70023302F144606937FF45CAF6378EA
:1036E000582B00F04D83782B00F04A830134199455
:1036F0002778302FFAD0002FE1D008944FF0010B3B
:103700004CE7B9F1000F00F00582199E731C199364
:1037100077782B2F00F071822D2F00F06882002324
:103720000793A7F13003092B00F21E82302F05D139
:10373000199B013319931F78302FFAD0A7F1310369
:10374000082B3FF66CAF199B0A9319465A1C199225
:10375000A7F130034F78A7F1300109290CD80132C5
:10376000199203EB830307EB43031778A7F13001AA
:103770000929A3F13003F2D90A99521A082A00F351
:10378000238444F61F629342A8BF1346079A002A77
:103790003FF446AF5B42B9F1000F7FF444AF89E7D5
:1037A00019A81F4901F026FA00283FF4D6AE199B4C
:1037B0001C49013B19A8199301F01CFA10B9199B77
:1037C00001331993184B039300230293DDE9028917
:1037D00079E7504601F0E6FA006802F011F8199A0C
:1037E00013181993175C002C40F0EF81302F2046FE
:1037F00006D1013319931F78302F00F10100F8D062
:10380000A7F13103082B40F24884652F00F07E8138
:103810004FF00009CC464FF0010EFEE6B05C000808
:10382000445B0008485B00080000F07F0A9BCBEB7C
:10383000090B9B44BBF1000F40F36D831BF00F019C
:103840000AD0BD4B03EBC101D1E90001DDE9022340
:10385000FFF772F8CDE902013BF00F0640F02E822F
:103860000023079300954B4622460899504601F0E5
:10387000A7FB0F90002800F0CA820A9A0021002AB4
:10388000C2F10003A8BF0B460A9322EAE2739846EE
:103890000F4689460F9C5046616801F021FB834624
:1038A000002800F0E08222699DED027B0232920046
:1038B00004F10C010C308DED087B01F077FA9DEDE1
:1038C000080B1CAA1BA9504601F09CFE1A90002868
:1038D00000F056840121504601F00CFC07460028F8
:1038E00000F0C1821B9B002BC0F232810A9A454630
:1038F000D61807991C9C914A5B1A2344013B9342BA
:10390000C4F1360480F2E980D21A1F2AA4EB020423
:1039100000F32281012393400E9300230C9325444E
:10392000079B3444A6421D443346A8BF2346AB42FE
:10393000A8BF2B46002B02DDE41AED1AF61A0A9BEB
:10394000BBB139461A46504601F076FC07460028BE
:1039500000F0898201461A9A504601F0D5FB0028F2
:1039600000F081820B901A99504601F0DFFA0B9B10
:103970001A93002C08DD22461A99504601F0ACFC3F
:103980001A90002800F0FC83434643B15946424652
:10399000504601F051FC8346002800F06482002D5F
:1039A00008DD59462A46504601F096FC8346002819
:1039B00000F05982002E08DD39463246504601F0AB
:1039C0008BFC0746002800F04E825A461A99504652
:1039D00001F0FCFC8146002800F045820023C2680B
:1039E000C36039460B9201F0CFFC0028C0F2CA83B5
:1039F00000F01A843946484601F062FE55EC104B3F
:103A000000224FF0804310EE100A2946FFF710FA0B
:103A1000002867D00B9B002B00F0B2809FED427B0B
:103A20008DED0C7B039B464D0E930024454E0E9A64
:103A3000454B16409E4200F0BE81079B23B3B6F172
:103A4000D46F21D83AA3D3E90023DDE90C01FFF7B5
:103A5000EFF9B0B1DDE90C01FFF730FA002800F012
:103A6000DE82FEF7F3FECDE90C010B9B002B40F04C
:103A7000D182DDE90C1202F1004312911393DDE9CA
:103A8000124505F1D6639D1B9DED080B01F028FD45
:103A9000204653EC102B2946FEF74EFFDDE90823A4
:103AA000FEF798FDCDE902010C46079B23B9254B93
:103AB00023409E4200F0F7811A99504601F036FAF1
:103AC0005946504601F032FA3946504601F02EFA76
:103AD0004946504601F02AFADCE600230C93012304
:103AE0000E931CE7194B204629460022FEF724FFBF
:103AF0000B9BCDE90C01002B3DD101F1004310904F
:103B00001193039B0E93DDE910458FE74FF0000CF6
:103B10004FF0010E002876D1BBF1000F3FF41DAD30
:103B20008146F2E5AFF30080000000000000F03FA6
:103B30000000C0FFFFFFDF41B05C000802FCFFFF98
:103B40000000F03F0000F07F0000E07F0000E03F59
:103B50004246D51A0A9ECCE6B54AD21A012303FA88
:103B600002F20C920E93DAE619960023B9F1000FD7
:103B70007FF459AD9EE59DED0C7B8DED107BC0E78C
:103B8000DDE90212002940F0DD80C2F313030E923A
:103B9000002B40F0DD800022A64B20462946FFF78F
:103BA0003DF9002840F067830022A34B20462946B8
:103BB000FEF7C2FE0A460146CDE90C1202F10043AF
:103BC00016901793DDE9164530E74846CC46A146E6
:103BD000A7F13003092B13D8421C1F46002B40F0DD
:103BE00033821046199A531C19935778F0E7012332
:103BF0000793B31C1993B77893E500230793F8E76D
:103C00004FF0010E07E54FF000097EE5BEF1000F11
:103C10007FF4A3AC493F252F3FF69FAC01A353F897
:103C200027F000BFA13700085B3500085B350008AE
:103C30005B3500085B3500085F3D00085B35000818
:103C40005B3500085B3500085B3500085B35000814
:103C50005B3500085B3500085B3500085B35000804
:103C60005B3500085B3500085B3500085B350008F4
:103C70005B3500085B3500085B3500085B350008E4
:103C80005B3500085B3500085B3500085B350008D4
:103C90005B3500085B3500085B3500085B350008C4
:103CA0005B350008A13700085B3500085B3500086C
:103CB0005B3500085B3500085F3D0008B6F59A7F6C
:103CC00000F3A5803611012EDFF890B140F3EB82AE
:103CD000DDE9020100235F46984616F0010F08F166
:103CE00001084FEA660604D0D7E90023FEF724FE58
:103CF0000123012E07F10807EFD1002B40F0468386
:103D0000039BA3F1547303930BEBC808DDE9022373
:103D1000D8E90001FEF710FE21F000431B0D474AD1
:103D20001B059342CDE9020171D8A2F5801293429E
:103D300040F29C82424B0393002307934FF0FF33E2
:103D400002938FE5DDE90212012900F06D810E92E8
:103D50009FED357B00243B4D8DED0C7B66E619A86D
:103D6000394900F047FF00283FF4F7AB199B1B7857
:103D7000282B00F0DB82354B03930023029325E5CB
:103D8000069A01921AAB0093314A1BAB19A950460F
:103D900000F0A8FC10F0070605463FF490AC062E94
:103DA00040F08981631C199300234FF000084FF005
:103DB0000009069387E4A2F1547303939DED027BFF
:103DC000B0EE470AF0EE670A01F08AFB204653EC9A
:103DD000102B2946FEF7B0FDDDE90223FEF7FAFBC2
:103DE00021F00043CDE902011B0D1A4ADDE908016B
:103DF0001B059342CDE9140140F2EA80104B994231
:103E00002ED00F4B03934FF0FF33029354E6124B27
:103E10000393002222230292DDE90289CAF80030CE
:103E200051E400BFAFF30080000000000000F03F4D
:103E3000E2FBFFFF0000F03F0000E03F0000A07C3D
:103E4000FFFFEF7F0000F0BF505B00080000F8FFAD
:103E5000305B0008FFFF9F7C0000F07F785D00086A
:103E6000149B0133CDD14E461A98B34B03930022D5
:103E70000292DDE902892223CAF800300146504649
:103E800001F054F85946504601F050F83946504672
:103E900001F04CF80F99504601F048F83146504671
:103EA00001F044F80FE4DDE90C5631462846FEF7F0
:103EB000DDFFFEF7DBFC0B46024631462846FEF7E7
:103EC00087FB0B9B05460E468BB9029B7BB9C4F35F
:103ED000130464B990A3D3E90023FEF79FFF0028E1
:103EE0003FF4EAAD4E461A98DDE90289C6E78CA395
:103EF000D3E9002328463146FEF790FF0028F1D190
:103F00002846314688A3D3E90023FEF7A5FF002801
:103F10003FF4D2ADE6E73FF4A3ACCBF1000616F0D8
:103F20000F020AD0854B03EBC203DDE90201D3E99E
:103F30000023FEF72BFECDE9020136113FF490ACD1
:103F40001F2E38DC16F0100300F0E0816A23002EEB
:103F5000079313DDDDE90201794F0023F20704D551
:103F6000D7E90023FEF7E8FC0123761007F10807E4
:103F7000F4D1002B40F0FC81079B9BB1DDE90212DC
:103F8000C2F30A53C3F16B03002B11460ADD1F2B4A
:103F900040F3C4810022342B029240F3EF814FF0B2
:103FA0005C73039300220023DDE90201FEF72CFF7E
:103FB00000283FF457AC2223CAF800304FF0000825
:103FC0004FF00009FFF77FBB44F61F63FFF7DEBB2E
:103FD000039B03F15474039467E50A9EC9F125031A
:103FE0009E423FF723AC554CC9F10F0904EBC901C0
:103FF000C9EB0609DDE9022304EBC904D1E900019C
:10400000FEF79AFCD4E90023FEF796FC8046894629
:10401000FFF759BB9DED0C7B8DED127B2FE59FEDDE
:10402000447B8DED0C7B20E5DDE902120E92002A27
:104030007FF48EAE4E462223CAF800301A984FF015
:1040400000084FF0000919E7012A944418BF4844BA
:1040500003D188E1550081450FD009F1010909F12B
:10406000FF32082A05EB8502F4DDB9F1100FDCBF41
:1040700008EB88084FEA4808EDE7199A09F10109A9
:10408000082812DDB9F1100FD8BF08EB88084FF0EF
:104090000000D8BF03EB4808A5E5199B0893303F03
:1040A00000F1010C1A464FF0010905EB850507EBFD
:1040B0004505002097E51A9A3AB135211CA801F070
:1040C0002FFB50461A9900F031FF062E0BD8DFE87F
:1040D00006F01D39181304391D006FF000430393D7
:1040E0004FF0FF33029329077FF570AB039B43F03A
:1040F00000430393FFF76ABB0F4B03930023029324
:10410000F1E71C9B02931D9B0393ECE700230393B1
:104110000293E8E7AFF300809535A094FFFFCF3F0F
:104120009535A094FFFFDF3F35E5AF350000E03F58
:10413000000000000000F03F0000F07FB05C0008CD
:10414000585B00081B9A1D9B1C99029102F2334296
:1041500023F4801343EA02530393C4E70A9A12F14B
:104160001603FFF663AB904BA3EBC203DDE902013C
:10417000D3E90023FEF70AFD80468946FFF7A3BA7C
:104180004E4672E60B9A4D464E46DDE908897ABBEB
:10419000DDE9020160BBC1F313030C4643BB21F010
:1041A00000431B0D1B05B3F1D66F21D96B6913B901
:1041B0002B69012B1CDD31460122504601F08CF8A1
:1041C0003946064601F0E0F8002811DD079B002B78
:1041D00040F0BE80754B2340A3F580136FEA135364
:1041E0006FEA035303934FF0FF330293DDE9028933
:1041F000079BBBB16E4B159300231493DDE9142389
:1042000040464946FEF798FB03460C4680468946E1
:10421000CDE9023431B9029B23B922231A98CAF896
:1042200000302BE61A9829E60B9B4E46DDE90889FB
:1042300053B3DDE902455F4BC5F3130199422A46AA
:1042400046D00C9B53B3039A1342D1D00B9B079AD1
:10425000DDE9020153B3FFF733F902460B4640464E
:104260004946FEF7B7F980468946C1E701F1547324
:104270000393FFF7F5BA9FED487B8DED167B9FED1D
:10428000487B8DED0C7B9DE4DDE90212C2F3130344
:104290001446002BD5D10029D3D197E70E9B029A63
:1042A0001342A5D0D2E74FF0000829E5FFF708F93F
:1042B00002460B4640464946FEF78AF90022002393
:1042C00080468946FEF7A0FD00287FF4B4AE8FE754
:1042D000079B0299FBB1354B2B40B3F1D46F1AD831
:1042E0001B0DC3F16B034FF0FF3000FA03F38B4259
:1042F000A7D131498A423ED02C4B134003F580139D
:10430000039300230293DDE9028971E7002E0793EE
:104310003FF720AE46E64FF0FF33E8E74FF0FF32BD
:1043200002FA03F3029A1A4002923BE619A81CAA69
:10433000224900F077FC05287FF41DAD1D9B43F05A
:10434000FF4343F4E00303931C9B0293FFF73EBA41
:10435000164B2340B3F1D66F3FF73EAFB3F15C7F0E
:104360003FF748AF67E64846199A09F1010987E621
:10437000CDE9020100E60133BED175E5203B4FF0E7
:10438000FF3202FA03F30B4003930BE6CDE902017F
:10439000B6E400BFAFF30080000000000000E0BF03
:1043A000000000000000E03FB05C00080000F07F6B
:1043B00000005039FFFF0F00FFFFEF7F805B000818
:1043C000024B0A4601461868FFF79AB838000020E9
:1043D000F8B5234F0C460646FFF75CF8BB685D68EE
:1043E00025F00305291B01F6EF7121F47F6121F00F
:1043F0000F01A1F58054B4F5805F07DB0021304642
:10440000FFF74CF8BB682B44984204D03046FFF7C6
:1044100043F80020F8BD61423046FFF73FF8013015
:104420000DD0104BBA6819682D1B45F001053046B8
:10443000091B55601960FFF72FF80120F8BD002116
:104440003046FFF72BF8BA68831A0F2BDEDD064CD7
:104450000449246843F00103001B53600860D5E75A
:10446000680400200409002074080020002945D0B9
:104470002DE9F0410D468046FFF70CF855F8047C15
:104480006A4927F00103A5F10804E2188E68506814
:10449000B24220F0030062D0FE0750600BD455F802
:1044A000087CE41B01F1080EA56875453B446FD0FC
:1044B000E768EF60BD6015186D68ED0742D543F001
:1044C00001026260E350B3F5007F18D2DB085A1C8A
:1044D0004D6851F83270A76001209B1000FA03F379
:1044E00001EBC2001D430838E0604D6041F83240E6
:1044F000FC604046BDE8F041FEF7CEBF70475A0A67
:10450000042A53D89A0902F139077F0002F13805CD
:1045100001EB870051F827204449083890424DD0DC
:10452000516821F003018B4202D292689042F7D188
:10453000D068E060A2608460D4604046BDE8F0418D
:10454000FEF7AABF95683A4FBD4203443FD0D068FA
:10455000E86043F0010285606260E350B3E7FF0763
:10456000034407D455F8082CA41A1344A068E26841
:10457000C26090602F4A126843F00100934260606D
:104580008C60B6D32C4B40461968FFF721FFB0E78B
:1045900011184968C90744D49168D268CA600344B5
:1045A00043F0010091606060E350A2E7142A17D83D
:1045B00002F15C077F0002F15B05A9E7AA104B68D6
:1045C000012505FA02F213434B600246B1E743F0BE
:1045D00001024C610C61E560A5606260E35088E710
:1045E000542A06D81A0B02F16F077F0002F16E05FC
:1045F0008EE7B2F5AA7F06D8DA0B02F178077F00C2
:1046000002F1770584E740F25450824206D89A0CB2
:1046100002F17D077F0002F17C0579E7FE277E2508
:1046200076E743F001026260E35062E7680400202D
:1046300070040020700800200009002002694B115E
:1046400093422EDAF0B511F01F0100F1140606EBCB
:10465000820206EB830E29D056F823300EF10405B2
:10466000AA4223FA01F4C1F1200C39D900F1100754
:104670002B6803FA0CF3234347F8043F55F8043B37
:10468000AA4223FA01F4F3D8CEEB0202053A22F053
:10469000030204323244146004B10432931B9B10B1
:1046A00016E000230361002343617047724512D96D
:1046B00000F11004714651F8045B44F8045F8A422B
:1046C000F9D86FEA0E03134423F0030304339B105D
:1046D000036113B1F0BD0023036100234361F0BD0A
:1046E0003246D8E72DE9F04F8BB089460392089304
:1046F000059000F057FB0368029318461C4601F032
:104700007FF8D9F8003000909A782118302A11F8F3
:1047100001BC40F0AA8103334FF000081C4613F897
:10472000012B302A08F10108F8D0B34EB35C002BFE
:1047300000F0F08023784FF0000AF35C55462746DE
:1047400023B117F8013FF35C002BFAD1009A0299CC
:10475000384601F0C3F8002800F092803B78002D25
:1047600000F07281ED1BAA000192502B00F09180A5
:10477000702B00F08E803D46C9F80070BAF1000F32
:1047800040F0B7802B1B013B072B514604DD5B102B
:10479000072B01F10101FADC059800F0A1FB0346AB
:1047A0001433A5420490079340F2D4819946009BAC
:1047B0004FF00008C3F10103474606930FE0202F96
:1047C00000F09F803A46043715F8013CF35C5546EB
:1047D00003F00F039340A54248EA030815D915F8E2
:1047E000013C5B4505F1FF3AE9D1069B5344A342E6
:1047F000E5D31846009A0299099301F06FF8099BD6
:104800000028DCD11D46A542E9D849F8048B079B56
:10481000049AC3EB09094FEAA903136140464FEA22
:10482000431900F019FC039B1E68C0EB0900B0425D
:1048300000F3E480C0F20A810027039B019A9B6881
:104840009A4200F39780039801994368994280F255
:10485000B5805D1AAE4200F31081C268022A00F0F2
:104860008081032A00F05D81012A00F07E81059895
:10487000049900F05BFB149A0023136050203DE084
:10488000002D00F01A813B786CE7002301934FF074
:10489000010A7B782B2B00F0AC802D2B75D0791C76
:1048A0000025F35C54485A1E182A3FF664AF4A7834
:1048B000825C501E1828A3F1100301F101010BD8EE
:1048C00011F8010F03EB830302EB4303325C501E2C
:1048D0001828A3F11003F3D905B15B42019A3D46B4
:1048E0001A440F460192C9F80070BAF1000F3FF464
:1048F00049AFB8F1000F0CBF062000200BB0BDE897
:10490000F08FC9F800804FF0000809F10409424611
:10491000042759E7009D02992A46204600F0DEFF51
:10492000002836D023782746502BAED0702BACD041
:10493000C9F80070DDE7049B9B689F4280F23581D7
:104940003B46049800EB830201210133022C0361F2
:10495000516100F019819F4280F2DC8001210498AE
:10496000FFF76CFE039B019A9B6801329A42019209
:1049700040F3D3800598049900F0D8FA149A0023E4
:10498000A32013600BB0BDE8F08F0125BB78B91CE4
:1049900087E7625DB35C6719002B6AD0302A3C461A
:1049A00004D114F8013F302BFBD0F35CB3FA83FA47
:1049B0003D464FEA5A1A4FF00108C0E6012467B19C
:1049C000039BDB68022B00F08680032B00F08780BE
:1049D000012B00F0B68044F01004149B1A46049B8F
:1049E0001360089B1A46019B136020460BB0BDE87C
:1049F000F08F0025CAE700BF945B0008841B2146A6
:104A0000049800F0B1FE002835D0621E51110798BD
:104A100002F01F0350F82110012707FA03F30B429D
:104A20000AD0BA4240F39B80A11E049800F09CFE7D
:104A3000002800F094800327019B0498234421461A
:104A40000193FFF7FBFDF8E601958EE6341A049911
:104A50000598224600F040FC019B04901B1B01932B
:104A60000346143307930027E7E69C1C4FF0000829
:104A70005BE6134658E70746DEE76C1E002F4ED173
:104A800024B12146049800F06FFE07466311079A8F
:104A9000049852F8232004F01F04012303FA04F4BD
:104AA0001442294618BF47F00207FFF7C7FD039BD2
:104AB0005B680193761B022481E700997B5CF25CC2
:104AC0007D182F46002A3FF44DAE17F8013FF25CE7
:104AD000002AFAD146E6159BC3F101031593159BF5
:104AE000002B3FF478AF049B079D1F694FEA8708AE
:104AF00005EB08002B46002104E043F8041B984214
:104B00007FF619AF1A68B2F1FF3FF6D00132022CDE
:104B10001A6039D016F01F063DD121245DE7012728
:104B2000B4E7159A002A3FF4A2AE08990B60079BE0
:104B3000049901220A611A60149B1A4662201160CE
:104B4000DCE6BA077FF547AF079B1B683B43DB07F3
:104B5000C9D440E7DDF81C904FF0000855E6022765
:104B60006AE7159A002AE0D081E6AE427FF47FAE74
:104B7000012EDADD711E049800F0F6FD00283FF4E6
:104B800076AE039B5B68D0E7039B1B68013B9E42AC
:104B900024D0222421E74544C6F1200655F8040C10
:104BA00000F05AFAB042B8DAD8E6049BDDF8149067
:104BB00059684846013100F093F904990B699A1C31
:104BC000054692000C310C3000F0F0F8049948468C
:104BD00000F0ACF904952B691435B2E6731106F0B8
:104BE0001F0655F823200123B340134214BF21248C
:104BF0002224F2E630B4046808E014F8013FA3F17F
:104C00004105192D98BF2033934208D111F8012B8B
:104C1000002AF2D101340460012030BC704700202A
:104C200030BC70472DE9F04F0B68DFF8749185B008
:104C3000591102EB810113F01F0301911CBF0431D4
:104C40000191019C029003930023194644F8043C0F
:104C50009A469E46029BA4F1040C1D68E0466046FD
:104C600015F8013F23B319F80340002C43D1202B42
:104C70005DD8D645F4DD404513D2072911DCC1F1DA
:104C8000080189000668C1F1200B03465F6807FA36
:104C90000BF4344327FA01F61C6043F8046F98457F
:104CA000F4D890423AD815F8013F0821002BDAD108
:104CB000BEF1000F3DD0404501D207295CDD904296
:104CC0003BD9134650F8041B43F8041B8445F9D222
:104CD000002143F8041B9C45FBD2019B53F8043C84
:104CE0002BB962453AD05CF8043D002BF9D0052081
:104CF00005B0BDE8F08F013108290EF1010E06DD87
:104D00009042ADD9002340F8043C012104380368E7
:104D100004F00F0444EA03140460A1E70023A0F1A7
:104D2000040840F8043CF2464046194698E7292B0F
:104D30001BD0042005B0BDE8F08F039B002BCCD026
:104D4000019C039B54F8041CC3F120034FF0FF3077
:104D500020FA03F30B4044F8043CC1E7012305208B
:104D6000CCF8003005B0BDE8F08F029B01351D6026
:104D7000BEF1000F9FD1DCE7C1F108039B0005687D
:104D8000C3F1200701464E6806FA07F42C4326FAC1
:104D900003F50C6041F8045F8845F4D88FE700BF45
:104DA000945B00080048704778080020844641EA78
:104DB000000313F003036DD1403A41D351F8043B93
:104DC00040F8043B51F8043B40F8043B51F8043BE5
:104DD00040F8043B51F8043B40F8043B51F8043BD5
:104DE00040F8043B51F8043B40F8043B51F8043BC5
:104DF00040F8043B51F8043B40F8043B51F8043BB5
:104E000040F8043B51F8043B40F8043B51F8043BA4
:104E100040F8043B51F8043B40F8043B51F8043B94
:104E200040F8043B51F8043B40F8043B51F8043B84
:104E300040F8043B51F8043B40F8043B403ABDD2F3
:104E4000303211D351F8043B40F8043B51F8043B95
:104E500040F8043B51F8043B40F8043B51F8043B54
:104E600040F8043B103AEDD20C3205D351F8043B24
:104E700040F8043B043AF9D2043208D0D2071CBFF0
:104E800011F8013B00F8013B01D30B880380604619
:104E9000704700BF082A13D38B078DD010F003038F
:104EA0008AD0C3F10403D21ADB071CBF11F8013BFF
:104EB00000F8013B80D331F8023B20F8023B7BE74E
:104EC000043AD9D3013A11F8013B00F8013BF9D279
:104ED0000B7803704B7843708B7883706046704713
:104EE000C36C70B505460C464BB153F8240080B135
:104EF000026843F8242000230361C36070BD2122AF
:104F0000042100F03BFDE86403460028EDD10020B9
:104F100070BD012101FA04F6721D2846920000F0CE
:104F20002DFD0028F3D044608660E4E731B1C36C06
:104F30004A6853F82200086043F82210704700BF07
:104F4000F0B50C6983B00D46064601F1140E00273A
:104F5000DEF8000081B202FB01310B0C000C02FBF9
:104F6000003389B2013701EB0341BC424EF8041B08
:104F70004FEA1343ECDC3BB1AA68944207DA05EB35
:104F80008402013453612C61284603B0F0BD696886
:104F9000019301313046FFF7A3FF2A69023205F180
:104FA0000C01074692000C30FFF700FFF26C6968B5
:104FB000019B52F82100286042F821503D46DEE76F
:104FC0002DE9F843234C089D1F46083384FB034E0C
:104FD000DB17C3EB6E0EBEF1010F06460C46904682
:104FE00035DD012300215B009E4501F10101FADC62
:104FF0003046FFF775FF0123B8F1090F45610361E2
:1050000021DD04F109094D46444415F8013B0146F0
:10501000303B0A223046FFF793FFA542F5D109EB5A
:105020000804083C47450CDDC8EB0707274414F883
:10503000013B0146303B0A223046FFF781FFA74281
:10504000F5D1BDE8F8830A344FF00908EAE70021FA
:10505000CEE700BF398EE338030C1B04B3B900045C
:10506000102310F07F4F04BF0002083310F0704F80
:1050700004BF0001043310F0404F04BF800002332E
:10508000002807DB420003D4202070470023E8E714
:10509000581C704718467047036813F0070207D082
:1050A000D90720D49A0720D49B08036002207047B8
:1050B00099B209B91B0C102213F0FF0F04BF1B0A91
:1050C0000832190704BF1B090432990704BF9B0863
:1050D0000232D90704D45B0801D120207047013285
:1050E000036010467047002070475B080360012092
:1050F000704700BF10B50C460121FFF7F1FE0122F9
:105100004461026110BD00BF2DE9F04F0D691769C0
:10511000BD4283B00C46164604DA2A4634463D4664
:105120000E461746A368616805EB07089845C8BF97
:105130000131FFF7D5FE00F1140C0CEB8809CC45CA
:10514000009005D26346002143F8041B9945FBD823
:1051500006F1140202EB870A04F11403524503EB33
:10516000850E54D2CDF80490994652F8043B1FFAAC
:1051700083FBBBF1000F20D000204F46664605465A
:1051800000E01E4657F8044B3068A1B283B20BFB17
:105190000131240C000C4B190BFB040000EB1340F5
:1051A00099B2334641EA0041BE454FEA104543F803
:1051B000041BE6D8756052F8043C5FEA134B20D01C
:1051C000DCF80030674618464D46002100E03746BF
:1051D0002C88000C0BFB040001449CB23E4644EAC0
:1051E000014346F8043B786855F8044B83B2240C1D
:1051F0000BFB043404EB1143AE454FEA1341E6D8F0
:105200007B6092450CF1040CAFD8DDF80490B8F146
:10521000000F0BDD59F8043CA9F104091BB105E0AE
:1052200059F8043D13B9B8F10108F9D10098C0F854
:10523000108003B0BDE8F08F12F003032DE9F041B8
:10524000144607462ED10E46A4101CD0BD6C95B353
:10525000E3074FF0000806D4641014D02868A8B102
:105260000546E307F8D52A4631463846FFF74CFF96
:10527000B6B17268FB6C641053F82210316043F8C9
:1052800022600646EAD13046BDE8F0812A4629462A
:105290003846FFF739FF2860C0F800800546E0E790
:1052A0000646D9E75A1E0B4D002355F82220FFF77A
:1052B00047FE0646C8E701213846FFF711FE40F2D7
:1052C000712101220023416102610546B864036037
:1052D000BEE700BFA45C00082DE9F04791460A69CB
:1052E0008B684FEA691404EB020808F101059D423E
:1052F0000E468246496804DD5B009D4201F10101D2
:10530000FADC5046FFF7ECFD002C00F1140238DD0A
:1053100002EB8403002142F8041B9342FBD1346961
:1053200006F1140119F01F0901EB840E21D0C9F117
:10533000200200240F6807FA09FC4CEA04049C468A
:1053400043F8044B51F8044B8E4524FA02F4F1D88B
:10535000CCF804400CB108F10205DAF84C30726860
:10536000013D53F822100561316043F82260BDE829
:10537000F087043B51F8042B43F8042F8E45F9D8ED
:10538000EBE71346CBE700BF02690B69D21A13D1D2
:105390009B0014301431194410B4034401E09842C6
:1053A0000CD253F8044D51F8042D9442F7D009D390
:1053B00001205DF8044B70471046704700205DF8EF
:1053C000044B70474FF0FF30F3E700BF2DE9F8437F
:1053D0000B690F4611695B1A002B904617D18900A3
:1053E00007F1140208F114055318294401E09A4208
:1053F0005ED253F8046D51F8044DA642F7D060D246
:105400003B46144647464FF00109984606E05DDBEF
:1054100007F1140502F114044FF000097968FFF751
:105420005FFDD8F810303E69C0F80C9004EB830C97
:10543000A64605EB860700F1140400235EF8041B62
:1054400055F8048B8AB213FA88F3090C9A1AC1EB47
:10545000184303EB224392B242EA0342F44544F874
:10546000042B4FEA2343E9D8AF4217D9A446294673
:1054700051F804EB13FA8EF2131403EB1E4392B2AD
:1054800042EA03428F424CF8042B4FEA2343EFD801
:10549000ED433D4425F0030504352C44043C22B97A
:1054A00054F8043D013E002BFAD00661BDE8F883B4
:1054B0000021FFF715FD0122002302614361BDE8D1
:1054C000F8832C464FF000091546A7E73B4607F145
:1054D000140408F1140547464FF0010998469DE76A
:1054E000134B10EE902A1A40A2F15073002B04DDEA
:1054F0000020194641EC100B70475B421B15132B23
:105500000DDD143B1E2BDDBFC3F11F03012202FA88
:1055100003F301230021184641EC100B70474FF4B0
:105520000022002042FA03F141EC100B704700BF4B
:105530000000F07F2DE9F041066900F1140808EB46
:10554000860656F8047C3846FFF786FDC0F1200336
:105550000A280B60A6F1040318DC9845C0F10B0281
:1055600038BF56F8083C27FA02F100F1150041F067
:105570007F5534BFD340002307FA00F045F44015AF
:1055800040EA030445EC104BBDE8F081984520D279
:10559000B0F10B0356F8082C1ED007FA03F040F0C8
:1055A0007F57C3F1200EA6F1080147F4401722FAF5
:1055B0000EF0884547EA000520D256F80C1C02FA86
:1055C00003F021FA0EF31843044645EC104BBDE8F6
:1055D000F0810B3809D1024647F07F5545F440155C
:1055E000144645EC104BBDE8F08107FA00F040F09E
:1055F0007F55002045F440150446E6E702FA03F023
:105600000446E2E72DE9F04357EC106B83B088467F
:1056100001213C46C7F30A551746FFF761FCC4F366
:10562000130481460DB144F4801401941EB302A802
:1056300040F8086DFFF730FD002834D19DE80C00DC
:10564000C9F81420002B0CBF01210221C9F8183021
:10565000C9F81010DDB909EB8103A0F23240C8F897
:1056600000001869FFF7F8FCC0EB411038604846AD
:1056700003B0BDE8F08301A8FFF70EFD019BC9F858
:10568000143001212030C9F81010002DE3D0A5F20C
:1056900033450544C0F13500C8F80050386048462D
:1056A00003B0BDE8F0839DE80C00C0F1200103FACF
:1056B00001F10A43C3400193C9F81420C2E700BFB7
:1056C0002DE9F04383B0884669468146FFF732FFF3
:1056D000404601A955EC104BFFF72CFF9DE80A004E
:1056E000D9F81020D8F81000C91A101A01EB40138D
:1056F000002B57EC106B0DDD05EB03510D463246C8
:105700003B4620462946FDF741FA41EC100B03B019
:10571000BDE8F083A7EB035910EE106A4F46EEE7A1
:1057200070B4146902F1140301394E1103EB8404BF
:105730000136A34200EB86060CD2011F53F8045B2E
:1057400041F8045F9C42F9D8A31A153B23F00303E8
:1057500004331844864204D9002340F8043B8642AF
:10576000FBD870BC704700BF03694A11934210B464
:1057700000F1140410DA04EB83039C4221D253F8A5
:10578000040C043B18B115E053F8042D92B99C4267
:10579000FAD35DF8044B704710DD11F01F010DD0F6
:1057A00054F8220020FA01F303FA01F1884204EBD5
:1057B0008203E2D001205DF8044B704704EB8203C2
:1057C000DBE70020E5E700BF00000000000000006C
:1057D00000000000000000000000000000000000C9
:1057E00000000000000000000000000000000000B9
:1057F00000000000000000000000000000000000A9
:1058000090F800F06DE9024520F007016FF0000C00
:1058100010F0070491F820F040F049804FF00004A8
:105820006FF00700D1E9002391F840F000F1080083
:1058300082FA4CF2A4FA8CF283FA4CF3A2FA8CF3BB
:105840004BBBD1E9022382FA4CF200F10800A4FA22
:105850008CF283FA4CF3A2FA8CF3E3B9D1E9042376
:1058600082FA4CF200F10800A4FA8CF283FA4CF3AD
:10587000A2FA8CF37BB9D1E9062301F1200182FA67
:105880004CF200F10800A4FA8CF283FA4CF3A2FA6D
:105890008CF3002BC6D0002A04BF04301A4612BA7B
:1058A000B2FA82F2FDE8024500EBD2007047D1E97E
:1058B000002304F00305C4F100004FEAC50514F00D
:1058C000040F91F840F00CFA05F562EA05021CBFDE
:1058D00063EA050362464FF00004A9E7002A41D0BD
:1058E00040EA010313F00303F0B425D1032A23D9BE
:1058F00004680D68AC421FD1043A35D0A4F10135DB
:1059000025EA040414F0803F31D1071D0D1D0DE080
:1059100057F8043B0E68A3F10134B34224EA0304B0
:105920000AD1043A20D014F0803F23D1032A29461B
:10593000384605F10405EBD803780C789C4202F157
:10594000FF320CD182B114B916E06AB17BB110F804
:10595000013F11F8014FA34202F1FF32F5D0181BAD
:10596000F0BC7047104670471046F0BC70471846B0
:10597000F0BC70470020F3E72046F1E710B502FBCA
:1059800001F1FDF7CFFA0446D8B150F8042C22F00B
:105990000302043A242A18D8132A14D900231B2AF4
:1059A0000360436016D9242A8360C36011BF00F1ED
:1059B00010020361436100F1180200231360536079
:1059C0009360204610BD0246F7E7002100F006F87C
:1059D000204610BD00F10802EFE700BF70B4840755
:1059E00046D0541E002A41D0CDB2034602E0621ECA
:1059F000E4B3144603F8015B9A07F8D1032C2ED9BF
:105A0000CDB245EA05250F2C45EA054519D903F124
:105A100010022646103E0F2E42F8105C42F80C5C35
:105A200042F8085C42F8045C02F11002F2D8A4F1DA
:105A3000100222F00F0204F00F041032032C134462
:105A40000DD91E462246043A032A46F8045BFAD8CA
:105A5000221F22F003020432134404F003042CB189
:105A6000C9B21C4403F8011BA342FBD170BC7047B0
:105A700014460346C2E700BF414949494453000068
:105A8000454E445F53544F500A000000520A000034
:105A90004172726179206F7574206F66206D656D3B
:105AA0006F72792C207265616C6C6F636174696EC2
:105AB000672E204F6C64206C656E6774683A2025F1
:105AC000642C206E6577206C656E6774683A2025BB
:105AD000640A000025640000522825692C25692CE1
