:020000040800F2
:1000000000A00020A1090008990600089D0600082C
:10001000A1060008A5060008A906000800000000C7
:10002000000000000000000000000000AD06000815
:10003000B106000800000000B5060008C50700086A
:10004000E5090008E5090008E5090008E5090008D8
:10005000E5090008E5090008E5090008E5090008C8
:10006000E5090008E5090008E5090008E5090008B8
:10007000E5090008E5090008E5090008E5090008A8
:10008000E5090008E5090008E5090008E509000898
:10009000E5090008E5090008E5090008E509000888
:1000A000E5090008E5090008E5090008E509000878
:1000B000E5090008E5090008E5090008E509000868
:1000C000E5090008E5090008E5090008E509000858
:1000D000E5090008E5090008ED0500084D060008DF
:1000E000E5090008E5090008E5090008E509000838
:1000F000E5090008E5090008E5090008E509000828
:10010000000000000000000000000000E5090008F9
:10011000E5090008E5090008E5090008E509000807
:10012000E5090008E5090008E5090008E5090008F7
:10013000E5090008E50900080000000000000000D3
:10014000E5090008E5090008E509000800000000CD
:10015000000000000000000000000000000000009F
:100160000000000000000000E5090008E5090008A3
:10017000E509000800000000000000000000000089
:1001800000000000E509000829B9054A536923EA7F
:10019000000050617047024B5A6910435861704724
:1001A0000010024029B9054A936923EA00009061D2
:1001B0007047024B9A6910439861704700100240E3
:1001C00029B9054AD36923EA0000D0617047024B80
:1001D000DA691043D86170470010024030B5012140
:1001E0008BB00846FFF7ECFF01214FF40030FFF71A
:1001F000CBFF1E4A002512880392472302A94FF025
:100200008040ADF80830ADF81050ADF80A5000F05D
:10021000E7FA174BADF820501B88079301246023A1
:1002200005A94FF080400593ADF8184000F07EFB23
:10023000022369464FF0904000938DF804308DF80A
:1002400007508DF8054000F037FA224621464FF05E
:10025000904000F08DFA4FF080404FF4D04321469B
:10026000C36100F011FB0BB030BD00BF02000020E5
:1002700000000020064B93FBF0F001384FF0804364
:1002800000EBD07252108121D8629A6319807047B6
:1002900040420F002DE9F04101218AB00420FFF710
:1002A0008FFF01214FF48010FFF76EFF1C4B1D4D97
:1002B0001B88039300242846472302A9ADF8083081
:1002C000ADF80A40ADF8104000F08AFA164B174F0F
:1002D0001B88079301262846602305A905934FF044
:1002E0000208ADF82040ADF8186000F0DBFA4FF4DA
:1002F00080533846694600938DF807408DF80560B5
:100300008DF8048000F0D8F9424638460C2100F000
:100310002FFA3146284600F0B7FA0AB0BDE8F0815E
:10032000020000200008004000000020000C0048EF
:10033000074B93FBF0F00138064A00EBD0735B10DB
:10034000D062536313889BB243F00103138070475C
:1003500040420F00000800402DE9F04101218AB021
:100360000220FFF72DFF01214FF48020FFF70CFF43
:100370001C4B1D4D1B88039300242846472302A9CC
:10038000ADF80830ADF80A40ADF8104000F028FA9A
:10039000164B174F1B88079301262846602305A993
:1003A00005934FF00208ADF82040ADF8186000F05A
:1003B00079FA10233846694600938DF807408DF886
:1003C00005608DF8048000F077F942463846042134
:1003D00000F0CEF93146284600F056FA0AB0BDE8E2
:1003E000F08100BF02000020000400400000002057
:1003F00000040048074B93FBF0F00138064A00EB7D
:10040000D0735B10D062536313889BB243F0010337
:100410001380704740420F0000040040F0B50121F6
:100420008BB04FF40050FFF7BDFE01214FF40020C8
:10043000FFF7AAFE1B4B1C4D1B8803930024284684
:10044000472302A9ADF80830ADF80A40ADF81040D6
:1004500000F0C6F9154B164F1B8807930126284656
:10046000602305A90593ADF82040ADF8186000F0B1
:1004700019FA022338464FF4807269468DF8043029
:1004800000928DF807408DF8056000F015F93846A8
:100490000422082100F06CF93146284600F0F4F9F6
:1004A0000BB0F0BD0200002000340140000000202D
:1004B00000080048074B93FBF0F00138064A00EBB8
:1004C000D0735B10D062536313889BB243F0010377
:1004D0001380704740420F000034014010B43E4C7E
:1004E0003E4BD4F888003E4A3E4940F47000C4F8C0
:1004F0008800186840F001001860586802405A608F
:100500001A6822F0847222F480321A601A6822F487
:1005100080221A605A6822F4FE025A60DA6A22F0D7
:100520000F02DA62186B83B00022014019639A60EF
:10053000009201921A6842F480321A601A4603E06F
:10054000009BB3F5A06F09D0136803F40033019347
:10055000009B01330093019B002BF1D01F4B1B68C4
:1005600013F4003318BF01230193019B012B07D023
:10057000194B4FF000629A6003B05DF8044B70476E
:10058000194A164B122111605A685A605A685A600B
:100590005A6842F480625A605A6822F47C125A60A7
:1005A0005A6842F4E8125A601A6842F080721A607F
:1005B0001A461168094B8901FBD55A6822F00302DB
:1005C0005A605A6842F002025A601A46536803F0B1
:1005D0000C03082BFAD1CBE700ED00E0001002403D
:1005E0000CC07FF8CCFC00FF00200240F8B5124D93
:1005F0002C7804B1F8BD2021104800F0F9F900284A
:10060000F8D00F4E0D48377800F0EEF90D4A3378E8
:10061000D05512780133DBB2732A337005D0112B19
:10062000E8D1012334702B70E4E7074A34700123CA
:1006300014702B70F8BD00BF902F002000440040C4
:10064000912F0020742F002024000020F8B50E4CBC
:10065000257805B1F8BD20210C4800F0C9F9002823
:10066000F8D00B4E0948377800F0BEF93378094AC4
:100670000133DBB2042BD05501D03370F8BD012318
:1006800035702370E6E700BF91000020004800406D
:1006900090000020882F0020704700BFFEE700BFB9
:1006A000FEE700BFFEE700BFFEE700BF704700BFE8
:1006B000704700BF704700BF00222DE9F047134686
:1006C000D1F800E001274FF0030C04E00133102BB8
:1006D00002F1020225D007FA03F434EA0E05F5D13F
:1006E0000E79751E012D0CFA02F51CD9ED43046834
:1006F00091F8078025400560056806FA02F42C434E
:100700000460C4680CFA02F524EA0504C460C568F4
:1007100008FA02F401332C43102BC46002F10202E8
:10072000D9D1BDE8F087D0F808A091F8058091F8FC
:1007300006900CFA02F5ED430AEA050AC0F808A093
:10074000D0F808A008FA02F848EA0A08C0F80880B9
:10075000B0F804801FFA88F828EA04048480B0F80E
:10076000048009FA03F444EA0804A4B28480BEE7D2
:10077000CB0800EB830001F0070110B48900046A84
:100780000F238B4024EA03030362036A5DF8044BE2
:100790008A4042EA03010162704700BF08B500F0D9
:1007A00013F840F2DC50FFF765FD40F2DC50FFF734
:1007B000BFFD40F2DC50FFF71DFE40F2DC50FFF7BA
:1007C00079FEEEE7704700BF08B5FFF707FDFFF7BA
:1007D00061FDFFF7C1FDBDE80840FFF71FBE00BF88
:1007E000264A038890429BB238D002F500629042BC
:1007F00034D0B0F1804F31D0A2F5983290422DD054
:1008000002F58062904229D01D4A90422DD002F517
:100810008062904229D00A8970B423F44073174C47
:100820004E680D889BB21343A0420380C6620585C3
:100830000ED0144B98420BD003F54063984207D07A
:1008400003F58063984203D003F58063984201D199
:100850008B7A03860123436170BC70474A8823F07A
:1008600070031343064A9042D1D103800B884A6833
:10087000C262038501234361704700BF002C014021
:100880000010004000340140038829B923F001031F
:100890001B041B0C038070479BB243F001030380D1
:1008A000704700BFF0B5046A8B89B1F804E00F68A7
:1008B0001C4E24F001040462046A4568826924F035
:1008C000020422F48032234322F07302B0424EEA43
:1008D000030342EA070214D0134CA04211D004F5DE
:1008E0004064A0420DD004F58064A04209D004F514
:1008F0008064A04205D089684560826141630362DB
:10090000F0BDCE89B1F810E0CF8823F0080333435F
:1009100025F440744E8A23F004034EEA04053B4359
:100920003543E8E7002C014000340140F0B5046A8B
:100930008D898B880F68184E24F010040462046AB5
:10094000D0F804E0826922F0807224F020042B4366
:1009500022F4E642B04244EA031342EA072209D0F5
:100960000E4CA04206D08968C0F804E08261816321
:100970000362F0BDCD890E8A4C8A23F0800343EADE
:100980000513CD882EF4406E23F04003344343EA30
:1009900005134EEA840EE6E7002C014000340140C6
:1009A000002103E00A4B5B584350043109480A4BCD
:1009B00042189A42F6D3094A02E0002342F8043B67
:1009C000074B9A42F9D3FFF789FDFFF7E7FE70471F
:1009D000FC090008000000202C0000202C00002052
:1009E000942F0020FEE70000808CC0F308007047C1
:0C09F000C3690B4214BF012000207047B7
:1009FC003200640008005E0350C300000101AF0028
:100A0C000F272C01303132333435363738394142E7
:0C0A1C0043444546010000000A000000B1
:0400000508000000EF
:00000001FF
