:020000040800F2
:1000000000A000205D100008A50B0008A90B000847
:10001000AD0B0008B10B0008B50B00080000000094
:10002000000000000000000000000000B90B000804
:10003000BD0B000800000000C10B0008050D000802
:10004000A1100008A1100008A1100008A1100008CC
:10005000A1100008A1100008A1100008A1100008BC
:10006000A1100008A1100008A1100008A1100008AC
:10007000A1100008A1100008A1100008A11000089C
:10008000A1100008A1100008A1100008A11000088C
:10009000A1100008A1100008A1100008A11000087C
:1000A000A1100008A1100008A1100008A11000086C
:1000B000A1100008A1100008A1100008A11000085C
:1000C000A1100008A1100008A1100008A11000084C
:1000D000A1100008A1100008090900081D0B000864
:1000E000A1100008A1100008A1100008A11000082C
:1000F000A1100008A1100008A1100008A11000081C
:10010000000000000000000000000000A110000836
:10011000A1100008A1100008A1100008A1100008FB
:10012000A1100008A1100008A1100008A1100008EB
:10013000A1100008A110000800000000000000004D
:10014000A1100008A1100008A11000080000000084
:10015000000000000000000000000000000000009F
:100160000000000000000000A1100008A11000081D
:10017000A1100008000000000000000000000000C6
:1001800000000000A1100008464B474A1988474864
:10019000474B2DE9F041474C1788D4F800C01A6846
:1001A0000588D4F804E04448C4F804C07F1A0CEB76
:1001B000070605FB02F1C5F5806507FB05110EEB8F
:1001C000060580FB05802760A0EBE575C4F808E014
:1001D0004FF47A70394CDFF810C15A6000FB05F01B
:1001E00020600029364CCCF80050B8BF01F2FF3136
:1001F000B4F90080DFF8F4E0324C33488912C2EBE6
:10020000010C42F2107218FB02F206FB02F28EFBA6
:1002100002E6D217C2EBA6322C4E1960366823686C
:10022000B0F9000063604FF0640E134472429342D1
:100230000EFB0CF100FB01F123602548BCBFC6F1A9
:10024000010323609E4201601BDA224B1878731E63
:100250002360D0B9204B214A1B78B2F90000204E10
:100260005A4205FB00F09742306001DD9F4212DBED
:1002700023681C4A18440844BDE8F041106000F0AF
:1002800011BF144800780028E4D09A42C4BFC6F1D8
:1002900001062660DEE7134B0020BDE8F041186040
:1002A00000F000BFA4000020380000202E00002035
:1002B0006400002074000020565555556C00002045
:1002C0008E000020580000208C000020300000200C
:1002D00060000020340000202C00002036000020A8
:1002E00054000020880000207000002089B5F81418
:1002F000A54A536803F00C03042BF0B500F00F81FE
:10030000082B00F0F980A14C046003B100239E4D3E
:100310009F496A68C2F3031211F802E05FFA8EFE89
:1003200024FA0EF242606E68C6F302268E5D22FA4F
:1003300006F686606F68C7F3C227CF5DFFB2FA404A
:10034000C260ED6AC5F3041501EB45052D8AADB217
:1003500015F0100F1CBFB3FBF5F505618A4D08BF02
:100360000461ED6AC5F3442501EB4501098A89B2B0
:10037000CD0644BFB3FBF1F14161834958BF4461ED
:10038000096BCD065CBF814981617F4948BF8461AB
:10039000096B89065CBF7D49C1617B4948BFC46167
:1003A0000D6BED0538D5A34200F0BF8002620B6BE8
:1003B0004262754B196B890738D18262724B1A6B96
:1003C00012F4403F4AD1C6626F4B1A6B12F4402FB1
:1003D0005DD106636C4B1A6B12F4401F70D14663FB
:1003E000694B1A6B12F4400F00F084801A6B02F410
:1003F0004002B2F5800F00F0AD801A6B02F44002AB
:10040000B2F5000F00F0BB801B6B03F44003B3F5A3
:10041000400F00F0A180F0BD0262096B8D05C7D5C9
:10042000A342C5D1BE45C3D1630087E01A6B02F079
:100430000302012A00F084801A6B02F00302022AF0
:1004400000F091801B6B03F00303032B04BF4F4BA1
:1004500083624D4B1A6B12F4403FB4D01A6B02F416
:100460004032B2F5803F5ED01A6B02F44032B2F5F2
:10047000003F74D01B6B03F44033B3F5403F04BF1F
:10048000424BC362404B1A6B12F4402FA1D01A6B3F
:1004900002F44022B2F5802F56D01A6B02F44022AB
:1004A000B2F5002F67D01B6B03F44023B3F5402F48
:1004B00004BF364B0363344B1A6B12F4401F8ED0CB
:1004C0001A6B02F44012B2F5801F3BD01A6B02F493
:1004D0004012B2F5001F4AD01B6B03F44013B3F572
:1004E000401F04BF294B4363274B1A6B12F4400F84
:1004F0007FF47CAF8663F0BD53685468C3F38343D5
:10050000991CE30322D5D36A204A03F00F03013379
:10051000B2FBF3F301FB03F303601C46F7E61B4C4D
:1005200004600023F3E6C4624EE7BE457FF43EAFAD
:1005300063000362096B8F057FF53AAF436238E7CA
:1005400084623BE744634BE7046343E7114B03FBDF
:1005500001F3E1E78463F0BD0C4B8363F0BD4FF41E
:100560000043C36230E74FF40043836226E74FF451
:100570000043436334E74FF4004303632AE74FF437
:1005800000438363F0BD00BF0010024000127A00F8
:100590000000002000093D0029B9054A536923EAFB
:1005A000000050617047024B5A6910435861704710
:1005B0000010024029B9054AD36923EA0000D0613E
:1005C0007047024BDA691043D8617047001002404F
:1005D00030B5012189B00846FFF7ECFF00246946D9
:1005E0004FF0804001250194ADF80040ADF808407F
:1005F000ADF8024000F096FC602303A94FF0804064
:1006000003930594ADF81840ADF8105000F0ECFCE1
:100610004FF080404FF4D0432946C36100F0D6FC30
:1006200009B030BD01214FF0804000F0CFBC00BFC9
:1006300000214FF0804000F0C9BC00BF4FF0804364
:1006400028B141088122D86299631A8070476422D8
:100650008121DA629A631980704700BF10B43E4C62
:100660003E4BD4F888003E4A3E4940F47000C4F83E
:100670008800186840F001001860586802405A600D
:100680001A6822F0847222F480321A601A6822F406
:1006900080221A605A6822F4FE025A60DA6A22F056
:1006A0000F02DA62186B83B00022014019639A606E
:1006B000009201921A6842F480321A601A4603E0EE
:1006C000009BB3F5A06F09D0136803F400330193C6
:1006D000009B01330093019B002BF1D01F4B1B6843
:1006E00013F4003318BF01230193019B012B07D0A2
:1006F000194B4FF000629A6003B05DF8044B7047ED
:10070000194A164B122111605A685A605A685A6089
:100710005A6842F480625A605A6822F47C125A6025
:100720005A6842F4E8125A601A6842F080721A60FD
:100730001A461168094B8901FBD55A6822F0030259
:100740005A605A6842F002025A601A46536803F02F
:100750000C03082BFAD1CBE700ED00E000100240BB
:100760000CC07FF8CCFC00FF0020024070B50121D6
:100770008CB01C4C4FF40030FFF71CFF02A800F0B7
:100780002FFD02A9204600F01BFD00254FF4E132A9
:100790000C2306920795089509950B950A93A36873
:1007A00043F04003A360204606A900F0ABFC2046BE
:1007B00001220D4900F02CFD0126262301A88DF809
:1007C00004308DF806508DF807608DF8056000F054
:1007D00073FB064B4022314620465A6000F006FD6E
:1007E0000CB070BD004400400501050000E100E0D0
:1007F000014608B5044800F003FD4021024800F01E
:1008000023FD0028F9D008BD00440040F8B5394B5D
:10081000394C1D8845F30B1637115420FFF7E8FFBC
:10082000C7F3031307F00F07E05C06F00F06FFF7AE
:10083000DFFF05F00F05E05DFFF7DAFFA05DFFF7D2
:10084000D7FF605DFFF7D4FF2C4B1D8845F30B16D7
:1008500037115320FFF7CCFFC7F3031307F00F073F
:10086000E05C06F00F06FFF7C3FF05F00F05E05D43
:10087000FFF7BEFFA05DFFF7BBFF605DFFF7B8FFAE
:100880001F4BB3F900502E1137115820FFF7B0FF5E
:10089000C7F3031307F00F07E05C06F00F06FFF73E
:1008A000A7FF05F00F05E05DFFF7A2FFA05DFFF7D2
:1008B0009FFF605DFFF79CFF124B1D8845F30B16F1
:1008C00037115220FFF794FFC7F3031307F00F0708
:1008D000E05C06F00F06FFF78BFF05F00F05E05D0B
:1008E000FFF786FFA05DFFF783FF605DBDE8F8407E
:1008F000FFF77EBF900000203C000020A4000020F5
:10090000B22F002038000020F8B5124D2C7804B129
:10091000F8BD2021104800F097FC0028F8D00F4EB9
:100920000D48377800F070FC0D4A3378D0551278B6
:100930000133DBB2732A337005D0112BE8D10123C8
:1009400034702B70E4E7074A3470012314702B7065
:10095000F8BD00BFB42F002000440040B52F002098
:10096000982F0020920000202DE9F04FDFF824E1BD
:100970009EF80020012A7FD1404B5D789F7893F844
:1009800004C0197893F805B0187B93F806A093F883
:10099000099093F80D80303DC5EB4514303F05EBD1
:1009A000840407EB8707ACF1300C6B290CEBC40C0B
:1009B00007EB8704DF7808BF31499D7B08BF0A70C9
:1009C000303F0CEB8404997A2E4A93F808C007EB69
:1009D000870704EB4707178030391A7CABF1300BDF
:1009E00001EB8101A0F1300401EB8106CBEB4B1749
:1009F000A2F13001D879DA7ADB7BAAF1300AACF1C6
:100A0000300C0BEB870B0AEB8A0A0AEB8A0A0CEB19
:100A1000CB0B303B30380BEB8A0703EB830C00EB3E
:100A20008000194BA9F13009A8F1300807EB40000C
:100A30001880303DC9EB4910C8EB4813303A08EB39
:100A4000830305EB850509EB800004EBC00002EB96
:100A5000820A05EB850501EBC30202EB850300EB7F
:100A600086010A4C0A4801EB4A0203EB4C030021C1
:100A7000228003808EF80010BDE8F08F982F0020B0
:100A800092000020360000208E0000208C00002004
:100A900038000020B42F002030B501218DB01C4C4F
:100AA0004FF48020FFF786FD02A800F099FB02A911
:100AB000204600F085FB00230C224FF4E131069123
:100AC0000A920793089309930B93A36843F040039A
:100AD000A360204606A900F015FB204601220D491F
:100AE00000F096FB0125272301A88DF804308DF82E
:100AF00007508DF805508DF8065000F0DDF9064BD3
:100B00008022294620465A6000F070FB0DB030BDAF
:100B1000004800400501050000E100E0F8B50E4C7A
:100B2000257805B1F8BD20210C4800F08DFB002888
:100B3000F8D00B4E0948377800F066FB3378094A45
:100B40000133DBB2042BD05501D03370F8BD012343
:100B500035702370E6E700BFB50000200048004074
:100B6000B4000020AC2F00200A4B1A78012A10D1C3
:100B700070B4094A094D167890785178D278084CAB
:100B800002EB0022002001EB062118702980228050
:100B900070BC7047B5000020AC2F0020A4000020DE
:100BA000B22F0020704700BFFEE700BFFEE700BF86
:100BB000FEE700BFFEE700BF704700BF704700BF01
:100BC000704700BF00222DE9F0471346D1F800E03E
:100BD00001274FF0030C04E00133102B02F1020255
:100BE00025D007FA03F434EA0E05F5D10E79751E07
:100BF000012D0CFA02F51CD9ED43046891F8078029
:100C000025400560056806FA02F42C430460C468B8
:100C10000CFA02F524EA0504C460C56808FA02F477
:100C200001332C43102BC46002F10202D9D1BDE87C
:100C3000F087D0F808A091F8058091F806900CFA9A
:100C400002F5ED430AEA050AC0F808A0D0F808A0AA
:100C500008FA02F848EA0A08C0F80880B0F80480E8
:100C60001FFA88F828EA04048480B0F8048009FA9E
:100C700003F444EA0804A4B28480BEE7CB0800EB86
:100C8000830001F0070110B48900046A0F238B4030
:100C900024EA03030362036A5DF8044B8A4042EAD4
:100CA00003010162704700BF08B500F0F3F8074C7C
:100CB0004FF0804300251D8026462378012BFCD170
:100CC00072B6FFF7A3FD357062B6F6E7500000205C
:100CD000202383F31188704710B4074C074B084852
:100CE000002284F8232007211A605DF8044B586025
:100CF0009A601960704700BF00ED00E010E000E06E
:100D000080FC0A0010B5154A15491388097801338B
:100D10009BB2012913800ED00024124B1480204670
:100D20001C6000F0BFF9104B1C80FFF71DFFBDE8F1
:100D30001040FFF719BE092B07D90B480B4C03884D
:100D400021700133002103801180FFF71DFAFFF7A6
:100D50000BFFBDE81040FFF707BE00BFB62F002015
:100D60009200002088000020900000205000002009
:100D70002DE9F047012188B04FF400300124FFF73E
:100D80000BFC022600254FF0040869464FF0904006
:100D9000CDF800808DF804608DF805408DF8065080
:100DA000FFF710FF314607224FF09040FFF766FF34
:100DB0004FF0080A69464FF09040344F8DF80460B8
:100DC0008DF80750CDF800A0FFF7FCFE07220321A5
:100DD0004FF09040FFF752FF21464FF48010FFF78D
:100DE000DBFB4FF4807338460DEB0A0102938DF85C
:100DF0000C608DF80D408DF80E50FFF7E3FE514664
:100E000038460722FFF73AFF4FF400730DEB0A0153
:100E1000384602938DF80C608DF80F50FFF7D2FE24
:100E2000072238460921FFF729FF21464FF40030F9
:100E3000FFF7B2FB04A94FF09040DFF854900496FE
:100E40008DF814608DF815408DF81750FFF7BAFE35
:100E5000224621464FF09040FFF710FF21464FF405
:100E60000020FFF799FB484606A9CDF818808DF8B9
:100E70001C408DF81D408DF81E508DF81F50FFF757
:100E8000A1FEA9F8148008B0BDE8F087000C004866
:100E90000008004808B5FFF76BFFFFF71DFFFFF7DD
:100EA000FBFDFFF763FCFFF793FBFFF711FF00204B
:100EB000BDE8084000F0F6B8C3785BB9037817487E
:100EC0005A09203203F01F03012101FA03F340F80D
:100ED00022307047F0B4124B8278D9684678047893
:100EE0000E4DC943C1F302210F23C1F10407CB40CA
:100EF000BE401340334304F1604202F561421B01DE
:100F0000DBB282F800330378012203F01F015B0992
:100F10008A4045F82320F0BC704700BF00E100E0A4
:100F200000ED00E0264A038890429BB238D002F5DB
:100F30000062904234D0B0F1804F31D0A2F59832A7
:100F400090422DD002F58062904229D01D4A9042F5
:100F50002DD002F58062904229D00A8970B423F422
:100F60004073174C4E680D889BB21343A042038018
:100F7000C66205850ED0144B98420BD003F5406332
:100F8000984207D003F58063984203D003F580634D
:100F9000984201D18B7A03860123436170BC70476C
:100FA0004A8823F070031343064A9042D1D103804C
:100FB0000B884A68C262038501234361704700BF02
:100FC000002C01400010004000340140038829B982
:100FD00023F001031B041B0C038070479BB243F0FA
:100FE00001030380704700BFF0B5046A8D898B88C8
:100FF0000F68184E24F010040462046AD0F804E06C
:10100000826922F0807224F020042B4322F4E6420D
:10101000B04244EA031342EA072209D00E4CA04230
:1010200006D08968C0F804E0826181630362F0BD84
:10103000CD890E8A4C8A23F0800343EA0513CD88BC
:101040002EF4406E23F04003344343EA05134EEA86
:10105000840EE6E7002C014000340140002103E04B
:101060000A4B5B584350043109480A4B42189A42D4
:10107000F6D3094A02E0002342F8043B074B9A42A8
:10108000F9D3FFF7EBFAFFF70FFE70475412000891
:10109000000000205000002050000020B82F002049
:1010A000FEE70000134B984210B510DB124B98423C
:1010B000044611DD114A04211C469182FFF7B2FA61
:1010C0000F4890FBF4F0BDE81040FFF7B7BA0A4CA8
:1010D0000A4B00229A82F1E7002808DB074B4FF009
:1010E00004029A82EAD1BDE81040FFF7A1BA444257
:1010F000EEE700BFE05EF8FF20A10700000800480F
:1011000000A24A04F0B50668CB688F68D1F804C025
:10111000044626F0010608690D464969266066689E
:1011200026F4405E4EEA0707676022684CEA030631
:1011300022F4B05323F00C0346EA00021343236069
:10114000A36823F440730B4391B0A36001A8FFF799
:10115000CFF8174B9C4224D0164B9C4223D0164B01
:101160009C4222D0154B9C420CBF0E9A0F9A2368CA
:101170002968180448BF5200B2FBF1F301FB1322A7
:10118000B2EB510F226828BF0133120405D54FF688
:10119000F0721A40C3F3420313439BB2A38111B010
:1011A000F0BD0B9AE3E70C9AE1E70D9ADFE700BF89
:1011B000003801400044004000480040004C00401E
:1011C00030B44A680D688C684368C9682A43224372
:1011D0000A4323F470631343436030BC704700BF7D
:1011E0000023036043608360C3607047036819B9DC
:1011F00023F001030360704743F00103036070476D
:10120000C1F3080101857047808CC0F30800704766
:1012100010B4CCB2C1F307210123022903FA04F36D
:1012200010D0032908BF083032B902685DF8044BBA
:1012300022EA03030360704702685DF8044B13431E
:10124000036070470430EFE7C3690B4214BF01200D
:0412500000207047C3
:101254000000000001020304010203040607080958
:101264000000010002000400060008000A000C004F
:1012740010002000400080000001000008005E0310
:1012840050C30000010123142C010000303132331B
:101294003435363738394142434445460A00000064
:0400000508000000EF
:00000001FF
